:100000000C9453010C947B010C947B010C947B01A8
:100010000C947B010C947B010C947B010C947B0170
:100020000C947B010C947B010C947B010C947B0160
:100030000C947B010C947B010C947B010C947B0150
:100040000C94670E0C947B010C94350E0C940F0EDF
:100050000C947B010C947B010C947B010C947B0130
:100060000C94B10E0C947B01084AD73B3BCE016E39
:1000700084BCBFFDC12F3D6C74319ABD56833DDAFF
:100080003D00C77F11BED9E4BB4C3E916BAAAABE0E
:10009000000000803F07634236B79BD8A71A396833
:1000A0005618AEBAAB558C1D3CB7CC5763BD6DED41
:1000B000FD753EF6177231BF000000803F0800005A
:1000C00000BE922449123EABAAAA2ABECDCCCC4C8B
:1000D0003E00000080BEABAAAAAA3E00000000BFFE
:1000E000000000803F0000000000084178D3BB43BF
:1000F00087D1133D190E3CC3BD4282AD2B3E68EC47
:100100008276BED98FE1A93E4C80EFFFBE01C4FFCD
:100110007F3F0000000000000000000024002700D6
:100120002A0000000000250028002B00000000002D
:100130002300260029000404040404040404020229
:100140000202020203030303030301020408102056
:100150004080010204081020010204081020000061
:100160000008000201000003040700000000000076
:1001700000002053572056657273696F6E205061DE
:100180007463683A20307800205357204275696CB8
:1001900064204E756D6265723A20307800205357A6
:1001A0002050617274204E756D6265723A2030780D
:1001B000002053572056657273696F6E204D696E2B
:1001C0006F723A2030780053572056657273696F0A
:1001D0006E204D616A6F723A20307800535049208A
:1001E000494E542074696D656F75740053504920F1
:1001F00057616974004779726F2D766563746F7209
:100200000057616B652D7265706F72740053656E77
:10021000736F722D7265706F727400436F6E7472BB
:100220006F6C0045786563757461626C6500436F3F
:100230006D6D616E6400204368616E6E656C3A009E
:10024000204C656E6774683A00205B436F6E74697A
:100250006E756564207061636B65745D20003000AD
:10026000200020426F64793A003000200048656128
:100270006465723A00300020004865616465723A36
:10028000004932432074696D656F7574004D4520D7
:1002900043616C207265706F727420666F756E6456
:1002A00021002100D00F11241FBECFEFD8E0DEBF08
:1002B000CDBF12E0A0E0B1E0E8E1FFE302C00590AD
:1002C0000D92A637B107D9F725E0A6E7B2E001C045
:1002D0001D92A934B207E1F711E0C3E5D1E004C0F3
:1002E0002197FE010E94841FC235D107C9F70E94E1
:1002F0005E100C948A1F0C9400000895089580E409
:1003000080937C0080917A00806480937A00809151
:100310007A0086FDFCCF8091780090917900089555
:100320008091100490911104891B990B0895EF920C
:10033000FF920F931F93CF93DF938C017B01D0E04B
:10034000C0E0F701EC0FFD1F6491662361F0D80156
:10035000ED91FC910190F081E02DC8010995892B68
:1003600011F02196EECFCE01DF91CF911F910F9129
:10037000FF90EF900895AF92BF92CF92DF92EF92ED
:10038000FF920F931F93CF93DF936C017B018B013F
:10039000040F151FEB015E01AE18BF08C017D1078F
:1003A00059F06991D601ED91FC910190F081E02D19
:1003B000C6010995892B79F7C501DF91CF911F916E
:1003C0000F91FF90EF90DF90CF90BF90AF90089586
:1003D000FC01538D448D252F30E0842F90E0821B4B
:1003E000930B541710F0CF96089501970895FC01D0
:1003F000918D828D981761F0A28DAE0FBF2FB11D28
:100400005D968C91928D9F5F9F73928F90E008957F
:100410008FEF9FEF0895FC01918D828D981731F039
:10042000828DE80FF11D858D90E008958FEF9FEF8D
:100430000895FC01918D228D892F90E0805C9F4F63
:10044000821B91098F73992708958DE693E00E948E
:10045000190221E0892B09F420E0822F089580E021
:1004600090E0892B29F00E94250281110C94000054
:100470000895FC01A48DA80FB92FB11DA35ABF4F39
:100480002C91848D90E001968F739927848FA68993
:10049000B7892C93A089B1898C91837080648C93E7
:1004A000938D848D981306C00288F389E02D808196
:1004B0008F7D80830895EF92FF920F931F93CF93C8
:1004C000DF93EC0181E0888F9B8D8C8D98131AC08F
:1004D000E889F989808185FF15C09FB7F894EE8976
:1004E000FF896083E889F9898081837080648083D3
:1004F0009FBF81E090E0DF91CF911F910F91FF901E
:10050000EF900895F62E0B8D10E00F5F1F4F0F73C5
:100510001127E02E8C8D8E110CC00FB607FCFACF80
:10052000E889F989808185FFF5CFCE010E943902E3
:10053000F1CFEB8DEC0FFD2FF11DE35AFF4FF08251
:100540009FB7F8940B8FEA89FB8980818062CFCFB7
:10055000CF93DF93EC01888D8823B9F0AA89BB89FA
:10056000E889F9898C9185FD03C0808186FD0DC0E5
:100570000FB607FCF7CF8C9185FFF2CF808185FF06
:10058000EDCFCE010E943902E9CFDF91CF910895DE
:10059000833081F028F4813099F08230A9F00895F9
:1005A0008730A9F08830C9F08430B1F480918000A0
:1005B0008F7D03C0809180008F77809380000895A5
:1005C00084B58F7784BD089584B58F7DFBCF8091EE
:1005D000B0008F778093B00008958091B0008F7D38
:1005E000F9CFCF93DF93282F30E0F901E25AFE4F85
:1005F0008491F901E65BFE4FD491F901EA5CFE4F6C
:10060000C491CC23A1F081110E94C802EC2FF0E02C
:10061000EE0FFF1FE45DFE4FA591B491EC91ED2329
:1006200081E090E009F480E0DF91CF91089580E0CF
:1006300090E0FACF1F93CF93DF93282F30E0F9019A
:10064000E25AFE4F8491F901E65BFE4FD491F90125
:10065000EA5CFE4FC491CC23A9F0162F81110E94B1
:10066000C802EC2FF0E0EE0FFF1FEE5DFE4FA591EC
:10067000B4918FB7F894EC91111108C0D095DE2396
:10068000DC938FBFDF91CF911F910895DE2BF8CFC0
:10069000CF93DF9390E0FC01E65BFE4F24918A5CF0
:1006A0009E4FFC0184918823D1F090E0880F991F20
:1006B000FC01E85EFE4FA591B491FC01EE5DFE4F9A
:1006C000C591D491623071F49FB7F8943C91822F18
:1006D000809583238C93E8812E2B28839FBFDF9105
:1006E000CF9108958FB7F894EC912E2B2C938FBF58
:1006F000F6CF1F93CF93DF93182FEB0161E00E9499
:100700004803209739F460E0812FDF91CF911F914A
:100710000C941A03CF3FD10511F461E0F5CFE12F1E
:10072000F0E0E25AFE4FE491E33031F140F4E13081
:10073000B1F0E230E1F0C038D1057CF7E4CFE7302A
:1007400029F1E83059F1E430B1F7809180008062FE
:1007500080938000D0938B00C0938A0004C084B53E
:10076000806884BDC7BDDF91CF911F91089584B586
:10077000806284BDC8BDF7CF80918000806880937F
:100780008000D0938900C0938800EDCF8091B000A5
:1007900080688093B000C093B300E5CF8091B00033
:1007A00080628093B000C093B400DDCF3FB7F8946F
:1007B0008091DB029091DC02A091DD02B091DE021B
:1007C00026B5A89B05C02F3F19F00196A11DB11DAC
:1007D0003FBFBA2FA92F982F8827BC01CD01620FE8
:1007E000711D811D911D42E0660F771F881F991FA3
:1007F0004A95D1F708958F929F92AF92BF92CF9270
:10080000DF92EF92FF924B015C010E94D6036B01D5
:100810007C010E94D6036C197D098E099F09683EF0
:10082000734081059105A8F321E0821A9108A1087F
:10083000B10888EEC80E83E0D81EE11CF11C8114BB
:100840009104A104B10429F7FF90EF90DF90CF90BD
:10085000BF90AF909F908F9008952091B702260F80
:100860003327331F21323105ECF420916703FC015B
:1008700090E080E0243069F082E00895A091B70212
:100880002191AC0149565D4FA40FB52FB11D2C939A
:100890000196861798F38091B702680F6093B702AC
:1008A00080E0089581E008951092670381E08093CD
:1008B00046031092410361E082E10E941A0361E065
:1008C00083E10E941A03E9EBF0E080818E7F808350
:1008D00080818D7F808388E48093B80085E4809355
:1008E000BC000895CF93DF9391E090939602882304
:1008F000B9F0C091B800D091BA008091BC008A7B59
:100900008093BC0060E082E10E941A0360E083E112
:100910000E941A030E945404D093BA00C093B800F6
:10092000DF91CF910895CF92DF92EF92FF920F93D4
:100930001F93CF93DF93D82FC62F613208F098C052
:100940000E94D6036B017C018091670381116BC00B
:1009500081E080936703809346039FEF9093450364
:10096000109244039C0F9093430380934203809121
:100970004203DD0FD82BD093420380914103813095
:1009800009F078C0109241030E94D6036B017C01EC
:10099000809142038093BB008091690390916A0328
:1009A000A0916B03B0916C03892B8A2B8B2BA1F048
:1009B0000E94D6030091690310916A0320916B0392
:1009C00030916C036C197D098E099F090617170772
:1009D0002807390708F448C08091BC0083FDD8CFB0
:1009E00085EC8093BC000E94D6036B017C01809152
:1009F0006703813009F440C0809144038C1710F4E0
:100A0000C0914403E1E2F3E0A7E4B3E080E08C139B
:100A100055C08C2FDF91CF911F910F91FF90EF90D8
:100A2000DF90CF9008958091690390916A03A0911F
:100A30006B03B0916C03892B8A2B8B2B09F484CF29
:100A40000E94D6030091690310916A0320916B0301
:100A500030916C036C197D098E099F0906171707E1
:100A60002807390708F070CF809168030E9472044C
:100A7000C0E0CFCF85EEB5CF8091690390916A0336
:100A8000A0916B03B0916C03892B8A2B8B2B09F4FB
:100A9000AECF0E94D6030091690310916A032091A2
:100AA0006B0330916C036C197D098E099F09061741
:100AB00017072807390708F09ACFD6CF91919D9351
:100AC0008F5FA5CF0895E091110480911004E8177D
:100AD00030F4F0E0E95BFC4F808190E008958FEF07
:100AE0009FEF089590911104809110042FEF3FEF34
:100AF000981748F4E92FF0E0E95BFC4F208130E0E3
:100B00009F5F90931104C9010895CF92DF92EF92F5
:100B1000FF920F931F93CF93DF937C01CB018A0148
:100B200020912003222389F0EB016B01C40ED51E16
:100B3000CC15DD0569F06991D701ED91FC9101902B
:100B4000F081E02DC7010995F3CF642F0E942D0499
:100B5000C801DF91CF911F910F91FF90EF90DF902F
:100B6000CF900895CF93DF931F92CDB7DEB76983FF
:100B7000209120032223F9F020910E04203258F016
:100B800021E030E0FC013383228390E080E00F908D
:100B9000DF91CF91089580910F04E82FF0E0EA589B
:100BA000FD4F998190838F5F80930F0480930E0493
:100BB00081E090E0ECCF61E0CE0101960E942D042F
:100BC000F7CFCF92DF92EF92FF920F931F93CF93C5
:100BD000DF93D0910E0481E0D13208F09CC0C09127
:100BE0001F030E94D6036B017C0180916703811172
:100BF0006CC082E08093670381E0809346038FEFAF
:100C00008093450310924403D0934303A6E7B2E0D8
:100C1000E1E2F3E080E0D8138DC0109242038091AE
:100C20004203CC0FC82BC093420380914103813013
:100C300009F084C0109241030E94D6036B017C012D
:100C4000809142038093BB008091690390916A0375
:100C5000A0916B03B0916C03892B8A2B8B2BA1F095
:100C60000E94D6030091690310916A0320916B03DF
:100C700030916C036C197D098E099F0906171707BF
:100C80002807390708F442C08091BC0083FDD8CF03
:100C900085EC8093BC000E94D6036B017C0180919F
:100CA0006703823009F44CC0809145038F3F09F4FB
:100CB00069C080914503803209F466C08091450384
:100CC000803309F463C084E026C080916903909169
:100CD0006A03A0916B03B0916C03892B8A2B8B2B39
:100CE00009F483CF0E94D6030091690310916A032F
:100CF00020916B0330916C036C197D098E099F095B
:100D0000061717072807390708F06FCF8091680387
:100D10000E94720485E010920F0410920E0410924B
:100D20002003DF91CF911F910F91FF90EF90DF9003
:100D3000CF9008959D9191938F5F6DCF85EEA9CF50
:100D40008091690390916A03A0916B03B0916C0349
:100D5000892B8A2B8B2B09F4A2CF0E94D6030091FA
:100D6000690310916A0320916B0330916C036C1935
:100D70007D098E099F09061717072807390708F00C
:100D80008ECFC4CF80E0C7CF82E0C5CF83E0C3CF92
:100D900090E080E0089508958EBD00000DB407FE38
:100DA000FDCF8EB508958CBD9DBD0895CF93DF9383
:100DB000C0910403D091050380912E018823F9F09E
:100DC000D7FD10C05C9AC0910403D0910503BE0109
:100DD00083E00E947903D093ED02C093EC02DF918F
:100DE000CF9108955C9880910403909105039195AB
:100DF000819591099093050380930403E4CF1C1619
:100E00001D0694F470E060E089E00E947903BE0161
:100E100083E00E94790380910403909105039093ED
:100E2000ED028093EC02DBCFD195C195D109D0932F
:100E30000503C093040370E060E083E00E9479033F
:100E4000BE0189E0E6CFDC01ED91FC910190F081DB
:100E5000E02D0994CF93DF93E3E4F5E0858183608F
:100E6000C181D28123813481C22BD32BD168C82B7D
:100E7000808191E09093200380931F0310920F04D0
:100E800010920E0461E070E082E194E00E9423077A
:100E90006D2F82E194E00E94B2056C2F82E194E014
:100EA0000E94B20582E194E0DF91CF910C94E105BC
:100EB0000F931F93FC0100E012E12AE730E090E07D
:100EC000401751076207730740F436952795179529
:100ED00007959F5F9630A1F797E0292F286B2695FD
:100EE00020839095917091831F910F910895CF93D6
:100EF000DF93C3E4D5E0888191E090932003809351
:100F00001F0310920F0410920E0470E060E082E163
:100F100094E00E94230782E194E00E94E10562E0F0
:100F200088810E949304109211048093100482E13E
:100F300094E00E947205C82F82E194E00E9472053D
:100F400020E0822B9C2BDF91CF910895CF92DF92EE
:100F5000EF92FF92CF93C62FBC01990F880B990B8C
:100F60000E944B1C6B017C016C2F70E071956195A8
:100F70007109072E000C880B990B0E944B1C9B01DA
:100F8000AC0160E070E080E090E40E949C1D9B0159
:100F9000AC01C701B6010E942F1DCF91FF90EF90C9
:100FA000DF90CF900895FB0101900020E9F7319781
:100FB000AF01461B570BDC01ED91FC910280F381E0
:100FC000E02D09948F929F92AF92BF92EF92FF9281
:100FD0000F931F93CF93DF93CDB7DEB7A1970FB6D3
:100FE000F894DEBF0FBECDBF7C01FA01CB0119A280
:100FF000223008F42AE08E010F5D1F4F822E912CC3
:10100000B12CA12CBF01A50194010E94431FF9013D
:10101000CA016A300CF5605DD8016E938D01232BF7
:10102000242B252B79F790E080E0109721F0BD016B
:10103000C7010E94D307A1960FB6F894DEBF0FBE7A
:10104000CDBFDF91CF911F910F91FF90EF90BF9097
:10105000AF909F908F900895695CDECF242F462F2C
:1010600050E070E060E00C94E2076BE671E00C94F5
:10107000D307CF93DF93BC018DE693E00E94D307A3
:10108000EC018DE693E00E9435088C0F9D1FDF91E7
:10109000CF910895CF93DF9340E150E0682F8DE624
:1010A00093E00E942E08EC018DE693E00E94350843
:1010B0008C0F9D1FDF91CF9108950F931F93CF93B6
:1010C000DF93EC010E9497018C01CE010E9435084C
:1010D000800F911FDF91CF911F910F9108951F9362
:1010E000CF93DF93E0911E04F0911F0440912604FA
:1010F000609124047091250420912304809123049D
:1011000090912404A0912504B091260480931105A8
:1011100090931205A0931305B093140590912904A0
:10112000D0912B0480912704309120043530B1F503
:1011300090912204322F292F3093FE042093FD0436
:10114000709300056093FF04982F842F90930205FD
:1011500080930105809128049091290490930405BF
:101160008093030580912A0490912B0490930A05A3
:101170008093090580912C0490912D0490930C0587
:1011800080930B0580912E0490912F0490930E056F
:1011900080930D05DF91CF911F910895FF773497CC
:1011A000C0912C04937060912B0470912C04409199
:1011B0002D0450912E0420912F0430913004EF30F3
:1011C000F105FCF0A0913104B09132047197DCF08C
:1011D000E0913304F09134048130C1F4892F90E020
:1011E0009093E4048093E3047093DE046093DD0441
:1011F0005093E0044093DF043093E2042093E10431
:10120000C9CFB0E0A0E0F0E0E0E0E6CF843099F4B0
:10121000892F90E09093EC048093EB047093E604A4
:101220006093E5045093E8044093E7043093EA04A4
:101230002093E904AFCF823099F4892F90E0909306
:10124000F4048093F3047093EE046093ED045093E0
:10125000F0044093EF043093F2042093F1049ACF0A
:10126000833099F4892F90E09093FC048093FB04E1
:101270007093F6046093F5045093F8044093F704D8
:101280003093FA042093F90485CF853031F088300B
:1012900021F018ED180F1230D8F4892F90E09093B8
:1012A0000805809307057093FE046093FD04509336
:1012B00000054093FF043093020520930105B0938D
:1012C0000405A0930305F0930605E093050562CF9E
:1012D000813129F43093100520930F055BCF8331C2
:1012E00019F4D093150556CF8E3199F4C093160595
:1012F000ADE2B4E090E080E02D91E0911705F0912F
:101300001805E80FF91F2083019689309105A1F790
:1013100041CF843169F47093240560932305509381
:10132000260540932505309328052093270532CFC5
:10133000853169F470932A056093290550932C0533
:1013400040932B0530932E0520932D0523CF863116
:1013500069F47093300560932F05509332054093E4
:101360003105309334052093330514CF813F09F0C4
:1013700011CF8091D204882341F062EA72E080911B
:10138000D0049091D1040E945D0880912904873097
:1013900009F000CF8091D204882341F06DE872E01B
:1013A0008091D0049091D1040E945D0880912C041A
:1013B00080931905EFCECF93C4E68091CD04909130
:1013C000CE04DC01ED91FC910084F185E02D0995BE
:1013D00018161906BCF061E070E080E090E00E9411
:1013E000FB03C15051F78091D204882349F061E892
:1013F00072E08091D0049091D1040E945D0880E059
:10140000CF91089581E0FCCF8F929F92BF92CF92AF
:10141000DF92EF92FF920F931F93CF93DF9300D051
:10142000CDB7DEB78091CD049091CE04892B09F021
:1014300067C18091DB040E94F102019709F46BC03F
:101440004091D5045091D6046091D7047091D8048E
:10145000CE0101960E94580789819A810E94D30685
:1014600060E08091D9040E941A0380E00E94CC06BB
:10147000082F80E00E94CC06182F80E00E94CC0646
:10148000F82E80E00E94CC0600931E0410931F04E7
:10149000F092200480932104C8019F770097E9F51A
:1014A0008091D2048823B9F169E772E08091D00479
:1014B0009091D1040E9497010EE114E052E2E52ED2
:1014C00054E0F52E67E772E08091D0049091D1044A
:1014D0000E949701D8018D918D01803140F465E71C
:1014E00072E08091D0049091D1040E94970140E174
:1014F00050E0F801319760818091D0049091D1043F
:101500000E942E08E016F106E9F68091D004909131
:10151000D1040E943508F12C22C08C01045011091D
:10152000F12CE12CE016F10678F48FEF0E94CC0646
:10153000B0E8EB16F10420F4F701E25EFB4F848380
:10154000EFEFEE1AFE0AEECF61E08091D9040E941F
:101550001A03F090D204F11011C0FF24F3948F2DE0
:101560000F900F90DF91CF911F910F91FF90EF900F
:10157000DF90CF90BF909F908F90089500911E04B0
:1015800010911F046DE672E08091D0049091D10417
:101590000E9497014EE1C42E44E0D42E6BE672E027
:1015A0008091D0049091D1040E949701D6018D9131
:1015B0006D01803140F469E672E08091D004909131
:1015C000D1040E94970140E150E0F601319760811B
:1015D0008091D0049091D1040E942E08B2E2CB16E3
:1015E000B4E0DB06D9F63CEFB32EB00EE8E2EB1523
:1015F00010F428E2B22E62E672E08091D00490915D
:10160000D1040E94970192E2C92E94E0D92EE12CD8
:101610008091D0049091D104BE1401F160E672E093
:101620000E9497014601D6018C91803140F46EE50D
:1016300072E08091D0049091D1040E949701BFEF95
:10164000CB1ADB0A40E150E0F40160818091D004C4
:101650009091D1040E942E08E394DACF17FF05C0C1
:1016600069E472E00E945D081F7760E472E0809197
:10167000D0049091D1040E949701A80170E060E02D
:101680002AE08091D0049091D1040E94E20766E3A1
:1016900072E08091D0049091D1040E9497016091F2
:1016A00020048091D0049091D10461110BC06EE2AE
:1016B00072E00E9497018091D0049091D1040E9421
:1016C00035084DCF613019F463E272E0F2CF623039
:1016D00019F46BE172E0EDCF633019F46DE072E064
:1016E000E8CF643019F461E072E0E3CF653019F4BB
:1016F00065EF71E0DECF4AE050E00E942E08DBCFBC
:1017000064E08091CF040E949304109211048093AE
:1017100010040E94DB09882309F4FDCE8091CD04DA
:101720009091CE04DC01ED91FC910284F385E02DD3
:101730000995F82E8091CD049091CE04DC01ED91B5
:10174000FC910284F385E02D0995E82E8091CD046B
:101750009091CE04DC01ED91FC910284F385E02DA3
:101760000995182F8091CD049091CE04DC01ED9164
:10177000FC910284F385E02D0995F0921E04E0921D
:101780001F04109320048093210400E01E2D0F29D4
:101790001F770115110509F4BECE04501109D12C93
:1017A000C12C0115110509F4D8CE78010D311105B0
:1017B00018F08CE1E82EF12C64E06E0D8091CF04DE
:1017C0000E94930410921104809310040E94DB097C
:1017D000882309F4C2CE8091CD049091CE04DC011F
:1017E000ED91FC910284F385E02D09958091CD0463
:1017F0009091CE04DC01ED91FC910284F385E02D03
:1018000009958091CD049091CE04DC01ED91FC917D
:101810000284F385E02D09958091CD049091CE044A
:10182000DC01ED91FC910284F385E02D0995B12C4A
:10183000BE141F04C0F48091CD049091CE04DC014D
:10184000ED91FC910284F385E02D0995B0E8CB166B
:10185000D10438F4F601E25EFB4F8483F601319641
:101860006F01B394E5CF0E191F099BCFCF938091E1
:10187000DB048F3F49F40E94040AC82F811109C07C
:10188000C0E08C2FCF9108950E94F102019799F743
:10189000F7CF80912004833039F4809122048B3F6C
:1018A00079F70E946F08EDCF8230A1F58091220474
:1018B000813FC9F480912404873019F7809127046F
:1018C000809319058091280480931A05809129043A
:1018D00080931B0580912A0480931C0580912B0422
:1018E00080931D05CECF8C3F61F6809123048093B9
:1018F0001E058091270490912804A0912904B0919D
:101900002A0480931F0590932005A0932105B0938E
:101910002205B7CF853009F0B3CFC3CFCF92DF9286
:10192000EF92FF920F931F93CF93DF9300D0CDB729
:10193000DEB7082FF62E14E0160F8091CD0490919B
:10194000CE04009709F073C02DE7E22E8091DB04EE
:101950000E94F102892B21F18091D204882341F069
:101960006CEE71E08091D0049091D1040E945D08EA
:1019700061E070E080E090E00E94FB03EA94E110F7
:10198000E5CF9091D204992309F445C06CED71E044
:101990008091D0049091D1040E945D0890E03BC0FA
:1019A0004091D5045091D6046091D7047091D80429
:1019B000CE0101960E94580789819A810E94D30620
:1019C00060E08091D9040E941A03812F0E94CC0606
:1019D00080E00E94CC06802F0E94CC06A02FB0E0B1
:1019E000AE55BB4F8C9191E0980F9C930E94CC0612
:1019F00092E2C92E94E0D92E10E0D6018D916D01AE
:101A00000E94CC061F5FF112F8CF61E08091D904EB
:101A10000E941A0391E0892F0F900F90DF91CF91D0
:101A20001F910F91FF90EF90DF90CF90089520913C
:101A3000CF0431E03093200320931F0310920F0452
:101A400010920E04612F70E00E94230770E060E0A6
:101A50008091CD049091CE040E9423078091CD0403
:101A60009091CE04DC01ED91FC910190F081E02D8C
:101A7000602F09958091CD049091CE04DC01ED9109
:101A8000FC910190F081E02DA02FB0E0AE55BB4F4E
:101A90006C9121E0260F2C93099582E2C82E84E0F8
:101AA000D82E10E08091CD049091CE04F601619182
:101AB0006F01DC01ED91FC910190F081E02D099521
:101AC0001F5FF112EFCF8091CD049091CE040E9460
:101AD000E10591E0882309F49ECF60CF85ED8093E6
:101AE000BC008091690390916A03A0916B03B0914F
:101AF0006C030796A11DB11D23E0B695A795979598
:101B000087952A95D1F72091BC0024FD03C010923F
:101B1000670308954091690350916A0360916B03D4
:101B200070916C03452B462B472B69F30097A10559
:101B3000B10541F02AE22A95F1F700C00197A10909
:101B4000B109E1CF809168030C947204FF920F9366
:101B50001F93CF93DF93EC01F62E08811981C80102
:101B60000E94A71AF81621F06F2DC8010E94AF1A23
:101B7000CE01DF91CF911F910F91FF900895EF92C9
:101B8000FF920F931F93CF93DF9300D0CDB7DEB7B3
:101B900087E3E82E81E0F82E0AE010E01A8309833B
:101BA000F70161917F01CE0101960E94A60D0F5FA2
:101BB0001F4F0831110591F787E391E00F900F90C7
:101BC000DF91CF911F910F91FF90EF900895EF92C9
:101BD000FF920F931F93CF93DF9300D0CDB7DEB763
:101BE0008AE2E82E81E0F82E08E210E01A830983E9
:101BF000F70161917F01CE0101960E94A60D0F5F52
:101C00001F4F0533110591F78AE291E00F900F9075
:101C1000DF91CF911F910F91FF90EF9008951F9248
:101C20000F920FB60F9211242F933F934F935F9310
:101C30006F937F938F939F93AF93BF93EF93FF9394
:101C40008DE693E00E943902FF91EF91BF91AF9131
:101C50009F918F917F916F915F914F913F912F91C4
:101C60000F900FBE0F901F9018951F920F920FB6F6
:101C70000F9211242F938F939F93EF93FF93E091F3
:101C80007D03F0917E038081E0918303F0918403D2
:101C900082FD1BC09081809186038F5F8F7320919E
:101CA0008703821741F0E0918603F0E0E359FC4F8F
:101CB000958F80938603FF91EF919F918F912F9144
:101CC0000F900FBE0F901F9018958081F4CF1F9238
:101CD0000F920FB60F9211242F933F938F939F93E0
:101CE000AF93BF938091E2029091E302A091E4024E
:101CF000B091E5023091DA0223E0230F2D3758F539
:101D00000196A11DB11D2093DA028093E202909307
:101D1000E302A093E402B093E5028091DB0290918C
:101D2000DC02A091DD02B091DE020196A11DB11D81
:101D30008093DB029093DC02A093DD02B093DE027D
:101D4000BF91AF919F918F913F912F910F900FBEB7
:101D50000F901F90189526E8230F0296A11DB11D24
:101D6000D2CF1F920F920FB60F9211242F933F9351
:101D70004F935F936F937F938F939F93AF93BF9393
:101D8000EF93FF938091B900887F803609F44AC0B1
:101D9000F0F5883209F4A7C018F5803109F49BC02A
:101DA000B8F4882309F4F9C0883009F494C0FF918D
:101DB000EF91BF91AF919F918F917F916F915F91C3
:101DC0004F913F912F910F900FBE0F901F9018953C
:101DD000883109F488C0803251F78093450314C0DC
:101DE000803409F49DC040F48033B9F38833F9F6A8
:101DF0008093450385ECB0C0803509F485C08835F3
:101E000009F496C0883499F60E946E0DD0CF8839B7
:101E100009F48CC038F5883729F050F4883611F071
:101E2000803729F683E0809367031092D90257C068
:101E3000883809F47BC0803919F0803809F0B7CFB1
:101E40008091D902803208F071C0E091D90281E01E
:101E50008E0F8093D9028091BB00F0E0E754FD4FD4
:101E600080833DC0803B39F0E0F4803A09F479C0CA
:101E7000883A09F09CCF84E0809367031092B802FF
:101E80001092B702E0910A04F0910B040995809139
:101E9000B70281110FC081E08093B70210929702C0
:101EA00009C0803C09F4A6CF883C09F4A3CF883B45
:101EB00009F07DCFE091B80281E08E0F8093B802E7
:101EC000F0E0E956FD4F80818093BB009091B8020D
:101ED0008091B70229C0809142038093BB0085ECBA
:101EE0008093BC0064CF9091440380914303981782
:101EF00058F5E091440381E08E0F80934403F0E0B5
:101F0000EF5DFC4F8081E9CFE091440381E08E0FCB
:101F1000809344038091BB00F0E0EF5DFC4F808331
:101F200090914403809143039817C8F285E8D8CF75
:101F3000E091440381E08E0F809344038091BB00C5
:101F4000F0E0EF5DFC4F80838091460381115CCF10
:101F500081E08093410384EA8093BC001092670380
:101F600026CF85EC8093BC00109267038091D90244
:101F7000803230F4E091D902F0E0E754FD4F108256
:101F80006091D90270E0E0910C04F0910D0489EBAE
:101F900092E009951092D9020ACF1092450334CFEE
:101FA000EDE6F3E01382128288EE93E0A0E0B0E069
:101FB00084839583A683B7832BE431E03183208328
:101FC00025EC30E03587248724EC30E037872687FE
:101FD00020EC30E0318B208B21EC30E0338B228BF6
:101FE00022EC30E0358B248B26EC30E0378B268BCF
:101FF000118E128E138E148EE2E1F4E0138212829F
:1020000084839583A683B7838DE591E09183808354
:10201000109211041092100410920F0410920E04EA
:102020000E9454048DE791E090930B0480930A047E
:102030008EE791E090930D0480930C04E3E4F5E0C7
:1020400088E4808380E094E0928381831482138209
:1020500080E88583E2EAF4E086E0DF011D928A955C
:10206000E9F71092A8041092D2048EE090E09093C9
:102070003605809335058CE090E090933805809389
:10208000370588E090E090933A0580933905909366
:102090003C0580933B0589E090E090933E0580935A
:1020A0003D0584E090E09093400580933F058AE0F1
:1020B00090E090934205809341050895CF93DF937C
:1020C000CDB7DEB768970FB6F894DEBF0FBECDBFB1
:1020D000789484B5826084BD84B5816084BD85B503
:1020E000826085BD85B5816085BD80916E0081600F
:1020F00080936E00109281008091810082608093B5
:1021000081008091810081608093810080918000B6
:102110008160809380008091B10084608093B100E1
:102120008091B00081608093B00080917A008460DB
:1021300080937A0080917A00826080937A00809107
:102140007A00816080937A0080917A008068809321
:102150007A001092C10062E087E00E94480362E0CA
:1021600086E00E94480362E088E00E94480361E044
:1021700084E00E94480380912E01882321F061E0D1
:1021800089E00E94480310921104109210041092EA
:102190000F0410920E040E9454048DE791E0909376
:1021A0000B0480930A048EE791E090930D048093D2
:1021B0000C04E0917D03F0917E0382E08083E09146
:1021C0007903F0917A031082E0917B03F0917C0314
:1021D00083E3808310928503E0918103F091820371
:1021E00086E08083E0917F03F091800380818061AD
:1021F0008083E0917F03F0918003808188608083F9
:10220000E0917F03F0918003808180688083E0917A
:102210007F03F091800380818F7D808311E0109394
:10222000200380E680931F0382E194E00E94E10591
:102230008111FEC58EE691E00E94390868E771E0E1
:102240008DE693E00E94D30720E140E650E060E095
:1022500070E08DE693E00E94E2078DE693E00E9435
:1022600035088BE891E00E9439081093F7028091BD
:10227000F702811176C105E411E0A7E48A2EA1E0FE
:102280009A2EFF24F39422242A94B9EF3B2E8CE05B
:10229000E82E9DEF792E28E0622E30E9532E4FE58F
:1022A000442EF80181918F018093E1026CEB71E083
:1022B0008DE693E00E94D3078091E1020E944A08D4
:1022C0008091E102F092200380931F0310920F048B
:1022D00010920E0482E194E00E94E1058111BCC5D8
:1022E0008EE691E00E94390866ED71E08DE693E09C
:1022F0000E94D3078091E1020E944A0889EE91E092
:102300000E9439088091E1028093CF0482E194E039
:102310009093CE048093CD042092DB04F0922204AB
:1023200061E081E00E948E0C62E370E080E090E06A
:102330000E94FB030E94040A8111FCCF62E370E05B
:1023400080E090E00E94FB030E94040A8111FCCF10
:10235000309222041092230462E082E00E948E0CEC
:102360000E94040A882309F46EC580912204883FE4
:1023700009F069C58091D204882309F470C067EC24
:1023800071E08091D0049091D1040E94970140E1C6
:1023900050E0609124048091D0049091D1040E9477
:1023A0002E0861EB71E08091D0049091D1040E94DD
:1023B000970140E150E0609125048091D004909114
:1023C000D1040E942E08A0902604B0902704C0904B
:1023D0002804D09029046DE971E08091D004909197
:1023E000D1040E94970120E1B601A5018091D0049B
:1023F0009091D1040E94E207A0902A04B0902B048F
:10240000C0902C04D0902D0468E871E08091D00435
:102410009091D1040E94970120E1B601A50180911D
:10242000D0049091D1040E94E207C0902E04D09075
:102430002F0462E771E08091D0049091D1040E9452
:102440009701A090D004B090D104A60170E060E0A4
:1024500020E1C5010E94E207C5010E943508E09213
:10246000B800709222046092230410922404109207
:102470002504109226045092270440922804F092DA
:10248000290410922A0410922B0410922C0410920A
:102490002D0410922E0410922F04109230041092EA
:1024A00031041092320461E182E00E948E0CF8EE59
:1024B000CF2EF3E0DF2EF1E0CF1AD10811F40C9407
:1024C000941A0E94360C8823B1F3809122048C3F29
:1024D00091F760911F0570912005809121059091E1
:1024E000220520911E05283039F460392FE5720746
:1024F00021E08207910591F128EE33E040E050E0C1
:102500000E94651F69017A0164EF71E08DE693E036
:102510000E94D30780911E050E944A0863E072E082
:102520008DE693E00E94D3072AE0B701A601F7FEEB
:102530000DC06DE28DE693E00E945B0244275527B3
:10254000BA014C195D096E097F092AE08DE693E016
:102550000E94E20786E192E00E94390881E08093C0
:10256000F60290E080E00E94A71A8093DF0281E0EB
:1025700090E00E94A71A8093E0028091DF02909180
:10258000E0028C3E934109F46EC41A8219826CEE0B
:10259000CE0101960E94A60D81E090E09A83898386
:1025A00063E1CE0101960E94A60D0E94BF0D0E941C
:1025B000E70D60913C0180913801681B770B072E75
:1025C000000C880B990B0E944B1C20E030E040E48B
:1025D00050E40E94A11B6093E7027093E80280938D
:1025E000E9029093EA0280E880934805109245053D
:1025F0001092440511E006E667E2262E50E6352EDD
:102600002FB7F8948091E2029091E302A091E40246
:10261000B091E5022FBF40912601509127016091B2
:102620002801709129016C017D01C41AD50AE60ABE
:10263000F70AB701A601443151056105710508F497
:102640003FC28093260190932701A0932801B09365
:10265000290110931E03809125018B3F08F026C4A9
:102660008F5F8093250187E00E94F102D82E80932E
:102670001D0380912F01813009F01BC486E00E9468
:10268000F1028093240180913101882361F09091BF
:10269000340180911903891730F0109324011093AD
:1026A000230110921C0380913201882309F44AC04F
:1026B0000E947F017C012AE939E949E15FE36091E9
:1026C00015037091160380911703909118030E94CF
:1026D0002F1D4B015C01B701FF0C880B990B0E9469
:1026E0004B1C20E030E040E85EE30E942F1D2DEC03
:1026F0003CEC4CEC5EE30E942F1D9B01AC01C5013C
:10270000B4010E94BE1A4B015C01809215039092A5
:102710001603A0921703B09218036091340170E081
:1027200090E080E00E944B1C9B01AC01C501B4010C
:102730000E94221D87FD06C01093240110932301DF
:1027400010921C0380913301882309F461C00E9418
:102750007F01BC01990F880B990B0E944B1C9B01B8
:10276000AC0160E070E080E094E40E94BD1A4B018F
:102770005C0120E030E0A9010E94221D18160CF037
:10278000C9C320E030E040E05FE3C501B4010E942E
:102790002F1D4B015C0123E333E343E35FE36091CF
:1027A00015037091160380911703909118030E94EE
:1027B0002F1D2B013C012AE939E949E95EE3C501F6
:1027C000B4010E942F1D9B01AC01C301B2010E9404
:1027D000BE1A4B015C018092150390921603A092E1
:1027E0001703B09218036091340170E090E080E02C
:1027F0000E944B1C9B01AC01C501B4010E94221D2B
:1028000087FD06C0109324011093230110921C032E
:1028100088E00E94F102982F990F990F809124016E
:10282000880F892BD82AD092140380912D018823F8
:1028300009F478C3E12C40E4F42EF0924705E092CD
:1028400046050E94770790931303809312030E941A
:102850002A07809112039091130395958795909381
:10286000130380931203609112037091130365594F
:102870007A418091390190913A01C0903D01D09008
:102880003E01E0903F01F090400120912A01222377
:1028900009F44DC3681B790B709313036093120303
:1028A000072E000C880B990B0E944B1CA701960168
:1028B00050580E94A11B60930E0370930F038093E6
:1028C000100390931103C0900E03D0900F03E0907B
:1028D0001003F090110320E030E0A901C701B60118
:1028E0000E949C1B87FF14C0A701960160914101C3
:1028F0007091420180914301909144010E942F1DEB
:1029000060930E0370930F03809310039093110351
:1029100080912E0190912501943608F01DC38823E3
:1029200009F414C380912B0160E0811101C061E0C2
:1029300089E00E941A0320910A0330910B03409111
:102940000C0350910D0360910E0370910F03809161
:102950001003909111030E94BD1A4B015C018092FB
:10296000060390920703A0920803B09209036091B6
:10297000370170E090E080E00E944B1CA5019401BB
:102980000E942F1D0E94131C2B017B0120E030E0D0
:10299000A901C501B4010E94221D181624F0B7FA3E
:1029A000B094B7F8B09420E030E040E450E4C501C2
:1029B000B4010E949C1B60913C0170E087FF1DC028
:1029C0002091E7023091E8024091E9025091EA0239
:1029D000C501B4010E942F1D4B015C0160913801BB
:1029E00070E090E080E00E944B1C9B01AC01C501AF
:1029F000B4010E94BE1A0E94131C80913B0190E01A
:102A0000F7FEA7C2481A590A5092050340920403E0
:102A100080910403909105036817790724F470935B
:102A20000503609304037195619571098091040316
:102A3000909105038617970724F47093050360931C
:102A4000040380912C01882359F080910403909114
:102A50000503919581959109909305038093040353
:102A6000809135018823C9F080910403909105037A
:102A70008B3F910514F08AEF90E086302FEF92079C
:102A800014F486E09FEF95958795959587958058E6
:102A90009F4F90930503809304030E94D606809174
:102AA00003038F5F809303038B3050F047E050E0C7
:102AB0006CE171E08DE693E00E94BB01109203038C
:102AC0008DE693E00E9419020297ECF080910203D8
:102AD000811119C080910103811115C08DE693E029
:102AE0000E94F7012091FF02309100032038310548
:102AF00009F049C2813809F046C2109302031092CE
:102B000000031092FF028DE693E00E9419020397E2
:102B1000D4F0809102038823B1F0809101038111E8
:102B200012C08DE693E00E94F7018DE693E00E94CB
:102B3000F7018093FE028DE693E00E94F7018093F7
:102B4000FD02109301038DE693E00E94190220918B
:102B5000FD02281719060CF051C180910203882349
:102B600009F44CC180910103882309F447C1809185
:102B7000FE028E3F09F0B8C38DE693E00E94F70194
:102B80007C018DE693E00E94F7018C8B1B8A6B8998
:102B90007C896E297F29072E000C880B990B0E94D7
:102BA0004B1C2DEC3CEC4CEC5DE30E942F1D4B01CB
:102BB0005C018092F9029092FA02A092FB02B0921C
:102BC000FC02F0901A03F092F8028DE693E00E9466
:102BD000F701D82E80931A0381E0FD1001C080E038
:102BE00080931B038DE693E00E94F7017C018DE644
:102BF00093E00E94F7018E8B1D8A6D897E896E2974
:102C00007F29072E000C880B990B0E944B1C2AE091
:102C100037ED43E25CE30E942F1D60930A0370933B
:102C20000B0380930C0390930D03D0FE0FC02DEC8B
:102C30003CEC4CEC5DE3C501B4010E949C1B87FD9C
:102C400005C080912401813009F0B1C100932501B4
:102C50008DE693E00E94F7018DE693E00E94F70174
:102C60008DE693E00E94F7018DE693E00E94F70164
:102C700010920103109202031092FD021092FE02C4
:102C800020E030E048EC52E460910E0370910F03B5
:102C900080911003909111030E942F1D0E94131C1C
:102CA00060931301709314018091F702882309F453
:102CB00081C11093200330921F0310920F041092D1
:102CC0000E0462E070E082E194E00E94230782E15A
:102CD00094E00E94E10562E080E60E949304109275
:102CE0001104809310048230F0F382E194E00E949A
:102CF00072058093160182E194E00E947205809330
:102D000015011093200330921F0310920F041092AC
:102D10000E046CE170E082E194E00E94230782E1FE
:102D200094E00E94E10562E080E60E949304109224
:102D30001104809310048230F0F382E194E00E9449
:102D400072058093180182E194E00E9472058093DD
:102D5000170180911403809319018091EC028093F4
:102D60001A01E0E1F1E090E080E022E03191830F90
:102D7000911D2F5F2D30D1F780931B014EE050E065
:102D80006EE071E08DE693E00E94BB01809132011C
:102D9000811104C080913301882359F18091EB02A5
:102DA00091E0980F9093EB02833018F16091150336
:102DB0007091160380911703909118030E941A1CBA
:102DC00060930501E2E0F1E090E080E022E03191E3
:102DD000830F911D2F5F2D30D1F780930D014EE0B1
:102DE00050E060E071E08DE693E00E94BB0110923C
:102DF000EB028091030381111092030380911E0363
:102E0000882309F4C5C088E00E94F1029091E6028F
:102E1000891709F4BDC08093E602882309F4B8C07D
:102E2000809119038F5F8093190310921E03B0C025
:102E300086E991E00E94390880EA91E00E94390811
:102E40001092F70214CA8AE192E00E9439088016B3
:102E5000910609F486CB25CA86E991E00E943908DB
:102E600084E492E0F2CFE7E3EE2EE1E0FE2E0AE00A
:102E700010E0C8010E94A71AF70181937F010F5F3C
:102E80001F4F08311105A9F77AE2E72E71E0F72EFE
:102E900008E210E0C8010E94A71AF70181937F01A0
:102EA0000F5F1F4F05331105A9F783CB0093250151
:102EB000DACB809130018130C9F486E00E94F102C2
:102EC000811111C090911C03913069F4209123016C
:102ED000213029F4109223011092240104C0909310
:102EE00023019093240180931C03CDCB80911B037D
:102EF000882309F4C8CB80911A03813009F017C3E5
:102F000080912401813009F0BECB90911C03911176
:102F1000BACBE2CFC501B401905820E030E040E0E8
:102F20005FE335CC10924705109246058ACC680FB6
:102F3000791F7093130360931203072E000C880B04
:102F4000990B0E944B1CA7019601B3CC61E084E071
:102F5000F0CC480E591E58CD882391F080912B015A
:102F600061E0811101C060E089E00E941A031092C3
:102F70000503109204030E94D606109219038FCD08
:102F800060E084E0F2CF9927909300038093FF02E2
:102F900080E0C82E80E0D82ECD2809F431CB0E94E5
:102FA0002502882309F42ACB0E94000027CB109227
:102FB00025014ECE8091F602882309F489C10E9432
:102FC000360C882309F4C5CEF09035056F2D80911D
:102FD0000305909104050E94A6072B013C016F2D6B
:102FE0008091FD049091FE040E94A6074B015C01B4
:102FF0006F2D8091FF04909100050E94A6076B87BA
:103000007C878D879E876F2D8091010590910205A9
:103010000E94A6076F83788789879A87A301920108
:10302000C301B2010E942F1D6B017C01A501940117
:10303000C501B4010E942F1D9B01AC01C701B6015F
:103040000E94BE1A6B017C012B853C854D855E85F7
:10305000CA01B9010E942F1D9B01AC01C701B60135
:103060000E94BE1A6B017C012F81388549855A85E3
:10307000CA01B9010E942F1D9B01AC01C701B60115
:103080000E94BE1A0E94F21D6B017C01AC019B01E3
:10309000C301B2010E94A11B6F87788B898B9A8B29
:1030A000A7019601C501B4010E94A11B6B837C831B
:1030B0008D839E83A70196016B857C858D859E857A
:1030C0000E94A11B4B015C01A70196016F817885CD
:1030D00089859A850E94A11B2B013C01A5019401C1
:1030E000C501B4010E942F1D6F83788789879A8755
:1030F000A3019201C301B2010E942F1D2F813885C7
:1031000049855A850E94BE1A9B01AC010E94BE1AD5
:103110009B01AC0160E070E080E89FE30E94BD1A73
:103120006B017C01A30192016F85788989899A8955
:103130000E942F1D6B877C878D879E87A501940138
:103140006B817C818D819E810E942F1D9B01AC0132
:103150006B857C858D859E850E94BE1A9B01AC0186
:103160000E94BE1AA70196010E943D1B21EE3EE27D
:1031700045E652E40E942F1D6B017C01DC01CB016E
:10318000B0588093F2029093F302A093F402B093AC
:10319000F50220E030E0A901C701B6010E94221D1E
:1031A0001816D4F420E030E044E353E4C701B6013C
:1031B0000E949C1B181684F0A701960160E070E045
:1031C00084EB93E40E94BD1A6093F2027093F302C1
:1031D0008093F4029093F5028091360181114EC0E4
:1031E0002B813C814D815E81CA01B9010E942F1D56
:1031F0002F81388549855A850E94BE1A9B01AC01F2
:103200000E94BE1A9B01AC0160E070E080E89FE381
:103210000E94BD1A6B017C012B813C814D815E8136
:103220006F85788989899A890E942F1D6B837C8399
:103230008D839E83A3019201C501B4010E942F1DBD
:103240009B01AC016B817C818D819E810E94BE1AA5
:103250009B01AC010E94BE1AA70196010E943D1B72
:1032600021EE3EE245E652E40E942F1D6093EE02FD
:103270007093EF028093F0029093F10220E030E02F
:1032800040E251E46091F2027091F3028091F40205
:103290009091F5020E942F1D0E94131C7B0120E0DB
:1032A00030E040E251E46091EE027091EF028091D3
:1032B000F0029091F1020E942F1D0E94131CE092D7
:1032C0001501F0921601609317017093180141CD1A
:1032D0003FE0309315012092160188EB809317018F
:1032E00092E29093180135CD8C3F09F095C08DE6A0
:1032F00093E00E94F701809337018DE693E00E94EE
:10330000F70180933C018DE693E00E94F7018093E2
:1033100038018DE693E00E94F70180933B01682F0E
:1033200070E090E080E00E94491C2AE939E949E90F
:103330005FE30E942F1D0E941A1C609338018DE6E6
:1033400093E00E94F701BC01990F880B990B0E9432
:103350004B1C60933D0170933E0180933F0190931D
:1033600040018DE693E00E94F70190933A0180932B
:1033700039018DE693E00E94F701888F1F8A8091C2
:10338000390190913A01CF88D88C8C299D2990934E
:103390003A01809339018DE693E00E94F701BC0168
:1033A000990F880B990B0E944B1C2AE037ED43E2E2
:1033B0005CE30E942F1D6093410170934201809352
:1033C0004301909344018DE693E00E94F7010E942F
:1033D000BF0D60913C0180913801681B770B072E6F
:1033E000000C880B990B0E944B1C20E030E040E45D
:1033F00050E40E94A11B6093E7027093E80280935F
:10340000E9029093EA0210920103109202031092D3
:10341000FD021092FE02F2CC8B3FA9F78DE693E0FD
:103420000E94F70180FF5FC010932A0181FF5EC0F8
:1034300010932B0182FF5DC010932C0183FF5CC0B1
:1034400010932D0184FF5BC010932E0185FF5AC09D
:1034500010932F0186FF59C010933001880F880BFD
:103460008123809331018DE693E00E94F7018093E0
:1034700034018DE693E00E94F7018DE693E00E940F
:10348000F70180FF45C01093350181FF44C01093C0
:10349000320182FF43C01093330183FF42C0109377
:1034A00036018DE693E00E94F7018DE693E00E94DD
:1034B000F7018DE693E00E94F7018DE693E00E940C
:1034C000F7018DE693E00E94F7010E94E70D10924C
:1034D0000103109202031092FD021092FE02F0E02E
:1034E000E0E009958BCC10922A01A0CF10922B011D
:1034F000A1CF10922C01A2CF10922D01A3CF109238
:103500002E01A4CF10922F01A5CF10923001A6CF8B
:1035100010923501BACF10923201BBCF1092330115
:10352000BCCF10923601BDCF82E692E08ECC8111E5
:10353000AAC8809124018111A6C880911C03813002
:1035400009F0A1C88093240110921C039CC8F9992A
:10355000FECF92BD81BDF89A992780B50895262F98
:10356000F999FECF1FBA92BD81BD20BD0FB6F89468
:10357000FA9AF99A0FBE019608955058BB27AA27C8
:103580000E94D51A0C94E81C0E94DA1C38F00E94A4
:10359000E11C20F039F49F3F19F426F40C94B01C80
:1035A0000EF4E095E7FB0C94AA1CE92F0E94F91C8D
:1035B00058F3BA17620773078407950720F079F468
:1035C000A6F50C941B1D0EF4E0950B2EBA2FA02D22
:1035D0000B01B90190010C01CA01A0011124FF27C0
:1035E000591B99F0593F50F4503E68F11A16F040BB
:1035F000A22F232F342F4427585FF3CF46953795BA
:103600002795A795F0405395C9F77EF41F16BA0B7E
:10361000620B730B840BBAF09150A1F0FF0FBB1F2C
:10362000661F771F881FC2F70EC0BA0F621F731F75
:10363000841F48F4879577956795B795F7959E3FD2
:1036400008F0B0CF9395880F08F09927EE0F979563
:10365000879508950E94DA1C60F080E891E009F4F3
:103660009EEF0E94E11C28F040E851E071F45EEF0B
:103670000CC00C94B01C0C941B1DE92FE0780E9428
:10368000F91C40F3092E052AB1F32617370748071E
:10369000590738F00E2E07F8E02569F0E025E064C0
:1036A0000AC0EF6307F8009407FADB01B9019D0136
:1036B000DC01CA01AD01EF930E94B81B0E94E81C17
:1036C0000E946D1B5F91552339F02BED3FE049E4DB
:1036D00050FD49EC0C94BE1A0895DF93DD27B92FF5
:1036E000BF7740E85FE31616170648075B0718F434
:1036F000D92F0E94271D9F938F937F936F930E94D2
:10370000321EE8E6F0E00E94B31C0E94E81C2F91F4
:103710003F914F915F910E94421DDD2351F09058DF
:10372000A2EA2AED3FE049EC5FE3D0785D270E94F2
:10373000D51ADF910C94E81C0E94861C08F481E0E5
:1037400008950E94B51B0C94E81C0E94E11C58F0DF
:103750000E94DA1C40F029F45F3F29F00C94AA1C67
:1037600051110C941C1D0C94B01C0E94F91C68F3A0
:103770009923B1F3552391F3951B550BBB27AA272A
:1037800062177307840738F09F5F5F4F220F331F64
:10379000441FAA1FA9F335D00E2E3AF0E0E832D02C
:1037A00091505040E695001CCAF72BD0FE2F29D02F
:1037B000660F771F881FBB1F261737074807AB0701
:1037C000B0E809F0BB0B802DBF01FF2793585F4F76
:1037D0003AF09E3F510578F00C94AA1C0C941C1DE5
:1037E0005F3FE4F3983ED4F3869577956795B79558
:1037F000F7959F5FC9F7880F911D9695879597F963
:103800000895E1E0660F771F881FBB1F62177307DB
:103810008407BA0720F0621B730B840BBA0BEE1FF0
:1038200088F7E09508950E941A1C6894B1110C94D1
:103830001C1D08950E94011D88F09F5798F0B92F14
:103840009927B751B0F0E1F0660F771F881F991FD5
:103850001AF0BA95C9F714C0B13091F00E941B1D3F
:10386000B1E008950C941B1D672F782F8827B85F4F
:1038700039F0B93FCCF3869577956795B395D9F72D
:103880003EF490958095709561957F4F8F4F9F4F37
:103890000895E89409C097FB3EF490958095709543
:1038A00061957F4F8F4F9F4F9923A9F0F92F96E98C
:1038B000BB279395F695879577956795B795F11101
:1038C000F8CFFAF4BB0F11F460FF1BC06F5F7F4F9E
:1038D0008F4F9F4F16C0882311F096E911C07723B0
:1038E00021F09EE8872F762F05C0662371F096E8B9
:1038F000862F70E060E02AF09A95660F771F881F88
:10390000DAF7880F9695879597F90895990F00082B
:10391000550FAA0BE0E8FEEF16161706E807F907A1
:10392000C0F012161306E407F50798F0621B730B3C
:10393000840B950B39F40A2661F0232B242B252BBD
:1039400021F408950A2609F4A140A6958FEF811D60
:10395000811D089597F99F6780E870E060E0089501
:103960009FEF80EC0895DF93CF931F930F93FF9207
:10397000EF92DF927B018C01689406C0DA2EEF0192
:103980000E94421DFE01E894A59125913591459133
:103990005591A6F3EF010E94D51AFE019701A801E7
:1039A000DA9469F7DF90EF90FF900F911F91CF911C
:1039B000DF91089500240A941616170618060906C2
:1039C000089500240A941216130614060506089595
:1039D000092E0394000C11F4882352F0BB0F40F41D
:1039E000BF2B11F460FF04C06F5F7F4F8F4F9F4F5D
:1039F000089557FD9058440F551F59F05F3F71F0DF
:103A00004795880F97FB991F61F09F3F79F0879545
:103A10000895121613061406551FF2CF4695F1DFCE
:103A200008C0161617061806991FF1CF869571055E
:103A3000610508940895E894BB2766277727CB0192
:103A400097F908950E94861C08F48FEF08959B0152
:103A5000AC0160E070E080E89FE30C94A11B0E9441
:103A6000421D0C94E81C0E94DA1C38F00E94E11CF4
:103A700020F0952311F00C94AA1C0C94B01C112476
:103A80000C941C1D0E94F91C70F3959FC1F3950FB7
:103A900050E0551F629FF001729FBB27F00DB11DD2
:103AA000639FAA27F00DB11DAA1F649F6627B00D62
:103AB000A11D661F829F2227B00DA11D621F739F4B
:103AC000B00DA11D621F839FA00D611D221F749F59
:103AD0003327A00D611D231F849F600D211D822FA0
:103AE000762F6A2F11249F5750409AF0F1F08823C7
:103AF0004AF0EE0FFF1FBB1F661F771F881F9150F4
:103B00005040A9F79E3F510580F00C94AA1C0C94DC
:103B10001C1D5F3FE4F3983ED4F386957795679537
:103B2000B795F795E7959F5FC1F7FE2B880F911D1D
:103B30009695879597F90895FA01EE0FFF1F309635
:103B400021053105A1F16115710561F48038BFE3EC
:103B50009B0749F168949038810561F08038BFEF88
:103B60009B0741F099234AF5FF3FE1053105210507
:103B700019F1E8940894E795D901AA2329F4AB2F09
:103B8000BE2FF85FD0F310C0FF5F70F4A695E0F78A
:103B9000F73950F019F0FF3A38F49F779F930DD022
:103BA0000F9007FC9058089546F00C94B01C60E00C
:103BB00070E080E89FE308954FE79F775F934F930E
:103BC0003F932F930E94C71E2F913F914F915F917A
:103BD0000E942F1D0C943E1E19F416F40C94B01C78
:103BE0000C94701E0E94011DB8F39923C9F3B6F31B
:103BF0009F57550B87FF0E947E1E0024A0E640EAD7
:103C0000900180585695979528F4805C660F771F31
:103C1000881F20F026173707480730F4621B730B04
:103C2000840B202931294A2BA69517940794202527
:103C300031254A2758F7660F771F881F20F026176F
:103C40003707480730F4620B730B840B200D311DCE
:103C5000411DA09581F7B901842F9158880F969541
:103C6000879508959B01AC010C942F1D29F416F043
:103C70000C94AA1C0C941B1D0C94B01C0E94011DDA
:103C8000A8F39638A0F707F80F92E8942BE33AEAE6
:103C900048EB5FE70E94451D0F920F920F924DB7C0
:103CA0005EB70F920E940F1FE5E9F0E00E94B31C7F
:103CB0004F915F91EF91FF91E595EE1FFF1F49F046
:103CC000FE57E0684427EE0F441FFA95E1F741954F
:103CD000550B0E94891E0F9007FE0C94271D089516
:103CE0009F3F31F0915020F4879577956795B79570
:103CF000880F911D9695879597F90895915050409A
:103D0000660F771F881FD2F708950C94AA1C0C9495
:103D1000701E0E94011DD8F39923C9F3940F511D01
:103D2000A3F39150504094F059F0882332F0660F7D
:103D3000771F881F91505040C1F79E3F51052CF7C7
:103D4000880F911D9695879597F908955F3FACF080
:103D5000983E9CF0BB27869577956795B79508F4B4
:103D6000B1609395C1F7BB0F58F711F460FFE8CF2E
:103D70006F5F7F4F8F4F9F4FE3CF0C941C1D16F04A
:103D80000C94701E0C94B01C68940C94AA1C0E9495
:103D9000011DA8F39923C1F3AEF3DF93CF931F93D3
:103DA0000F93FF92C92FDD2788232AF02197660FF2
:103DB000771F881FDAF720E030E040E85FEB9FE3F1
:103DC000883920F0803E38F021968F770E94BE1A05
:103DD000EDEBF0E004C00E94BE1AEAEEF0E00E94B3
:103DE000B31C8B01BE01EC01FB2E6F577109759559
:103DF000771F880B990B0E944B1C28E132E741E3A7
:103E00005FE30E94421DAF2D9801AE01FF900F911C
:103E10001F91CF91DF910E94D51A0C94E81CFA01F2
:103E2000DC01AA0FBB1F9B01AC01BF5728F422275E
:103E300033274427507820C0B75190F4AB2F00248B
:103E4000469537952795011CA395D2F3002071F074
:103E5000220F331F441FB395DAF30ED00C94BD1A12
:103E600061307105A0E88A07B94630F49B01AC01C6
:103E70006627772788279078309621F02083318332
:103E8000428353830895A1E21A2EAA1BBB1BFD0196
:103E90000DC0AA1FBB1FEE1FFF1FA217B307E40729
:103EA000F50720F0A21BB30BE40BF50B661F771F81
:103EB000881F991F1A9469F7609570958095909561
:103EC0009B01AC01BD01CF010895052E97FB1EF4A7
:103ED00000940E947C1F57FD07D00E94431F07FCDF
:103EE00003D04EF40C947C1F50954095309521954D
:103EF0003F4F4F4F5F4F0895909580957095619516
:103F00007F4F8F4F9F4F0895EE0FFF1F0590F49145
:083F1000E02D0994F894FFCFA5
:103F180080817FFA080000000000000000CC80814A
:103F28007FFD080000000000000000CC80817FC7F2
:103F380001004701016614000000000000010100B3
:103F480000000000050000781E000019A00000F025
:103F5800410000803F4A4B000000005B02BB01E8C3
:103F680001A8021902F7010B0200000000B2058542
:103F780005C80662059001720563050D0A004572C1
:103F8800726F72203D203000434D50533134204130
:103F98004444524553733A20307800434D505331CE
:103FA80034204F6B2E004572726F72203D20340012
:103FB800434D5053206E6F7420436F6E6E6563746B
:103FC8006564206F7220466F756E64000D0A436841
:103FD80065636B696E6720666F7220424E4F30389A
:103FE80058206F6E2000424E4F30385820414444CC
:103FF800524553733A20307800424E4F303858209B
:104008004F6B2E005265706F7274204944203A201D
:104018003078005265706F727420696E74657276BC
:10402800616C203A2000206D7300424E4F303830CA
:10403800206E6F74206465746563746564206174B0
:1040480020676976656E2049324320616464726531
:1040580073732E00424E4F303858206E6F742043D1
:104068006F6E6E6563746564206F7220466F756E3F
:104078006400424E4F30387820696E69742066615A
:06408800696C73212100A8
:00000001FF
