:100000000C948C010C94B4010C94B4010C94B401C4
:100010000C94B4010C94B4010C94B4010C94B4018C
:100020000C94B4010C94B4010C94B4010C94B4017C
:100030000C94B4010C94B4010C94B4010C94B4016C
:100040000C94BF170C94B4010C948D170C94671783
:100050000C94B4010C94B4010C94B4010C94B4014C
:100060000C9409180C94B401036EDB363D9A9999EF
:10007000993DABAAAA2A3E000000803F084AD73B20
:100080003BCE016E84BCBFFDC12F3D6C74319ABD67
:1000900056833DDA3D00C77F11BED9E4BB4C3E918B
:1000A0006BAAAABE000000803F072C7AA5BA6CC5D7
:1000B00090DA3B9365FC8BBC53F810FD3C56928361
:1000C0004DBD879D3AB63DCBC9BF5BBE73DA0FC944
:1000D0003F07634236B79BD8A71A39685618AEBA9D
:1000E000AB558C1D3CB7CC5763BD6DEDFD753EF631
:1000F000177231BF000000803F08000000BE92244C
:1001000049123EABAAAA2ABECDCCCC4C3E00000080
:1001100080BEABAAAAAA3E00000000BF000000807B
:100120003F0000000000084178D3BB4387D1133D56
:10013000190E3CC3BD4282AD2B3E68EC8276BED91F
:100140008FE1A93E4C80EFFFBE01C4FF7F3F00005E
:10015000000000004500008200004000200001086F
:10016000000604000100000000240027002A00000F
:10017000000000250028002B0000000000230026BE
:10018000002900040404040404040402020202021C
:10019000020303030303030102040810204080014B
:1001A00002040810200102040810200000000800CA
:1001B000020100000304070000000000000000200E
:1001C00053572056657273696F6E2050617463686F
:1001D0003A20307800205357204275696C64204ED5
:1001E000756D6265723A2030780020535720506157
:1001F0007274204E756D6265723A2030780020531B
:10020000572056657273696F6E204D696E6F723A32
:100210002030780053572056657273696F6E204DF9
:10022000616A6F723A203078004661696C656420BB
:10023000746F206163636573732045746865726EC3
:10024000657420636F6E74726F6C6C6572005350CE
:100250004920494E542074696D656F757400535080
:10026000492057616974004779726F2D7665637410
:100270006F720057616B652D7265706F72740053F9
:10028000656E736F722D7265706F727400436F6E5E
:1002900074726F6C0045786563757461626C65009B
:1002A000436F6D6D616E6400204368616E6E656CB6
:1002B0003A00204C656E6774683A00205B436F6EAD
:1002C00074696E756564207061636B65745D200090
:1002D0003000200020426F64793A0030002000484E
:1002E00065616465723A00300020004865616465AC
:1002F000723A004932432074696D656F7574004D20
:10030000452043616C207265706F727420666F7552
:100310006E6421002100281911241FBECFEFD8E000
:10032000DEBFCDBF13E0A0E0B1E0E0E6F0E502C043
:1003300005900D92A836B107D9F727E0A8E6B3E0FB
:1003400001C01D92A736B207E1F711E0CCE8D1E079
:1003500004C02197FE010E941228CB38D107C9F7AB
:100360000E94C0190C942E280C9400000895089542
:10037000CF93DF93209133052223C1F0FC0120812C
:100380002223A1F0C3E3D5E0AFE2B5E09C012C5FEE
:100390003F4F899141919D918427892339F4E21738
:1003A000F307B9F781E0DF91CF91089580E0FBCFAB
:1003B00080E480937C0080917A00806480937A004E
:1003C00080917A0086FDFCCF809178009091790031
:1003D0000895DC01ED91FC910190F081E02D0994EC
:1003E000EF92FF920F931F93CF93DF938C017B01CA
:1003F000D0E0C0E0F701EC0FFD1F6491662361F0CF
:10040000D801ED91FC910190F081E02DC801099592
:10041000892B11F02196EECFCE01DF91CF911F9164
:100420000F91FF90EF900895AF92BF92CF92DF921D
:10043000EF92FF920F931F93CF93DF936C017B0199
:100440008B01040F151FEB015E01AE18BF08C0172A
:10045000D10759F06991D601ED91FC910190F0819D
:10046000E02DC6010995892B79F7C501DF91CF9160
:100470001F910F91FF90EF90DF90CF90BF90AF90C2
:100480000895FC01538D448D252F30E0842F90E09A
:10049000821B930B541710F0CF960895019708957F
:1004A000FC01918D828D981761F0A28DAE0FBF2F48
:1004B000B11D5D968C91928D9F5F9F73928F90E09E
:1004C00008958FEF9FEF0895FC01918D828D98170D
:1004D00031F0828DE80FF11D858D90E008958FEF4A
:1004E0009FEF0895FC01918D228D892F90E0805C13
:1004F0009F4F821B91098F739927089585E895E096
:100500000E94720221E0892B09F420E0822F0895D5
:1005100080E090E0892B29F00E947E0281110C94EA
:1005200000000895FC01A48DA80FB92FB11DA35A96
:10053000BF4F2C91848D90E001968F739927848F03
:10054000A689B7892C93A089B1898C918370806426
:100550008C93938D848D981306C00288F389E02DC7
:1005600080818F7D80830895EF92FF920F931F9378
:10057000CF93DF93EC0181E0888F9B8D8C8D981356
:100580001AC0E889F989808185FF15C09FB7F89462
:10059000EE89FF896083E889F989808183708064AE
:1005A00080839FBF81E090E0DF91CF911F910F91F9
:1005B000FF90EF900895F62E0B8D10E00F5F1F4F08
:1005C0000F731127E02E8C8D8E110CC00FB607FC17
:1005D000FACFE889F989808185FFF5CFCE010E94A5
:1005E0009202F1CFEB8DEC0FFD2FF11DE35AFF4F7F
:1005F000F0829FB7F8940B8FEA89FB898081806233
:10060000CFCFCF93DF93EC01888D8823B9F0AA89EF
:10061000BB89E889F9898C9185FD03C0808186FDBD
:100620000DC00FB607FCF7CF8C9185FFF2CF80810C
:1006300085FFEDCFCE010E949202E9CFDF91CF91ED
:100640000895833081F028F4813099F08230A9F048
:1006500008958730A9F08830C9F08430B1F48091D2
:1006600080008F7D03C0809180008F778093800011
:10067000089584B58F7784BD089584B58F7DFBCFB1
:100680008091B0008F778093B00008958091B00082
:100690008F7DF9CFCF93DF93282F30E0F901E55517
:1006A000FE4F8491F901E956FE4FD491F901ED57BF
:1006B000FE4FC491CC23A1F081110E942103EC2FA5
:1006C000F0E0EE0FFF1FE758FE4FA591B491EC91BB
:1006D000ED2381E090E009F480E0DF91CF9108956F
:1006E00080E090E0FACF1F93CF93DF93282F30E084
:1006F000F901E555FE4F8491F901E956FE4FD49179
:10070000F901ED57FE4FC491CC23A9F0162F8111AA
:100710000E942103EC2FF0E0EE0FFF1FE159FE4F86
:10072000A591B4918FB7F894EC91111108C0D095B0
:10073000DE23DC938FBFDF91CF911F910895DE2BD5
:10074000F8CFCF93DF9390E0FC01E956FE4F249160
:100750008D579E4FFC0184918823C9F090E0880F4B
:10076000991FFC01EB59FE4FA591B491FC01E15991
:10077000FE4FC591D49161110DC09FB7F8948C9133
:10078000209582238C938881282328839FBFDF9123
:10079000CF910895623051F49FB7F8943C91822F25
:1007A000809583238C93E8812E2BEFCF8FB7F8941D
:1007B000EC912E2B2C938FBFEACF1F93CF93DF9317
:1007C000182FEB0161E00E94A103209739F460E04B
:1007D000812FDF91CF911F910C947303CF3FD105EF
:1007E00011F461E0F5CFE12FF0E0E555FE4FE49123
:1007F000E33031F140F4E130B1F0E230E1F0C03803
:10080000D1057CF7E4CFE73029F1E83059F1E43045
:10081000B1F780918000806280938000D0938B003C
:10082000C0938A0004C084B5806884BDC7BDDF91D1
:10083000CF911F91089584B5806284BDC8BDF7CF64
:1008400080918000806880938000D0938900C0935D
:100850008800EDCF8091B00080688093B000C09395
:10086000B300E5CF8091B00080628093B000C09368
:10087000B400DDCF3FB7F8948091D9039091DA03AB
:10088000A091DB03B091DC0326B5A89B05C02F3FE8
:1008900019F00196A11DB11D3FBFBA2FA92F982FA6
:1008A0008827BC01CD01620F711D811D911D42E0A1
:1008B000660F771F881F991F4A95D1F708958F9269
:1008C0009F92AF92BF92CF92DF92EF92FF924B0135
:1008D0005C010E943A046B017C010E943A046C198D
:1008E0007D098E099F09683E734081059105A8F333
:1008F00021E0821A9108A108B10888EEC80E83E0B1
:10090000D81EE11CF11C81149104A104B10429F743
:10091000FF90EF90DF90CF90BF90AF909F908F901F
:1009200008952091B503260F3327331F2132310557
:10093000ECF420917F05FC0190E080E0243069F028
:1009400082E00895A091B5032191AC014B565C4F14
:10095000A40FB52FB11D2C930196861798F38091A3
:10096000B503680F6093B50380E0089581E00895B2
:1009700010927F0581E080935E051092590561E039
:1009800082E10E94730361E083E10E947303E9EB5B
:10099000F0E080818E7F808380818D7F808388E4FA
:1009A0008093B80085E48093BC000895CF93DF93D3
:1009B00091E0909394038823B9F0C091B800D0914E
:1009C000BA008091BC008A7B8093BC0060E082E129
:1009D0000E94730360E083E10E9473030E94B804E5
:1009E000D093BA00C093B800DF91CF910895CF9211
:1009F000DF92EF92FF920F931F93CF93DF93D82F45
:100A0000C62F613208F098C00E943A046B017C0145
:100A100080917F0581116BC081E080937F05809379
:100A20005E059FEF90935D0510925C059C0F90937F
:100A30005B0580935A0580915A05DD0FD82BD09322
:100A40005A0580915905813009F078C010925905F6
:100A50000E943A046B017C0180915A058093BB008F
:100A60008091810590918205A0918305B0918405C4
:100A7000892B8A2B8B2BA1F00E943A0400918105CF
:100A80001091820520918305309184056C197D09B0
:100A90008E099F09061717072807390708F448C069
:100AA0008091BC0083FDD8CF85EC8093BC000E9470
:100AB0003A046B017C0180917F05813009F440C0CC
:100AC00080915C058C1710F4C0915C05E9E3F5E0BA
:100AD000AFE5B5E080E08C1355C08C2FDF91CF914E
:100AE0001F910F91FF90EF90DF90CF90089580912C
:100AF000810590918205A0918305B0918405892B91
:100B00008A2B8B2B09F484CF0E943A040091810533
:100B10001091820520918305309184056C197D091F
:100B20008E099F09061717072807390708F070CFA5
:100B3000809180050E94D604C0E0CFCF85EEB5CF6E
:100B40008091810590918205A0918305B0918405E3
:100B5000892B8A2B8B2B09F4AECF0E943A0400918B
:100B600081051091820520918305309184056C19CF
:100B70007D098E099F09061717072807390708F00E
:100B80009ACFD6CF91919D938F5FA5CF0895E09195
:100B9000290680912806E81730F4F0E0E15AFA4F70
:100BA000808190E008958FEF9FEF0895909129063E
:100BB000809128062FEF3FEF981748F4E92FF0E0D7
:100BC000E15AFA4F208130E09F5F90932906C901D6
:100BD00008958091280690912906891B990B089504
:100BE000CF92DF92EF92FF920F931F93CF93DF93F9
:100BF0007C01CB018A0120913805222389F0EB0189
:100C00006B01C40ED51ECC15DD0569F06991D701C5
:100C1000ED91FC910190F081E02DC7010995F3CF92
:100C2000642F0E949104C801DF91CF911F910F9111
:100C3000FF90EF90DF90CF900895CF93DF931F92B6
:100C4000CDB7DEB76983209138052223F9F02091D2
:100C50002606203258F021E030E0FC013383228365
:100C600090E080E00F90DF91CF910895809127066A
:100C7000E82FF0E0EC58FC4F998190838F5F8093D0
:100C800027068093260681E090E0ECCF61E0CE015C
:100C900001960E949104F7CFCF92DF92EF92FF92DC
:100CA0000F931F93CF93DF93D091260681E0D1322B
:100CB00008F09CC0C09137050E943A046B017C018A
:100CC00080917F0581116CC082E080937F0581E077
:100CD00080935E058FEF80935D0510925C05D09345
:100CE0005B05A4E7B3E0E9E3F5E080E0D8138DC04D
:100CF00010925A0580915A05CC0FC82BC0935A0503
:100D000080915905813009F084C0109259050E94E4
:100D10003A046B017C0180915A058093BB0080915D
:100D2000810590918205A0918305B0918405892B5E
:100D30008A2B8B2BA1F00E943A040091810510911F
:100D4000820520918305309184056C197D098E09F7
:100D50009F09061717072807390708F442C0809132
:100D6000BC0083FDD8CF85EC8093BC000E943A0480
:100D70006B017C0180917F05823009F44CC0809129
:100D80005D058F3F09F469C080915D05803209F4EB
:100D900066C080915D05803309F463C084E026C09D
:100DA0008091810590918205A0918305B091840581
:100DB000892B8A2B8B2B09F483CF0E943A04009154
:100DC00081051091820520918305309184056C196D
:100DD0007D098E099F09061717072807390708F0AC
:100DE0006FCF809180050E94D60485E0109227067F
:100DF0001092260610923805DF91CF911F910F9126
:100E0000FF90EF90DF90CF9008959D9191938F5F29
:100E10006DCF85EEA9CF8091810590918205A0913B
:100E20008305B0918405892B8A2B8B2B09F4A2CFE3
:100E30000E943A040091810510918205209183055A
:100E4000309184056C197D098E099F0906171707D3
:100E50002807390708F08ECFC4CF80E0C7CF82E0E3
:100E6000C5CF83E0C3CF0F931F93CF93DF9370E081
:100E70006A5C7B4F2130A9F48A01075F1F4F30E085
:100E800020E0EB01FA01E230F10578F0A991B99187
:100E9000BA27AB27BA270A0F1B1F211D311D329716
:100EA000F2CF00E010E09801ECCFFA01EE7F6E0F78
:100EB0007F1F4E175F0769F0FB01408150E070E033
:100EC00060E0762F652F542F4427040F151F261F2F
:100ED000371FA9016627772741155105610571055F
:100EE00019F022273327F1CF00951095E82FF0E075
:100EF000EA5CFB4F10830183DF91CF911F910F912B
:100F000008958EBD0DB407FEFDCF089561E0809178
:100F1000DD030E94730378940895F89460E0809153
:100F2000DD030C9473030F931F93CF93DF93EC01B6
:100F30008B010E948D072097B9F08AE30E948107F8
:100F40001EBCF801CE01019739F00DB407FEFDCFAC
:100F50002EB51EBC2193F7CF2197C00FD11F0DB422
:100F600007FEFDCF8EB58883DF91CF911F910F9142
:100F70000C9486071F93CF93DF93182FC62FD42F7F
:100F80000E948D078C2F8F71812B0E9481078D2FDE
:100F90000E948107DF91CF911F910C948607CF9318
:100FA000C82FC076809173038C1799F043E06FE1EE
:100FB00080EA0E94BA07C09373034C2F50E085E08B
:100FC000559547958A95E1F76FE180E8CF910C94AC
:100FD000BA07CF910895CF93DF93C82FD62F0E94E1
:100FE000CF074D2F6C2F80E4DF91CF910C94BA077F
:100FF000CF93DF93C82FD72F0E94EB076D2F81E08F
:101000008C0FDF91CF910C94EB07CF93C82F0E94E8
:10101000CF070E948D078C2F8F710E94810780E07F
:101020000E948107C7FF03C080E00E948107CEB500
:101030000E9486078C2FCF910895CF93DF93EC0108
:1010400040E86FE180E80E94BA0740E86FE180EA7B
:101050000E94BA074AE06CE180EA0E94BA0760E0A9
:101060007CE082E00E94F807BE01745F86E00E9487
:10107000F80740E060E08AE70E94BA070E948D0707
:101080002097B1F08AE70E948107809136048EBDD7
:10109000E7E3F4E0CA5CDB4FEC17FD0731F0819128
:1010A0000DB407FEFDCF8EBDF7CF0DB407FEFDCF0B
:1010B0000E94860748E06FE180E80E94BA07D0E00E
:1010C000C0E08CE10E9405088A7029F42196C83E90
:1010D00083E0D807B1F78CE10E94050881FD03C0C9
:1010E000C83ED34039F448E06FE180EADF91CF9108
:1010F0000C94BA07DF91CF91089590E080E00895B5
:1011000008958EBD00000DB407FEFDCF8EB5089585
:101110008CBD9DBD0895CF93DF93C0911205D091F2
:101120001305809153018823F9F0D7FD10C05C9A14
:10113000C0911205D0911305BE0183E00E94DD032A
:10114000D0937203C0937103DF91CF9108955C989F
:101150008091120590911305919581959109909335
:10116000130580931205E4CF1C161D0694F470E05D
:1011700060E089E00E94DD03BE0183E00E94DD03A0
:1011800080911205909113059093720380937103DF
:10119000DBCFD195C195D109D0931305C09312052A
:1011A00070E060E083E00E94DD03BE0189E0E6CFED
:1011B000DC01ED91FC910190F081E02D0994CF9339
:1011C000DF93EBE5F7E085818360C181D2812381E4
:1011D0003481C22BD32BD168C82B808191E09093AE
:1011E000380580933705109227061092260661E095
:1011F00070E08AE296E00E94D8086D2F8AE296E0BD
:101200000E941D066C2F8AE296E00E941D068AE26B
:1012100096E0DF91CF910C944C060F931F93FC0145
:1012200000E012E12AE730E090E040175107620742
:10123000730740F436952795179507959F5F96306D
:10124000A1F797E0292F286B269520839095917020
:1012500091831F910F910895CF93DF93CBE5D7E052
:10126000888191E090933805809337051092270686
:101270001092260670E060E08AE296E00E94D808AC
:101280008AE296E00E944C0662E088810E94F704A0
:1012900010922906809328068AE296E00E94D605DD
:1012A000C82F8AE296E00E94D60520E0822B9C2B74
:1012B000DF91CF910895CF92DF92EF92FF92CF937B
:1012C000C62FBC01990F880B990B0E94A0246B01BB
:1012D0007C016C2F70E0719561957109072E000CEF
:1012E000880B990B0E94A0249B01AC0160E070E088
:1012F00080E090E40E9425269B01AC01C701B60165
:101300000E94B825CF91FF90EF90DF90CF90089585
:10131000FB0101900020E9F73197AF01461B570B05
:10132000DC01ED91FC910280F381E02D09948F9214
:101330009F92AF92BF92EF92FF920F931F93CF9322
:10134000DF93CDB7DEB7A1970FB6F894DEBF0FBE1F
:10135000CDBF7C01FA01CB0119A2223008F42AE0AA
:101360008E010F5D1F4F822E912CB12CA12CBF013D
:10137000A50194010E94D127F901CA016A300CF538
:10138000605DD8016E938D01232B242B252B79F7DB
:1013900090E080E0109721F0BD01C7010E9488090C
:1013A000A1960FB6F894DEBF0FBECDBFDF91CF91EF
:1013B0001F910F91FF90EF90BF90AF909F908F90F3
:1013C0000895695CDECF242F462F50E070E060E086
:1013D0000C9497098F929F92AF92BF92CF92DF9217
:1013E000EF92FF920F931F93CF93DF937C018B01BA
:1013F0004C0182E0880E911C5701E5E0AE0EB11C55
:10140000D0E0C0E0F40161914F014AE050E0C80132
:101410000E94E3096C016EE2C8010E94E9018C0D93
:101420009D1DC80FD91F8A149B0461F74AE050E044
:10143000F7016581C8010E94E3098C0F9D1FDF91B0
:10144000CF911F910F91FF90EF90DF90CF90BF90C1
:10145000AF909F908F900895BC0185E895E00C9423
:10146000880964E673E00C948809CF93DF93BC018C
:1014700085E895E00E948809EC0185E895E00E94E6
:10148000310A8C0F9D1FDF91CF910895CF93DF9389
:10149000AB01682F85E895E00E94E309EC0185E83F
:1014A00095E00E94310A8C0F9D1FDF91CF91089526
:1014B0000F931F93CF93DF93EC010E94F0018C01F7
:1014C000CE010E94310A800F911FDF91CF911F91B1
:1014D0000F9108951F93CF93DF93E0913606F0911B
:1014E000370640913E0660913C0670913D06209182
:1014F0003B0680913B0690913C06A0913D06B09141
:101500003E068093290790932A07A0932B07B09358
:101510002C0790914106D091430680913F0630916F
:1015200038063530B1F590913A06322F292F309395
:101530001607209315077093180760931707982FC5
:10154000842F90931A0780931907809140069091F9
:10155000410690931C0780931B078091420690914F
:10156000430690932207809321078091440690912F
:101570004506909324078093230780914606909117
:1015800047069093260780932507DF91CF911F91FF
:101590000895FF773497C091440693706091430695
:1015A00070914406409145065091460620914706A9
:1015B00030914806EF30F105FCF0A0914906B0915A
:1015C0004A067197DCF0E0914B06F0914C068130B1
:1015D000C1F4892F90E09093FC068093FB067093F2
:1015E000F6066093F5065093F8064093F70630939D
:1015F000FA062093F906C9CFB0E0A0E0F0E0E0E001
:10160000E6CF843099F4892F90E09093040780937B
:1016100003077093FE066093FD0650930007409306
:10162000FF063093020720930107AFCF823099F471
:10163000892F90E090930C0780930B077093060717
:1016400060930507509308074093070730930A07F4
:10165000209309079ACF833099F4892F90E09093D3
:1016600014078093130770930E0760930D07509330
:10167000100740930F07309312072093110785CF6F
:10168000853031F0883021F018ED180F1230D8F481
:10169000892F90E09093200780931F07709316077F
:1016A00060931507509318074093170730931A0754
:1016B00020931907B0931C07A0931B07F0931E07F4
:1016C000E0931D0762CF813129F4309328072093DE
:1016D00027075BCF833119F4D0932D0756CF8E3176
:1016E00099F4C0932E07A5E4B6E090E080E02D9138
:1016F000E0912F07F0913007E80FF91F2083019642
:1017000089309105A1F741CF843169F470933C078A
:1017100060933B0750933E0740933D07309340074B
:1017200020933F0732CF853169F47093420760936D
:101730004107509344074093430730934607209353
:10174000450723CF863169F47093480760934707B4
:1017500050934A074093490730934C0720934B0717
:1017600014CF813F09F011CF8091EA06882341F020
:1017700064E173E08091E8069091E9060E94580ABE
:1017800080914106873009F000CF8091EA068823D6
:1017900041F06FEF72E08091E8069091E9060E94B7
:1017A000580A8091440680933107EFCECF93C4E668
:1017B0008091E5069091E606DC01ED91FC910084B4
:1017C000F185E02D099518161906BCF061E070E06E
:1017D00080E090E00E945F04C15051F78091EA06DA
:1017E000882349F063EF72E08091E8069091E90662
:1017F0000E94580A80E0CF91089581E0FCCF8F923B
:101800009F92BF92CF92DF92EF92FF920F931F931E
:10181000CF93DF9300D0CDB7DEB78091E5069091EE
:10182000E606892B09F067C18091F3060E944A03FE
:10183000019709F46BC04091ED065091EE0660915E
:10184000EF067091F006CE0101960E940D09898184
:101850009A810E94880860E08091F1060E947303DB
:1018600080E00E948108082F80E00E948108182FE4
:1018700080E00E948108F82E80E00E948108009399
:10188000360610933706F092380680933906C80161
:101890009F770097E9F58091EA068823B9F16BEE0E
:1018A00072E08091E8069091E9060E94F00106E35B
:1018B00016E05AE3E52E56E0F52E69EE72E08091CF
:1018C000E8069091E9060E94F001D8018D918D0102
:1018D000803140F467EE72E08091E8069091E9066D
:1018E0000E94F00140E150E0F80131976081809161
:1018F000E8069091E9060E94E309E016F106E9F690
:101900008091E8069091E9060E94310AF12C22C0EC
:101910008C0104501109F12CE12CE016F10678F449
:101920008FEF0E948108B0E8EB16F10420F4F70174
:10193000EA5CF94F8483EFEFEE1AFE0AEECF61E026
:101940008091F1060E947303F090EA06F11011C035
:10195000FF24F3948F2D0F900F90DF91CF911F9163
:101960000F91FF90EF90DF90CF90BF909F908F905E
:10197000089500913606109137066FED72E0809160
:10198000E8069091E9060E94F00146E3C42E46E085
:10199000D42E6DED72E08091E8069091E9060E94E8
:1019A000F001D6018D916D01803140F46BED72E054
:1019B0008091E8069091E9060E94F00140E150E034
:1019C000F601319760818091E8069091E9060E94C6
:1019D000E309BAE3CB16B6E0DB06D9F63CEFB32E4B
:1019E000B00EE8E2EB1510F428E2B22E64ED72E0DE
:1019F0008091E8069091E9060E94F0019AE3C92ED1
:101A000096E0D92EE12C8091E8069091E906BE146B
:101A100001F162ED72E00E94F0014601D6018C9165
:101A2000803140F460ED72E08091E8069091E90623
:101A30000E94F001BFEFCB1ADB0A40E150E0F40155
:101A400060818091E8069091E9060E94E309E394A1
:101A5000DACF17FF05C06BEB72E00E94580A1F77C0
:101A600062EB72E08091E8069091E9060E94F00135
:101A7000A80170E060E02AE08091E8069091E90614
:101A80000E94970968EA72E08091E8069091E90661
:101A90000E94F001609138068091E8069091E90675
:101AA00061110BC060EA72E00E94F0018091E806CB
:101AB0009091E9060E94310A4DCF613019F465E931
:101AC00072E0F2CF623019F46DE872E0EDCF63306E
:101AD00019F46FE772E0E8CF643019F463E772E05D
:101AE000E3CF653019F467E672E0DECF4AE050E0FC
:101AF0000E94E309DBCF64E08091E7060E94F704CF
:101B000010922906809328060E94D60B882309F498
:101B1000FDCE8091E5069091E606DC01ED91FC9109
:101B20000284F385E02D0995F82E8091E5069091C9
:101B3000E606DC01ED91FC910284F385E02D099528
:101B4000E82E8091E5069091E606DC01ED91FC918E
:101B50000284F385E02D0995182F8091E506909178
:101B6000E606DC01ED91FC910284F385E02D0995F8
:101B7000F0923606E09237061093380680933906C5
:101B800000E01E2D0F291F770115110509F4BECEA7
:101B900004501109D12CC12C0115110509F4D8CE1E
:101BA00078010D31110518F08CE1E82EF12C64E07C
:101BB0006E0D8091E7060E94F7041092290680932B
:101BC00028060E94D60B882309F4C2CE8091E50630
:101BD0009091E606DC01ED91FC910284F385E02D05
:101BE00009958091E5069091E606DC01ED91FC9166
:101BF0000284F385E02D09958091E5069091E60633
:101C0000DC01ED91FC910284F385E02D0995809132
:101C1000E5069091E606DC01ED91FC910284F385E6
:101C2000E02D0995B12CBE141F04C0F48091E50687
:101C30009091E606DC01ED91FC910284F385E02DA4
:101C40000995B0E8CB16D10438F4F601EA5CF94FF7
:101C50008483F60131966F01B394E5CF0E191F0905
:101C60009BCFCF938091F3068F3F49F40E94FF0BE7
:101C7000C82F811109C0C0E08C2FCF9108950E9418
:101C80004A03019799F7F7CF80913806833039F4EA
:101C900080913A068B3F79F70E946A0AEDCF823035
:101CA000A1F580913A06813FC9F480913C068730C6
:101CB00019F780913F068093310780914006809309
:101CC00032078091410680933307809142068093CA
:101CD00034078091430680933507CECF8C3F61F661
:101CE00080913B068093360780913F069091400695
:101CF000A0914106B0914206809337079093380730
:101D0000A0933907B0933A07B7CF853009F0B3CF26
:101D1000C3CFCF92DF92EF92FF920F931F93CF9397
:101D2000DF9300D0CDB7DEB7082FF62E14E0160FE4
:101D30008091E5069091E606009709F073C02DE7C3
:101D4000E22E8091F3060E944A03892B21F18091B3
:101D5000EA06882341F06EE572E08091E8069091F2
:101D6000E9060E94580A61E070E080E090E00E947D
:101D70005F04EA94E110E5CF9091EA06992309F413
:101D800045C06EE472E08091E8069091E9060E94F9
:101D9000580A90E03BC04091ED065091EE066091EC
:101DA000EF067091F006CE0101960E940D0989811F
:101DB0009A810E94880860E08091F1060E94730376
:101DC000812F0E94810880E00E948108802F0E945C
:101DD0008108A02FB0E0A654B94F8C9191E0980FE4
:101DE0009C930E9481089AE3C92E96E0D92E10E0B8
:101DF000D6018D916D010E9481081F5FF112F8CF0D
:101E000061E08091F1060E94730391E0892F0F90A9
:101E10000F90DF91CF911F910F91FF90EF90DF9086
:101E2000CF9008952091E70631E030933805209354
:101E300037051092270610922606612F70E00E9447
:101E4000D80870E060E08091E5069091E6060E9477
:101E5000D8088091E5069091E606DC01ED91FC91B1
:101E60000190F081E02D602F09958091E506909119
:101E7000E606DC01ED91FC910190F081E02DA02FB0
:101E8000B0E0A654B94F6C9121E0260F2C93099530
:101E90008AE3C82E86E0D82E10E08091E506909166
:101EA000E606F60161916F01DC01ED91FC91019074
:101EB000F081E02D09951F5FF112EFCF8091E506CB
:101EC0009091E6060E944C0691E0882309F49ECF8B
:101ED00060CF0F931F93CF93DF93D62FC72F0E940E
:101EE0002C0A0D2F1C2FC0E0F80161918F014AE0F0
:101EF00050E085E895E00E94E309C33029F06EE2E6
:101F000085E895E00E94E901CF5FC43069F785E874
:101F100095E0DF91CF911F910F910C94310A85EDDF
:101F20008093BC008091810590918205A0918305EA
:101F3000B09184050796A11DB11D23E0B695A79524
:101F4000979587952A95D1F72091BC0024FD03C071
:101F500010927F050895409181055091820560910E
:101F6000830570918405452B462B472B69F3009719
:101F7000A105B10541F02AE22A95F1F700C00197C9
:101F8000A109B109E1CF809180050C94D604DC0150
:101F900096E0FB0101900D929A95E1F70895CF9399
:101FA000DF93EB0144E050E0BC0182E594E00E9445
:101FB0001828892B49F46CE474E0CE010E94C70F05
:101FC00081E0DF91CF91089580E0FBCFBC0186E3F3
:101FD00094E00E94C70F67EF73E08CE394E00C94E9
:101FE000C70FDC0194E0FB0101900D929A95E1F797
:101FF00008950F931F93CF938C018CE691E00E947C
:10200000E60FE6E3F4E088E08487C6E0C58748E0B1
:1020100050E06DE571E084E494E00E94D822E6E5AA
:10202000F4E0DF011D92CA95E9F767EF73E08CE4F5
:1020300094E00E94C70FB8018CE594E00E94F10F74
:1020400063E375E082E594E00E94F10F8AE290E09C
:10205000CF911F910F910C941D08BF92CF92DF92E8
:10206000EF92FF920F931F93CF93DF936C01F62EA5
:10207000E42EB52EE901C9010E94B801882309F4B4
:1020800084C08AE294E00E94E60FBE0184E594E0F9
:102090000E94F10F63E375E080E594E00E94F10F88
:1020A0008881807F803E91F088819981AA81BB815F
:1020B0008F3F9F4FAF4FBF4F49F044E050E0BE010C
:1020C0008DEF93E00E941828892B31F46CE671E0C3
:1020D00086E394E00E94C70F88E080934204109248
:1020E000430449E050E064E571E084E494E00E9438
:1020F000D8221092460481E180934D0410935A0433
:1021000000935B04B0925804E092590410925C046E
:1021100010925E0410925F04CF2DD0E0AE01B601A4
:1021200080E694E00E9425288CE18F0D809347047F
:1021300010924E0410924F0480E480934A0410924F
:102140004B0480934C0420E044E150E06EE088E1D1
:102150000E94330710925C0488E08F0D80935D0429
:10216000AE01405F5F4F21E06AE188E20E943307E1
:10217000CE018A96DF91CF911F910F91FF90EF9042
:10218000DF90CF90BF900C941D0880E394E07BCF4C
:10219000FF920F931F93CF93DF93EC01F62E0881EC
:1021A0001981C8010E94E122F81621F06F2DC801A3
:1021B0000E94E922CE01DF91CF911F910F91FF90F4
:1021C0000895EF92FF920F931F93CF93DF9300D068
:1021D000CDB7DEB78CE5E82E81E0F82E0AE010E0FE
:1021E0001A830983F70161917F01CE0101960E9454
:1021F000C8100F5F1F4F0831110591F78CE591E072
:102200000F900F90DF91CF911F910F91FF90EF9062
:102210000895EF92FF920F931F93CF93DF9300D017
:10222000CDB7DEB78FE4E82E81E0F82E08E210E0AB
:102230001A830983F70161917F01CE0101960E9403
:10224000C8100F5F1F4F0533110591F78FE491E020
:102250000F900F90DF91CF911F910F91FF90EF9012
:1022600008950F931F93CF93DF9300D0CDB7DEB7C0
:102270008CE390E09A8389830CE411E0F80160819B
:10228000CE0101960E94C8108DE390E09A83898365
:10229000F8016181CE0101960E94C8108EE390E0A2
:1022A0009A838983F8016281CE0101960E94C81049
:1022B000C8010F900F90DF91CF911F910F9108955A
:1022C0004F925F926F927F928F929F92AF92BF9246
:1022D000CF92DF92EF92FF920F931F93CF93DF93F2
:1022E000CDB7DEB76D970FB6F894DEBF0FBECDBF8A
:1022F000F9018081803809F013C18181813809F0AA
:102300000FC182818F3709F00BC179016B01838185
:102310008E3F09F0FBC2C580D68090912A05B78018
:10232000B0922A0581E09B1101C080E080932B05CB
:10233000F70160857185072E000C880B990B0E94B0
:10234000A0242AE037ED43E25CE30E94B8256093C5
:1023500018057093190580931A0590931B05B0FE1C
:1023600019C0B601DD0C880B990B0E94A0242DEC3E
:102370003CEC4CEC5DE30E94B8252DEC3CEC4CECC5
:102380005DE30E94F12387FD05C080914601813005
:1023900009F0DDC086E68093470120E030E048EC9C
:1023A00052E460911C0570911D0580911E0590916D
:1023B0001F050E94B8250E94682460932201709333
:1023C00023018091E903882309F4C4C081E080934C
:1023D000380580E68093370510922706109226066E
:1023E00062E070E08AE296E00E94D8088AE296E015
:1023F0000E944C0662E080E60E94F70410922906D3
:10240000809328068230F0F38AE296E00E94D60597
:10241000809325018AE296E00E94D60580932401EC
:1024200081E08093380580E6809337051092270677
:10243000109226066CE170E08AE296E00E94D808CD
:102440008AE296E00E944C0662E080E60E94F70471
:1024500010922906809328068230F0F38AE296E0F3
:102460000E94D605809327018AE296E00E94D60555
:102470008093260180912405809328018091710327
:1024800080932901EFE1F1E090E080E022E03191DA
:10249000830F911D2F5F2D30D1F780932A010FE01C
:1024A00017E223E331E046E054E16EE08DE191E094
:1024B0000E942D1080915701811104C08091580114
:1024C000882371F18091680391E0980F90936803DD
:1024D000833030F1609125057091260580912705A4
:1024E000909128050E946F2460931401E1E1F1E0CE
:1024F00090E080E022E03191830F911D2F5F2D301D
:10250000D1F780931C010FE017E223E331E046E0AE
:1025100054E16EE08FE091E00E942D10109268036C
:102520006D960FB6F894DEBF0FBECDBFDF91CF9191
:102530001F910F91FF90EF90DF90CF90BF90AF90E1
:102540009F908F907F906F905F904F900895109222
:10255000470123CF8091E703882309F4CAC10E9471
:10256000310E882309F486CFF0904D076F2D8091AE
:102570001B0790911C070E945B092B013C016F2DEA
:1025800080911507909116070E945B094B015C0131
:102590006F2D80911707909118070E945B096A8B35
:1025A0007B8B8C8B9D8B6F2D8091190790911A07D7
:1025B0000E945B096E877F87888B998BA3019201AC
:1025C000C301B2010E94B8256B017C01A5019401F1
:1025D000C501B4010E94B8259B01AC01C701B60139
:1025E0000E94F8226B017C012A893B894C895D8914
:1025F000CA01B9010E94B8259B01AC01C701B6010F
:102600000E94F8226B017C012E853F8548895989FB
:10261000CA01B9010E94B8259B01AC01C701B601EE
:102620000E94F8220E947B266B017C01AC019B0179
:10263000C301B2010E94F6236E8B7F8B888F998F26
:10264000A7019601C501B4010E94F6234B015C016C
:10265000A70196016A897B898C899D890E94F6234E
:102660002B013C01A70196016E857F858889998998
:102670000E94F6236E877F87888B998BA301920136
:10268000C301B2010E94B8256A8B7B8B8C8B9D8B1A
:102690002E853F8548895989CA01B9010E94B8250C
:1026A0002A893B894C895D890E94F8229B01AC01F3
:1026B0000E94F8229B01AC0160E070E080E89FE39B
:1026C0000E94F7226A8F7B8F8C8F9D8F2E853F858E
:1026D000488959896E897F89888D998D0E94B8258E
:1026E0006B017C01A3019201C501B4010E94B825D0
:1026F0009B01AC01C701B6010E94F8229B01AC010D
:102700000E94F8222A8D3B8D4C8D5D8D0E94922374
:1027100021EE3EE245E652E40E94B8256B017C01C1
:10272000DC01CB01B05880936D0390936E03A093AE
:102730006F03B093700320E030E0A901C701B60138
:102740000E94AB251816D4F420E030E044E353E4B3
:10275000C701B6010E94F123181684F0A701960163
:1027600060E070E084EB93E40E94F72260936D03D5
:1027700070936E0380936F039093700380915B015D
:10278000882309F47BC0A30192016E897F89888D1B
:10279000998D0E94B8256B017C012E853F85488963
:1027A0005989C501B4010E94B8259B01AC01C7013C
:1027B000B6010E94F7229B01AC010E94F8226B0136
:1027C0007C0120E030E040E85FE30E94AB25181672
:1027D0000CF446C020E030E040E85FEBC701B601F2
:1027E0000E94F12387FD43C0C701B6010E94642304
:1027F00021EE3EE245E652E40E94B825609369036B
:1028000070936A0380936B0390936C0320E030E035
:1028100040E251E460916D0370916E0380916F030B
:10282000909170030E94B8250E9468247B0120E0EB
:1028300030E040E251E46091690370916A03809155
:102840006B0390916C030E94B8250E946824E0926B
:102850002401F092250160932601709327010ACE8E
:10286000C12CD12C90E8E92E9FE3F92EBDCFC12CCD
:10287000D12C80E8E82E8FEBF82EB6CFA50194017D
:10288000C501B4010E94B8252A893B894C895D891C
:102890000E94F8229B01AC010E94F8229B01AC012E
:1028A00060E070E080E89FE30E94F7226B017C010A
:1028B000A50194016E897F89888D998D0E94B82524
:1028C0004B015C012E853F8548895989C301B201BE
:1028D0000E94B8259B01AC01C501B4010E94F822F9
:1028E0009B01AC010E94F822A70196010E9492234D
:1028F0007FCF8FE08093240187E28093250188EBCE
:102900008093260182E280932701B4CD883C61F553
:1029100020E030E048EC52E460911C0570911D0508
:1029200080911E0590911F050E94B8250E94682481
:102930006093090170930A0190912005809121050F
:1029400090930B0180930C018091240580930D01DD
:102950000FE017E223E331E046E054E16BE084E06E
:1029600091E00E942D10DCCD8C3F09F060C0F90190
:10297000858180935C01868180936101608560938D
:10298000600170E090E080E00E949E242AE939E92D
:1029900049E95FE30E94B8250E946F2460935D01BE
:1029A000F701618570E090E080E00E949E246093D2
:1029B0006201709363018093640190936501F70154
:1029C0008285938590935F0180935E01648570E0BA
:1029D00090E080E00E949E242AE037ED43E25CE331
:1029E0000E94B82560936601709367018093680127
:1029F000909369010E94E1106091610180915D01F5
:102A0000681B770B072E000C880B990B0E94A024E3
:102A100020E030E040E450E40E94F6236093EE03AF
:102A20007093EF038093F0039093F10379CD8B3F84
:102A300009F06DC0F901858180FF45C091E0909358
:102A40004F0181FF43C091E09093500182FF41C04C
:102A500091E09093510183FF3FC091E09093520128
:102A600084FF3DC091E09093530185FF3BC091E00E
:102A70009093540186FF39C091E09093550187FFF0
:102A800037C081E080935601F70186818093590118
:102A9000808580FF30C091E090935A0181FF2EC065
:102AA00091E09093570182FF2CC091E090935801E0
:102AB00083FF2AC081E080935B010E940911F0E04E
:102AC000E0E009952DCD10924F01BBCF109250013F
:102AD000BDCF10925101BFCF10925201C1CF1092C1
:102AE0005301C3CF10925401C5CF10925501C7CFE7
:102AF00010925601C9CF10925A01D0CF10925701AF
:102B0000D2CF10925801D4CF10925B01D6CF893C1E
:102B100009F047C0F9018481853009F001CD858134
:102B2000893C09F0FDCC8681893C09F0F9CC87818C
:102B300080934C01808580934D01818580934E0167
:102B40008CE991E00E942C0A4AE050E0F70167818D
:102B500085E895E00E94E30983EB91E00E942C0A4E
:102B60004AE050E0F701608585E895E00E94E309BE
:102B700083EB91E00E942C0A4AE050E0F701618566
:102B800085E895E00E94E30985E895E00E94310A16
:102B900064E670E080E090E00E945F040E943111E2
:102BA0008ECF8A3C09F0BCCCF9018481833009F0D6
:102BB000B7CC85818A3C09F0B3CC86818A3C09F088
:102BC000AFCC80E8898381E88A838EE78B839BEC96
:102BD0009C8397E09D83898787E18D8780914C0155
:102BE0008E8380914D018F8380914E018887FB01F8
:102BF00080818A8781818B8782818C87FE013396D1
:102C00009E01235F3F4F90E080E04191840F911D32
:102C10002E173F07D1F78D8787EB91E00E942C0A92
:102C20004AE050E0F601608185E895E00E94E30902
:102C300083EB91E00E942C0A4AE050E0F6016181AA
:102C400085E895E00E94E30983EB91E00E942C0A5D
:102C50004AE050E0F601628185E895E00E94E309D0
:102C600083EB91E00E942C0A4AE050E0F601638178
:102C700085E895E00E94E3090FE017E220E031E0EB
:102C800046E054E16DE0CE0101960E942D1086ECE5
:102C900091E00E942C0A4AE050E0F601608185E84C
:102CA00095E00E94E30983EB91E00E942C0A4AE040
:102CB00050E0F601618185E895E00E94E30983EB2D
:102CC00091E00E942C0A4AE050E0F601628185E81A
:102CD00095E00E94E30983EB91E00E942C0A4AE010
:102CE00050E0F601638185E895E00E94E30985E8FC
:102CF00095E00E94310A85ED91E00E942C0AC09077
:102D00002505D0902605E0902705F0902805A7011D
:102D10009601C701B6010E94BF2665EE71E08111E0
:102D20001BC046015701E894B7F82FEF3FEF4FE77C
:102D30005FE7C501B4010E94BF2681114AC02FEF91
:102D40003FEF4FE75FE7C501B4010E94F12318167A
:102D50000CF03FC069EE71E085E895E00E948809BB
:102D600085E895E00E94310A81EF91E00E942C0AEB
:102D7000C0902005D09021050D2C000CEE08FF0816
:102D80002AE0B701A601F7FE0DC06DE285E895E0E7
:102D90000E94E90144275527BA014C195D096E09C3
:102DA0007F092AE085E895E00E94970985E895E08B
:102DB0000E94310A80E092E00E942C0A6AE070E0F2
:102DC000809124050E94460A8EE092E00E94350A16
:102DD000A7CB2FEF3FEF4FE75FE4C701B6010E949B
:102DE000AB2518161CF46DEE71E0B6CF2FEF3FEF58
:102DF0004FE75FECC701B6010E94F12387FDF3CFD7
:102E000020E030E0A901C701B6010E94F12387FF4D
:102E100009C06DE285E895E00E94E901F7FAF094B7
:102E2000F7F8F0942AE037ED43EA5BE3C701B60117
:102E30000E94F8224B015C010E946F246B017C010F
:102E40000E949E249B01AC01C501B4010E94F7229F
:102E50004B015C012AE0B701A60185E895E00E94DC
:102E600097096EE285E895E00E94E90120E030E0F4
:102E700040E251E4C501B4010E94B8254B015C0158
:102E80000E946F246B01F12CE12C2AE0B701A6010E
:102E900085E895E00E949709C701B6010E949E242B
:102EA0009B01AC01C501B4010E94F72220E030E093
:102EB00040E251E40E94B8250E946F24AB0170E00B
:102EC00060E02AE085E895E00E94970949CF1F92CB
:102ED0000F920FB60F9211242F933F934F935F934E
:102EE0006F937F938F939F93AF93BF93EF93FF93D2
:102EF00085E895E00E949202FF91EF91BF91AF911A
:102F00009F918F917F916F915F914F913F912F9101
:102F10000F900FBE0F901F9018951F920F920FB633
:102F20000F9211242F938F939F93EF93FF93E09130
:102F30009505F09196058081E0919B05F0919C05A7
:102F400082FD1BC0908180919E058F5F8F732091C1
:102F50009F05821741F0E0919E05F0E0EB57FA4F94
:102F6000958F80939E05FF91EF919F918F912F9167
:102F70000F900FBE0F901F9018958081F4CF1F9275
:102F80000F920FB60F9211242F933F938F939F931D
:102F9000AF93BF938091EA039091EB03A091EC0370
:102FA000B091ED033091D80323E0230F2D3758F56E
:102FB0000196A11DB11D2093D8038093EA0390933D
:102FC000EB03A093EC03B093ED038091D9039091B0
:102FD000DA03A091DB03B091DC030196A11DB11DC2
:102FE0008093D9039093DA03A093DB03B093DC03BF
:102FF000BF91AF919F918F913F912F910F900FBEF5
:103000000F901F90189526E8230F0296A11DB11D61
:10301000D2CF1F920F920FB60F9211242F933F938E
:103020004F935F936F937F938F939F93AF93BF93D0
:10303000EF93FF938091B900887F803609F44AC0EE
:10304000F0F5883209F4A7C018F5803109F49BC067
:10305000B8F4882309F4F9C0883009F494C0FF91CA
:10306000EF91BF91AF919F918F917F916F915F9100
:103070004F913F912F910F900FBE0F901F90189579
:10308000883109F488C0803251F780935D0514C0FF
:10309000803409F49DC040F48033B9F38833F9F6E5
:1030A00080935D0585ECB0C0803509F485C0883516
:1030B00009F496C0883499F60E948F0FD0CF8839D2
:1030C00009F48CC038F5883729F050F4883611F0AF
:1030D000803729F683E080937F051092D70357C08D
:1030E000883809F47BC0803919F0803809F0B7CFEF
:1030F0008091D703803208F071C0E091D70381E05E
:103100008E0F8093D7038091BB00F0E0E954FC4F11
:1031100080833DC0803B39F0E0F4803A09F479C007
:10312000883A09F09CCF84E080937F051092B60323
:103130001092B503E0912206F09123060995809143
:10314000B50381110FC081E08093B5031092950300
:1031500009C0803C09F4A6CF883C09F4A3CF883B82
:1031600009F07DCFE091B60381E08E0F8093B60326
:10317000F0E0EB56FC4F80818093BB009091B6034A
:103180008091B50329C080915A058093BB0085ECDE
:103190008093BC0064CF90915C0580915B0598178B
:1031A00058F5E0915C0581E08E0F80935C05F0E0BE
:1031B000E75CFA4F8081E9CFE0915C0581E08E0FFA
:1031C00080935C058091BB00F0E0E75CFA4F808360
:1031D00090915C0580915B059817C8F285E8D8CF7F
:1031E000E0915C0581E08E0F80935C058091BB00CF
:1031F000F0E0E75CFA4F808380915E0581115CCF3F
:1032000081E08093590584EA8093BC0010927F0589
:1032100026CF85EC8093BC0010927F058091D70368
:10322000803230F4E091D703F0E0E954FC4F108293
:103230006091D70370E0E0912406F091250687EBBA
:1032400093E009951092D7030ACF10925D0534CF11
:10325000E5E8F5E01382128288EE93E0A0E0B0E0AA
:1032600084839583A683B78326E731E03183208367
:1032700025EC30E03587248724EC30E0378726873B
:1032800020EC30E0318B208B21EC30E0338B228B33
:1032900022EC30E0358B248B26EC30E0378B268B0C
:1032A000118E128E138E148EEAE2F6E013821282D1
:1032B00084839583A683B78388E891E09183808394
:1032C000E1E6F7E08AE991E091838083128213823C
:1032D0001482158210922906109228061092270651
:1032E000109226060E94B80486EB91E09093230684
:1032F0008093220687EB91E0909325068093240625
:10330000EBE5F7E088E4808380E094E092838183BA
:103310001482138280E88583EAEBF6E086E0DF0121
:103320001D928A95E9F71092C0061092EA068EE087
:1033300090E090934E0780934D078CE090E090933F
:10334000500780934F0788E090E090935207809356
:103350005107909354078093530789E090E090932E
:1033600056078093550784E090E090935807809328
:1033700057078AE090E090935A0780935907089581
:10338000CF93DF9300D000D000D0CDB7DEB77894D4
:1033900084B5826084BD84B5816084BD85B582605A
:1033A00085BD85B5816085BD80916E00816080930B
:1033B0006E00109281008091810082608093810074
:1033C0008091810081608093810080918000816084
:1033D000809380008091B10084608093B1008091DF
:1033E000B00081608093B00080917A008460809307
:1033F0007A0080917A00826080937A0080917A00CE
:10340000816080937A0080917A00806880937A004E
:103410001092C10062E087E00E94A10362E086E0B2
:103420000E94A10362E088E00E94A10361E084E0C1
:103430000E94A10380915301882321F061E089E07B
:103440000E94A103109229061092280610922706C6
:10345000109226060E94B80486EB91E09093230612
:103460008093220687EB91E09093250680932406B3
:10347000E0919505F091960582E08083E0919105B9
:10348000F09192051082E0919305F091940583E309
:10349000808310929D05E0919905F0919A0586E050
:1034A0008083E0919705F091980580818061808309
:1034B000E0919705F0919805808188608083E09184
:1034C0009705F0919805808180688083E091970549
:1034D000F091980580818F7D808311E010933805ED
:1034E00080E6809337058AE296E00E944C068111BF
:1034F000F3C18AE192E00E94350A84E292E00E94E0
:103500002C0A20E140E650E060E070E085E895E0BC
:103510000E94970985E895E00E94310A87E392E0CE
:103520000E94350A1093E9038091E90381116FC16C
:103530000AE611E09CE6892E91E0992EFF24F3948F
:103540002CE0222E3DEF332E4FE5E42ED8018D9155
:103550008D018093E8038CE692E00E942C0A60E1E2
:1035600070E08091E8030E94460A8091E803F0929F
:1035700038058093370510922706109226068AE2B6
:1035800096E00E944C068111BBC18AE192E00E9444
:10359000350A86E892E00E942C0A60E170E0809192
:1035A000E8030E94460A89E992E00E94350A809168
:1035B000E8038093E7068AE296E09093E60680931C
:1035C000E506BFEFB093F306F0923A0661E081E0C2
:1035D0000E94890E62E370E080E090E00E945F0448
:1035E0000E94FF0B8111FCCF62E370E080E090E06D
:1035F0000E945F040E94FF0B8111FCCFE9EFE09372
:103600003A0610923B0662E082E00E94890E0E9418
:10361000FF0B882309F46BC180913A06883F09F0BB
:1036200066C18091EA06882309F470C064E172E003
:103630008091E8069091E9060E94F00140E150E097
:1036400060913C068091E8069091E9060E94E309AA
:103650006EEF71E08091E8069091E9060E94F0011A
:1036600040E150E060913D068091E8069091E906C6
:103670000E94E30940903E0650903F06609040064D
:10368000709041066AEE71E08091E8069091E9063B
:103690000E94F00120E1B301A2018091E80690911F
:1036A000E9060E94970940904206509043066090B8
:1036B00044067090450665ED71E08091E8069091B2
:1036C000E9060E94F00120E1B301A2018091E80621
:1036D0009091E9060E949709A0904606B09047068F
:1036E0006FEB71E08091E8069091E9060E94F0018D
:1036F0006090E8067090E906A50170E060E020E1C6
:10370000C3010E949709C3010E94310A2092B800A8
:1037100030923A06F8E0F0933B0610923C06109285
:103720003D0610923E0620E920933F06E0924006B7
:10373000F0924106109242061092430610924406FF
:1037400010924506109246061092470610924806BF
:103750001092490610924A0661E182E00E94890EA9
:1037600088EEA82E83E0B82E31E0A31AB10809F440
:1037700093C60E94310E8823B9F380913A068C3F9C
:1037800099F76091370770913807809139079091C8
:103790003A0720913607283039F46039FFE57F0772
:1037A000F1E08F07910581F128EE33E040E050E031
:1037B0000E94F32749015A0186EA92E00E942C0AEE
:1037C00060E170E0809136070E94460A85EB92E046
:1037D0000E942C0A2AE0B501A401B7FE0DC06DE2DB
:1037E00085E895E00E94E90144275527BA01481968
:1037F00059096A097B092AE085E895E00E94970942
:1038000088EC92E00E94350A81E08093E70390E023
:1038100080E00E94E1228093E50381E090E00E9435
:10382000E1228093E6038091E5039091E6038837D7
:10383000934309F46CC01A82198268E7CE0101969D
:103840000E94C81081E090E09A83898363E3CE01EF
:1038500001960E94C8100E94E1100E9409110E9466
:1038600031116091610180915D01681B770B072E1A
:10387000000C880B990B0E94A02420E030E040E46B
:1038800050E40E94F6236093EE037093EF0380935D
:10389000F0039093F10387E390E0812C912C540185
:1038A0008394009709F468C0FC01A3E0F595E795BF
:1038B000AA95E1F7E252FC4F282F2770B501A40129
:1038C00004C0440F551F661F771F2A95D2F7208129
:1038D000242B20830197E5CF84E492E00E94350AEF
:1038E0008EE492E00E94350A1092E9031DCE8CEC22
:1038F00092E00E94350A8016910609F488CF26CE00
:1039000084E492E00E94350A86EF92E0F2CF0CE563
:10391000E02E01E0F02E0AE010E0C8010E94E12252
:10392000F70181937F010F5F1F4F08311105A9F740
:103930001FE4E12E11E0F12E08E210E0C8010E9420
:10394000E122D7018D937D010F5F1F4F05331105D4
:10395000A9F78CE390E00E94E12280934C018DE373
:1039600090E00E94E12280934D018EE390E00E945E
:10397000E12280934E0175CF6FE371E087EF93E012
:103980000E94C70F88EC90E09093F3038093F203BA
:103990000CB406FC25C061E08AE00E94A10361E04E
:1039A0008AE00E94730361E08BE00E94A10361E062
:1039B0008DE00E94A10360E08CE00E94A10361E021
:1039C0008BE00E94730360E08BE00E94730360E071
:1039D0008DE00E94730380E58CBD8DB581608DBD47
:1039E0008AE08093DD0361E00E94A1030E948607C4
:1039F0004FEF60E08FEF0E94BA0762E070E080E076
:103A000090E00E945F040E948D078DE10E94810773
:103A100080E00E9481071EB50E948607112399F35A
:103A200070E060E088E00E94F80770E060E08CE001
:103A30000E94F8076FEF7BE08AE00E94F80760E0E1
:103A40007CE084E00E94F8076FEF71E186E00E945D
:103A5000F80761EB88E30E94EB076FE370E388E20D
:103A60000E94F80769EF77EF80E30E94F8076DE0A6
:103A700080EC0E94EB0760E081EC0E94EB0742E3E0
:103A800062EC80E80E94BA0762E17CE086EC0E946A
:103A9000F80762E184EC0E94EB076CED75E08AECBC
:103AA0000E94F8076091F70384EE0E94EB07609193
:103AB000F80385EE0E94EB076091F90382EE0E9405
:103AC000EB076091FA0383EE0E94EB076091FB0322
:103AD00080EE0E94EB076091FC0381EE0E94EB07F1
:103AE00060E184ED0E94EB0760E071E086ED0E94EA
:103AF000F8078AEE0E94050880FDFBCF8FE10E9447
:103B0000CF0740EC6BE180E80E94BA0744E06FE128
:103B100080E80E94BA0782E70E940508863008F014
:103B20008F5F811106C069E272E085E895E00E942E
:103B3000580A20914C0120933B0190914D019093A4
:103B40003C0180914E0180933D0120933701909379
:103B5000380180933901209333019093340180938D
:103B6000350185E895E00E94310A6BE371E083E35B
:103B700095E00E94F10F10920F0510920E0581E062
:103B80008093100567E371E08AE095E00E94F10FF1
:103B90006FE271E086E095E00E94F10F6BE271E068
:103BA0008FE295E00E94F10FE3E3F5E02FE235E0CC
:103BB0004DEF53E09191D9018D919D018095892B15
:103BC000DA018D93AD01B5E0E733FB0799F763E3C5
:103BD00075E084E193E00E94690F6AE075E08BE193
:103BE00093E00E94690F63E371E082E293E00E9438
:103BF000690F80912904883098F405E0809FF001D6
:103C00001124EF5FFB4F20E631E13183208328EB65
:103C100032E23383228391E094838F5F809329047F
:103C200089E293E00E94350A80E880936007109251
:103C30005D0710925C0760E0262E60E0362EFF24C0
:103C4000F39472E0E72E2FB7F8948091EA039091F5
:103C5000EB03A091EC03B091ED032FBF409148011D
:103C60005091490160914A0170914B018C019D0175
:103C7000041B150B260B370BB901A801493151055F
:103C80006105710508F437C280934801909349019A
:103C9000A0934A01B0934B01F0922E058091470109
:103CA0008B3F08F09EC28F5F8093470187E00E94A0
:103CB0004A03182F80932D0580915401813009F01B
:103CC00094C286E00E944A03809346018091560187
:103CD000882361F09091590180912905891730F06E
:103CE000F0924601F092450110922C058091570107
:103CF000882309F44AC00E94D8013C012AE939E925
:103D000049E15FE3609125057091260580912705C3
:103D1000909128050E94B8254B015C01B301770CF6
:103D2000880B990B0E94A02420E030E040E85EE37D
:103D30000E94B8252DEC3CEC4CEC5EE30E94B825CB
:103D40009B01AC01C501B4010E94F8222B013C018A
:103D5000409225055092260560922705709228050D
:103D60006091590170E090E080E00E94A0249B01E6
:103D7000AC01C301B2010E94AB2587FD06C0F092E1
:103D80004601F092450110922C058091580188233C
:103D900009F461C00E94D801BC01990F880B990BEE
:103DA0000E94A0249B01AC0160E070E080E094E4FC
:103DB0000E94F7222B013C0120E030E0A9010E9483
:103DC000AB2518160CF042C220E030E040E05FE383
:103DD000C301B2010E94B8252B013C0123E333E368
:103DE00043E35FE3609125057091260580912705E7
:103DF000909128050E94B8254B015C012AE939E918
:103E000049E95EE3C301B2010E94B8259B01AC0100
:103E1000C501B4010E94F8222B013C014092250506
:103E200050922605609227057092280560915901ED
:103E300070E090E080E00E94A0249B01AC01C301EF
:103E4000B2010E94AB2587FD06C0F0924601F092B8
:103E5000450110922C0588E00E944A03982F990F83
:103E6000990F80914601880F892B182B10932405F8
:103E700080915201882309F4F1C120E030E43093AD
:103E80005F0720935E070E942C099093230580937F
:103E900022050E94DF0880912205909123059595C7
:103EA0008795909323058093220580599A4190939A
:103EB00021058093200560912205709123056559A5
:103EC0007A4180915E0190915F0140906201509033
:103ED0006301609064017090650120914F0122237D
:103EE00009F4C1C1681B790B709323056093220507
:103EF000072E000C880B990B0E94A024A3019201AD
:103F000050580E94F62360931C0570931D05809302
:103F10001E0590931F0540901C0550901D05609054
:103F20001E0570901F0520E030E0A901C301B20119
:103F30000E94F12387FF14C0A301920160916601E2
:103F40007091670180916801909169010E94B82584
:103F500060931C0570931D0580931E0590931F05AB
:103F60008091530190914701943608F09BC18823BA
:103F700009F488C18091500160E0811101C061E0C5
:103F800089E00E9473032091180530911905409132
:103F90001A0550911B0560911C0570911D058091BB
:103FA0001E0590911F050E94F7222B013C014092B3
:103FB00014055092150560921605709217056091D0
:103FC0005C0170E090E080E00E94A024A3019201D7
:103FD0000E94B8250E9468244B018B017093130541
:103FE0006093120520E030E0A901C301B2010E94F4
:103FF000AB25181624F077FA709477F8709420E0C7
:1040000030E040E450E4C301B2010E94F12360912A
:10401000610170E087FF1DC02091EE033091EF0336
:104020004091F0035091F103C301B2010E94B82501
:104030002B013C0160915D0170E090E080E00E9406
:10404000A0249B01AC01C301B2010E94F8220E948E
:10405000682417FF1AC18091600190E0881A990ABC
:10406000909213058092120580911205909113058C
:104070006817790724F470931305609312057195FE
:104080006195710980911205909113058617970724
:1040900024F47093130560931205809151018823D5
:1040A00059F0809112059091130591958195910990
:1040B000909313058093120580915A018823C9F0CB
:1040C00080911205909113058B3F910514F08AEFB2
:1040D00090E086303FEF930714F486E09FEF9595CC
:1040E00087959595879580589F4F9093130580935A
:1040F00012050E948B0861E070E080E090E00E9471
:104100005F048091F603882379F06091F403709145
:10411000F5036115710509F0DCC06FEF7BE08CE001
:104120000E94F8071092F60389E30E9405088111A6
:10413000D3C080911005857009F087C180910E056C
:1041400090910F05019690930F0580930E0586E0E0
:1041500095E00E94B801882371F0809105058111D6
:104160000AC080910405811106C086E095E00E9496
:10417000F90FF092040580E095E00E94B8018823D1
:1041800071F08091FF0481110AC08091FE048111B9
:1041900006C080E095E00E94F90FF092FE04809145
:1041A0002E05882391F088E00E944A039091110522
:1041B000891759F080931105882339F080912905DA
:1041C0008F5F8093290510922E052114310409F484
:1041D0003ACD0E947E02882309F435CD0E9400006A
:1041E00032CD16E61093470161CD809155018130A3
:1041F000C9F486E00E944A03811111C090912C05F8
:10420000913069F420914501213029F41092450143
:104210001092460104C0909345019093460180930B
:104220002C0554CD80912B05882309F44FCD809126
:104230002A05813009F033C180914601813009F0AF
:1042400045CD90912C05911141CDE2CFC301B20132
:10425000905820E030E040E05FE3BCCD10925F0773
:1042600010925E0710CE680F791F7093230560933C
:104270002205072E000C880B990B0E94A024A30195
:1042800092013FCE61E084E07CCE012B09F4ECCEBC
:104290008091600190E0880D991D909313058093A3
:1042A0001205E2CE882391F08091500161E08111E6
:1042B00001C060E089E00E94730310921305109220
:1042C00012050E948B081092290515CF60E084E04A
:1042D000F2CF6150710923CF6091F4037091F5031F
:1042E00080E00E94F807BE016F5F7F4F86E090E09C
:1042F0000E94930789819A819093F5038093F40338
:104300008D819E818C010078112787FF12C08B81DF
:104310009C8104970091F2031091F303015011095D
:104320008017910708F48C0166E374E0C8010E94CD
:104330009307F801EA5CFB4F1082F092F60340E429
:104340006EE180E80E94BA070115110509F4F1CE6B
:104350000932110508F423CF80914204883009F016
:104360001ECF80914304863009F0A9C044E050E09C
:1043700063E375E08CE594E00E941828892B09F02E
:104380000ECF80914B04813021F58CE394E00E94A4
:10439000E60F10924A04E0924B046CE474E086E568
:1043A00094E00E94C70F67EF73E08CE494E00E94F2
:1043B000C70F62E574E08CE594E00E94F10F63E3BF
:1043C00075E082E594E00E94F10F8AE290E00E949D
:1043D0001D088091100583FF0DC010914B04123011
:1043E00049F460E374E08AE095E00E94CF0F811108
:1043F0001093100580910505811110C0809104056E
:10440000882361F06AE274E086E095E00E94CF0FB5
:10441000882321F0F0920505109204058091FF0495
:104420008111BDCE8091FE04882309F4B8CE6AE2E2
:1044300074E080E095E00E94CF0F882309F4AFCEAE
:10444000F092FF041092FE04AACE80910E05909186
:104450000F05892B09F072CE61E184ED0E94EB0714
:1044600061E082ED0E94EB078AEE0E94050880FD64
:10447000FBCF60E082ED0E94EB0789ED0E9405080A
:1044800082FF5CCE8AE095E00E94F90F80911005D2
:1044900088608093100552CE81E593E02ACA81118D
:1044A00015CC80914601811111CC80912C05813071
:1044B00009F00CCC8093460110922C0507CC0932F0
:1044C000110509F46CCE81116ACE809144048534C3
:1044D00009F065CE44E050E063E375E084E594E0E4
:1044E0000E941828892BA9F044E050E06DEF73E09A
:1044F00084E594E00E941828892B59F044E050E0AC
:104500006CE671E084E594E00E941828892B09F09C
:1045100046CE80912904882309F441CE80914D0430
:10452000813109F03CCE31E0632E34E0732E512C02
:10453000412C809129048415150409F00CF42FCE28
:10454000D30112962C91129713969C9113978091F8
:104550005A04C92ED12C8C151D0419F580915B04C9
:1045600082131FC014962C9114972223D1F04091EE
:104570005D044850550B20915C04022F10E0102F71
:104580000027040F151F40915804509159045427D7
:1045900045275427ED91FC9120E634E060E574E076
:1045A0000995BFEF4B1A5B0AE5E06E0E711CC1CF97
:1045B000FB01DC0102C005900D9241505040D8F73C
:1045C0000895F999FECF92BD81BDF89A992780B5DB
:1045D0000895262FF999FECF1FBA92BD81BD20BD47
:1045E0000FB6F894FA9AF99A0FBE019608955058AA
:1045F000BB27AA270E940F230C9471250E946325D4
:1046000038F00E946A2520F039F49F3F19F426F40F
:104610000C9425250EF4E095E7FB0C941F25E92F5B
:104620000E94822558F3BA1762077307840795071B
:1046300020F079F4A6F50C94A4250EF4E0950B2E49
:10464000BA2FA02D0B01B90190010C01CA01A001E4
:104650001124FF27591B99F0593F50F4503E68F13F
:104660001A16F040A22F232F342F4427585FF3CF80
:10467000469537952795A795F0405395C9F77EF451
:104680001F16BA0B620B730B840BBAF09150A1F09A
:10469000FF0FBB1F661F771F881FC2F70EC0BA0F20
:1046A000621F731F841F48F4879577956795B795A8
:1046B000F7959E3F08F0B0CF9395880F08F09927A3
:1046C000EE0F9795879508959F939F77EEE389372F
:1046D0009E0728F4E8E6F0E00E944F250CC00E94F7
:1046E000DB249058A2EA2AED3FE049EC5FE30E9408
:1046F0000F230E9471250F9007FC905808950E9487
:10470000632560F080E891E009F49EEF0E946A253D
:1047100028F040E851E071F45EEF0CC00C942525C0
:104720000C94A425E92FE0780E94822540F3092EFD
:10473000052AB1F3261737074807590738F00E2E18
:1047400007F8E02569F0E025E0640AC0EF6307F8A8
:10475000009407FADB01B9019D01DC01CA01AD013A
:10476000EF930E940D240E9471250E94C2235F9145
:10477000552339F02BED3FE049E450FD49EC0C9412
:10478000F8220895DF93DD27B92FBF7740E85FE374
:104790001616170648075B0718F4D92F0E94B02594
:1047A0009F938F937F936F930E94BB26ECE7F0E07B
:1047B0000E9428250E9471252F913F914F915F9172
:1047C0000E94CB25DD2351F09058A2EA2AED3FE06C
:1047D00049EC5FE3D0785D270E940F23DF910C94B2
:1047E00071250E94FB2408F481E008950E940A24A8
:1047F0000C9471250E946A2558F00E94632540F0B0
:1048000029F45F3F29F00C941F2551110C94A52524
:104810000C9425250E94822568F39923B1F3552332
:1048200091F3951B550BBB27AA27621773078407C3
:1048300038F09F5F5F4F220F331F441FAA1FA9F359
:1048400035D00E2E3AF0E0E832D091505040E69547
:10485000001CCAF72BD0FE2F29D0660F771F881FA8
:10486000BB1F261737074807AB07B0E809F0BB0B9B
:10487000802DBF01FF2793585F4F3AF09E3F5105AF
:1048800078F00C941F250C94A5255F3FE4F3983E27
:10489000D4F3869577956795B795F7959F5FC9F798
:1048A000880F911D9695879597F90895E1E0660F19
:1048B000771F881FBB1F621773078407BA0720F092
:1048C000621B730B840BBA0BEE1F88F7E0950895FB
:1048D0000E946F246894B1110C94A52508950E943C
:1048E0008A2588F09F5798F0B92F9927B751B0F0D3
:1048F000E1F0660F771F881F991F1AF0BA95C9F764
:1049000014C0B13091F00E94A425B1E008950C9438
:10491000A425672F782F8827B85F39F0B93FCCF3EB
:10492000869577956795B395D9F73EF490958095E0
:10493000709561957F4F8F4F9F4F0895E89409C000
:1049400097FB3EF490958095709561957F4F8F4FC2
:104950009F4F9923A9F0F92F96E9BB279395F695D8
:10496000879577956795B795F111F8CFFAF4BB0F56
:1049700011F460FF1BC06F5F7F4F8F4F9F4F16C0BA
:10498000882311F096E911C0772321F09EE8872F44
:10499000762F05C0662371F096E8862F70E060E000
:1049A0002AF09A95660F771F881FDAF7880F969579
:1049B000879597F90895DF93CF931F930F938B01FA
:1049C000EC01E9EAF0E00E9428250E947125980197
:1049D000AE018B01EC0160E070E080E89FE30E9493
:1049E000F7220E947B269801AE010F911F91CF9173
:1049F000DF910C94CB25990F0008550FAA0BE0E826
:104A0000FEEF16161706E807F907C0F01216130690
:104A1000E407F50798F0621B730B840B950B39F4D0
:104A20000A2661F0232B242B252B21F408950A2636
:104A300009F4A140A6958FEF811D811D089597F976
:104A40009F6780E870E060E008959FEF80EC089534
:104A5000DF93CF931F930F93FF92EF92DF927B012F
:104A60008C01689406C0DA2EEF010E94CB25FE016E
:104A7000E894A5912591359145915591A6F3EF01C3
:104A80000E940F23FE019701A801DA9469F7DF90D5
:104A9000EF90FF900F911F91CF91DF9108959F9319
:104AA0008F937F936F93FF93EF939B01AC010E94D1
:104AB000B825EF91FF910E9428252F913F914F91AA
:104AC0005F910C94B82500240A9416161706180650
:104AD0000906089500240A94121613061406050602
:104AE0000895092E0394000C11F4882352F0BB0F93
:104AF00040F4BF2B11F460FF04C06F5F7F4F8F4FF6
:104B00009F4F089557FD9058440F551F59F05F3F30
:104B100071F04795880F97FB991F61F09F3F79F0DF
:104B200087950895121613061406551FF2CF469561
:104B3000F1DF08C0161617061806991FF1CF8695E3
:104B40007105610508940895E894BB2766277727C7
:104B5000CB0197F908950E94FB2408F48FEF089584
:104B60009B01AC0160E070E080E89FE30C94F623C9
:104B70000E94CB250C9471250E94632538F00E9479
:104B80006A2520F0952311F00C941F250C942525FF
:104B900011240C94A5250E94822570F3959FC1F3E2
:104BA000950F50E0551F629FF001729FBB27F00DDB
:104BB000B11D639FAA27F00DB11DAA1F649F662730
:104BC000B00DA11D661F829F2227B00DA11D621F7F
:104BD000739FB00DA11D621F839FA00D611D221F39
:104BE000749F3327A00D611D231F849F600D211D1D
:104BF000822F762F6A2F11249F5750409AF0F1F0A0
:104C000088234AF0EE0FFF1FBB1F661F771F881F08
:104C100091505040A9F79E3F510580F00C941F25FC
:104C20000C94A5255F3FE4F3983ED4F386957795E1
:104C30006795B795F795E7959F5FC1F7FE2B880FAE
:104C4000911D9695879597F90895FA01EE0FFF1F2C
:104C5000309621053105A1F16115710561F48038A7
:104C6000BFE39B0749F168949038810561F0803873
:104C7000BFEF9B0741F099234AF5FF3FE10531055E
:104C8000210519F1E8940894E795D901AA2329F49C
:104C9000AB2FBE2FF85FD0F310C0FF5F70F4A69566
:104CA000E0F7F73950F019F0FF3A38F49F779F9307
:104CB0000DD00F9007FC9058089546F00C942525D0
:104CC00060E070E080E89FE308954FE79F775F938F
:104CD0004F933F932F930E9455272F913F914F91D0
:104CE0005F910E94B8250C94CC2619F416F40C940C
:104CF00025250C94FE260E948A25B8F39923C9F332
:104D0000B6F39F57550B87FF0E940C270024A0E69F
:104D100040EA900180585695979528F4805C660F7C
:104D2000771F881F20F026173707480730F4621BCB
:104D3000730B840B202931294A2BA69517940794CD
:104D4000202531254A2758F7660F771F881F20F046
:104D500026173707480730F4620B730B840B200DBE
:104D6000311D411DA09581F7B901842F9158880FFD
:104D70009695879508959B01AC010C94B8250E94E7
:104D8000FB24880B990B089529F416F00C941F2529
:104D90000C94A4250C9425250E948A25A8F3963806
:104DA000A0F707F80F92E8942BE33AEA48EB5FE7A5
:104DB0000E94CE250F920F920F924DB75EB70F92C1
:104DC0000E949D27E1EDF0E00E9428254F915F9120
:104DD000EF91FF91E595EE1FFF1F49F0FE57E06848
:104DE0004427EE0F441FFA95E1F74195550B0E94B9
:104DF00017270F9007FE0C94B02508959F3F31F0C0
:104E0000915020F4879577956795B795880F911DF8
:104E10009695879597F9089591505040660F771FA2
:104E2000881FD2F708950C941F250C94FE260E942B
:104E30008A25D8F39923C9F3940F511DA3F39150F8
:104E4000504094F059F0882332F0660F771F881F86
:104E500091505040C1F79E3F51052CF7880F911D8E
:104E60009695879597F908955F3FACF0983E9CF032
:104E7000BB27869577956795B79508F4B1609395AC
:104E8000C1F7BB0F58F711F460FFE8CF6F5F7F4F9A
:104E90008F4F9F4FE3CF0C94A52516F00C94FE2660
:104EA0000C94252568940C941F250E948A25A8F34C
:104EB0009923C1F3AEF3DF93CF931F930F93FF9228
:104EC000C92FDD2788232AF02197660F771F881FB7
:104ED000DAF720E030E040E85FEB9FE3883920F02C
:104EE000803E38F021968F770E94F822E9EFF0E0BB
:104EF00004C00E94F822E6E2F1E00E9428258B011E
:104F0000BE01EC01FB2E6F5771097595771F880B59
:104F1000990B0E94A02428E132E741E35FE30E945D
:104F2000CB25AF2D9801AE01FF900F911F91CF912E
:104F3000DF910E940F230C947125FA01DC01AA0F66
:104F4000BB1F9B01AC01BF5728F4222733274427FE
:104F5000507820C0B75190F4AB2F00244695379578
:104F60002795011CA395D2F3002071F0220F331F67
:104F7000441FB395DAF30ED00C94F722613071051B
:104F8000A0E88A07B94630F49B01AC016627772771
:104F900088279078309621F0208331834283538391
:104FA0000895A1E21A2EAA1BBB1BFD010DC0AA1F6A
:104FB000BB1FEE1FFF1FA217B307E407F50720F082
:104FC000A21BB30BE40BF50B661F771F881F991FFD
:104FD0001A9469F760957095809590959B01AC0146
:104FE000BD01CF010895052E97FB1EF400940E9489
:104FF0000A2857FD07D00E94D12707FC03D04EF4A2
:105000000C940A2850954095309521953F4F4F4F6D
:105010005F4F089590958095709561957F4F8F4F64
:105020009F4F0895EE0FFF1F0590F491E02D099416
:10503000FB01DC0104C08D910190801921F44150E5
:105040005040C8F7881B990B0895FB01DC0102C092
:1050500001900D9241505040D8F70895F894FFCF39
:10506000FFFFFFFF80817E7E05000000000047807B
:10507000817EFA0800000000000000000C80817EA4
:10508000FD0800000000000000000CFFFFFF00080A
:10509000080808000000FF000000010000007E007A
:1050A000005600007E01016619000000C0A805003E
:1050B000000001010000000000050000781E000053
:1050C00019A00000F0410000803F4A4BFFFFFFFFA6
:1050D000FFFF00000000B40214024102010372024B
:1050E00050026402000000001D06F0057D08C605A0
:1050F000E905D605C70500000000EA090D0A20539E
:1051000075626E6574204368616E67656420746FB4
:105110003A2000202E20000D0A41646170746572EF
:105120002049503A20000D0A204D6F64756C6520AF
:1051300049503A200043757272656E7453656E7300
:105140006F723A20006E616E00696E66006F76665F
:1051500000537465657220436F756E74733A200056
:1051600053776974636820427974653A2000202D72
:105170002D2D2D2D2D2D2D2D20004572726F72207D
:105180003D203000434D505331342041444452457A
:1051900053733A20307800434D50533134204F6BD5
:1051A0002E0D0A004572726F72203D203400434D6F
:1051B0005053206E6F7420436F6E6E656374656428
:1051C000206F7220466F756E640D0A000D0A4368E9
:1051D00065636B696E6720666F7220424E4F303890
:1051E00058206F6E2000424E4F30385820414444C2
:1051F000524553733A20307800424E4F3038582091
:105200004F6B2E0D0A005265706F72742049442056
:105210003A203078005265706F727420696E746540
:105220007276616C203A2000206D7300424E4F3040
:105230003830206E6F742064657465637465642013
:10524000617420676976656E204932432061646429
:10525000726573732E00424E4F303858206E6F7453
:1052600020436F6E6E6563746564206F7220466FB5
:10527000756E64005F49505F3A2000475761793A84
:1052800020004167494F3A20000D0A53657475703C
:1052900020636F6D706C6574652C2077616974692B
:1052A0006E6720666F722041674F70656E4750537E
:1052B00000424E4F30387820696E6974206661690B
:0852C0006C7321210D0A0000AE
:00000001FF
