:100000000C946E010C9496010C9496010C9496013C
:100010000C9496010C9496010C9496010C94960104
:100020000C9496010C9496010C9496010C949601F4
:100030000C9496010C9496010C9496010C949601E4
:100040000C949A100C9496010C9468100C94421025
:100050000C9496010C9496010C9496010C949601C4
:100060000C94E4100C949601084AD73B3BCE016EE9
:1000700084BCBFFDC12F3D6C74319ABD56833DDAFF
:100080003D00C77F11BED9E4BB4C3E916BAAAABE0E
:10009000000000803F07634236B79BD8A71A396833
:1000A0005618AEBAAB558C1D3CB7CC5763BD6DED41
:1000B000FD753EF6177231BF000000803F0800005A
:1000C00000BE922449123EABAAAA2ABECDCCCC4C8B
:1000D0003E00000080BEABAAAAAA3E00000000BFFE
:1000E000000000803F0000000000084178D3BB43BF
:1000F00087D1133D190E3CC3BD4282AD2B3E68EC47
:100100008276BED98FE1A93E4C80EFFFBE01C4FFCD
:100110007F3F00000000000045000082000040001A
:100120002000010800060400010000000024002750
:10013000002A0000000000250028002B000000001D
:10014000002300260029000404040404040404021B
:100150000202020202030303030303010204081064
:100160002040800102040810200102040810200031
:100170000000080002010000030407000000000066
:100180000000002053572056657273696F6E20502F
:10019000617463683A2030780020535720427569B3
:1001A0006C64204E756D6265723A20307800205381
:1001B000572050617274204E756D6265723A20301E
:1001C00078002053572056657273696F6E204D6911
:1001D0006E6F723A203078005357205665727369FB
:1001E0006F6E204D616A6F723A2030780046616907
:1001F0006C656420746F206163636573732045745C
:100200006865726E657420636F6E74726F6C6C6576
:1002100072004779726F2D766563746F7200576153
:100220006B652D7265706F72740053656E736F72BB
:100230002D7265706F727400436F6E74726F6C0014
:1002400045786563757461626C6500436F6D6D61BF
:100250006E6400204368616E6E656C3A00204C65E8
:100260006E6774683A00205B436F6E74696E7565E3
:1002700064207061636B65745D2000300020002095
:10028000426F64793A00300020004865616465720D
:100290003A00300020004865616465723A005350AE
:1002A0004920494E542074696D656F757400535030
:1002B000492057616974004932432074696D656F44
:1002C0007574004D452043616C207265706F7274C7
:1002D00020666F756E6421002100031211241FBE79
:1002E000CFEFD8E0DEBFCDBF12E0A0E0B1E0E6EC9A
:1002F000FEE302C005900D92A03AB107D9F726E0BF
:10030000A0EAB2E001C01D92A037B207E1F711E008
:10031000CEE6D1E004C02197FE010E944E1FCD36EB
:10032000D107C9F70E9479120C94611F0C94000048
:10033000CF93DF93209146042223C1F0FC0120815A
:100340002223A1F0C6E4D4E0A2E4B4E09C012C5F37
:100350003F4F899141919D918427892339F4E21778
:10036000F307B9F781E0DF91CF91089580E0FBCFEB
:1003700080914A0490914B04891B990B089508952C
:100380000895EF92FF920F931F93CF93DF938C0109
:100390007B01D0E0C0E0F701EC0FFD1F6491662304
:1003A00061F0D801ED91FC910190F081E02DC80140
:1003B0000995892B11F02196EECFCE01DF91CF91D7
:1003C0001F910F91FF90EF900895AF92BF92CF923F
:1003D000DF92EF92FF920F931F93CF93DF936C0105
:1003E0007B018B01040F151FEB015E01AE18BF08E6
:1003F000C017D10759F06991D601ED91FC91019098
:10040000F081E02DC6010995892B79F7C501DF91AF
:10041000CF911F910F91FF90EF90DF90CF90BF9001
:10042000AF900895FC01538D448D252F30E0842F2B
:1004300090E0821B930B541710F0CF96089501970C
:100440000895FC01918D828D981761F0A28DAE0FF9
:10045000BF2FB11D5D968C91928D9F5F9F73928F80
:1004600090E008958FEF9FEF0895FC01918D828DAC
:10047000981731F0828DE80FF11D858D90E0089579
:100480008FEF9FEF0895FC01918D228D892F90E0D1
:10049000805C9F4F821B91098F73992708958CE987
:1004A00094E00E94430221E0892B09F420E0822F8E
:1004B000089580E090E0892B29F00E944F0281117D
:1004C0000C9400000895FC01A48DA80FB92FB11D54
:1004D000A35ABF4F2C91848D90E001968F7399277A
:1004E000848FA689B7892C93A089B1898C91837058
:1004F00080648C93938D848D981306C00288F38951
:10050000E02D80818F7D80830895EF92FF920F937D
:100510001F93CF93DF93EC0181E0888F9B8D8C8DAF
:1005200098131AC0E889F989808185FF15C09FB7A3
:10053000F894EE89FF896083E889F9898081837066
:10054000806480839FBF81E090E0DF91CF911F9115
:100550000F91FF90EF900895F62E0B8D10E00F5F36
:100560001F4F0F731127E02E8C8D8E110CC00FB60C
:1005700007FCFACFE889F989808185FFF5CFCE01A4
:100580000E946302F1CFEB8DEC0FFD2FF11DE35ABA
:10059000FF4FF0829FB7F8940B8FEA89FB89808127
:1005A0008062CFCFCF93DF93EC01888D8823B9F0A1
:1005B000AA89BB89E889F9898C9185FD03C080816E
:1005C00086FD0DC00FB607FCF7CF8C9185FFF2CFEB
:1005D000808185FFEDCFCE010E946302E9CFDF91DC
:1005E000CF910895833081F028F4813099F08230E2
:1005F000A9F008958730A9F08830C9F08430B1F4AB
:10060000809180008F7D03C0809180008F778093E0
:100610008000089584B58F7784BD089584B58F7D5B
:10062000FBCF8091B0008F778093B00008958091C8
:10063000B0008F7DF9CFCF93DF93282F30E0F90101
:10064000E159FE4F8491F901E55AFE4FD491F90129
:10065000E95BFE4FC491CC23A1F081110E94F2020C
:10066000EC2FF0E0EE0FFF1FE35CFE4FA591B4917D
:10067000EC91ED2381E090E009F480E0DF91CF91EF
:10068000089580E090E0FACF1F93CF93DF93282F57
:1006900030E0F901E159FE4F8491F901E55AFE4F2E
:1006A000D491F901E95BFE4FC491CC23A9F0162F38
:1006B00081110E94F202EC2FF0E0EE0FFF1FED5CC3
:1006C000FE4FA591B4918FB7F894EC91111108C029
:1006D000D095DE23DC938FBFDF91CF911F910895DA
:1006E000DE2BF8CFCF93DF9390E0FC01E55AFE4F6D
:1006F0002491895B9E4FFC0184918823D1F090E086
:10070000880F991FFC01E75DFE4FA591B491FC0194
:10071000ED5CFE4FC591D49161110EC09FB7F89466
:100720008C91E22FE0958E238C932881E223E8833D
:100730009FBFDF91CF9108958FB7F894EC91E22B92
:10074000EC938FBFF6CF3FB7F8948091060390915A
:100750000703A0910803B091090326B5A89B05C023
:100760002F3F19F00196A11DB11D3FBFBA2FA92F30
:10077000982F8827BC01CD01620F711D811D911D2D
:1007800042E0660F771F881F991F4A95D1F7089599
:100790008F929F92AF92BF92CF92DF92EF92FF9291
:1007A0004B015C010E94A3036B017C010E94A30327
:1007B0006C197D098E099F09683E7340810591057A
:1007C000A8F321E0821A9108A108B10888EEC80EAA
:1007D00083E0D81EE11CF11C81149104A104B10432
:1007E00029F7FF90EF90DF90CF90BF90AF909F9050
:1007F0008F9008952091E202260F3327331F213274
:100800003105ECF420919604FC0190E080E0243066
:1008100069F082E00895A091E2022191AC014E536B
:100820005D4FA40FB52FB11D2C930196861798F339
:100830008091E202680F6093E20280E0089581E017
:1008400008951092960481E08093750410927004CC
:1008500061E082E10E94440361E083E10E9444037D
:10086000E9EBF0E080818E7F808380818D7F8083C3
:1008700088E48093B80085E48093BC000895CF930A
:10088000DF9391E09093C1028823B9F0C091B80042
:10089000D091BA008091BC008A7B8093BC0060E05C
:1008A00082E10E94440360E083E10E9444030E94CD
:1008B0002104D093BA00C093B800DF91CF9108957E
:1008C000CF92DF92EF92FF920F931F93CF93DF931C
:1008D000D82FC62F613208F098C00E94A3036B0185
:1008E0007C018091960481116BC081E08093960415
:1008F000809375049FEF90937404109273049C0F7F
:10090000909372048093710480917104DD0FD82B51
:10091000D093710480917004813009F078C01092F6
:1009200070040E94A3036B017C0180917104809389
:10093000BB008091980490919904A0919A04B09181
:100940009B04892B8A2B8B2BA1F00E94A30300917F
:1009500098041091990420919A0430919B046C1989
:100960007D098E099F09061717072807390708F41C
:1009700048C08091BC0083FDD8CF85EC8093BC003B
:100980000E94A3036B017C0180919604813009F4DD
:1009900040C0809173048C1710F4C0917304E0E59B
:1009A000F4E0A6E7B4E080E08C1355C08C2FDF9113
:1009B000CF911F910F91FF90EF90DF90CF9008950E
:1009C0008091980490919904A0919A04B0919B040D
:1009D000892B8A2B8B2B09F484CF0E94A3030091CF
:1009E00098041091990420919A0430919B046C19F9
:1009F0007D098E099F09061717072807390708F090
:100A000070CF809197040E943F04C0E0CFCF85EE65
:100A1000B5CF8091980490919904A0919A04B091D7
:100A20009B04892B8A2B8B2B09F4AECF0E94A30346
:100A3000009198041091990420919A0430919B049C
:100A40006C197D098E099F090617170728073907B2
:100A500008F09ACFD6CF91919D938F5FA5CF08953F
:100A6000E0914B0480914A04E81730F4F0E0EA5832
:100A7000FB4F808190E008958FEF9FEF0895909154
:100A80004B0480914A042FEF3FEF981748F4E92F69
:100A9000F0E0EA58FB4F208130E09F5F90934B04D9
:100AA000C9010895CF92DF92EF92FF920F931F93A7
:100AB000CF93DF937C01CB018A0120914F04222345
:100AC00089F0EB016B01C40ED51ECC15DD0569F074
:100AD0006991D701ED91FC910190F081E02DC70162
:100AE0000995F3CF642F0E94FA03C801DF91CF91DB
:100AF0001F910F91FF90EF90DF90CF900895CF93CB
:100B0000DF931F92CDB7DEB7698320914F04222374
:100B1000F9F020914C04203258F021E030E0FC0143
:100B20003383228390E080E00F90DF91CF9108958E
:100B300080914D04E82FF0E0EF55FD4F99819083AF
:100B40008F5F80934D0480934C0481E090E0ECCF64
:100B500061E0CE0101960E94FA03F7CFCF92DF92B7
:100B6000EF92FF920F931F93CF93DF93D0914C049A
:100B700081E0D13208F09CC0C0914E040E94A303D2
:100B80006B017C018091960481116CC082E080939E
:100B9000960481E0809375048FEF80937404109223
:100BA0007304D0937204A1EAB2E0E0E5F4E080E0DF
:100BB000D8138DC01092710480917104CC0FC82B92
:100BC000C093710480917004813009F084C0109248
:100BD00070040E94A3036B017C01809171048093D7
:100BE000BB008091980490919904A0919A04B091CF
:100BF0009B04892B8A2B8B2BA1F00E94A3030091CD
:100C000098041091990420919A0430919B046C19D6
:100C10007D098E099F09061717072807390708F469
:100C200042C08091BC0083FDD8CF85EC8093BC008E
:100C30000E94A3036B017C0180919604823009F429
:100C40004CC0809174048F3F09F469C08091740492
:100C5000803209F466C080917404803309F463C063
:100C600084E026C08091980490919904A0919A0400
:100C7000B0919B04892B8A2B8B2B09F483CF0E9484
:100C8000A303009198041091990420919A04309143
:100C90009B046C197D098E099F0906171707280701
:100CA000390708F06FCF809197040E943F0485E0D8
:100CB00010924D0410924C0410924F04DF91CF918A
:100CC0001F910F91FF90EF90DF90CF9008959D912D
:100CD00091938F5F6DCF85EEA9CF8091980490910D
:100CE0009904A0919A04B0919B04892B8A2B8B2B99
:100CF00009F4A2CF0E94A3030091980410919904D3
:100D000020919A0430919B046C197D098E099F09EA
:100D1000061717072807390708F08ECFC4CF80E0E1
:100D2000C7CF82E0C5CF83E0C3CF0F931F93CF938C
:100D3000DF9370E06F597C4F2130A9F48A01075F7F
:100D40001F4F30E020E0EB01FA01E230F10578F0CE
:100D5000A991B991BA27AB27BA270A0F1B1F211DEA
:100D6000311D3297F2CF00E010E09801ECCFFA018C
:100D7000EE7F6E0F7F1F4E175F0769F0FB0140810A
:100D800050E070E060E0762F652F542F4427040F69
:100D9000151F261F371FA901662777274115510503
:100DA0006105710519F022273327F1CF00951095C1
:100DB000E82FF0E0EF59FC4F10830183DF91CF91D2
:100DC0001F910F9108958EBD0DB407FEFDCF0895BC
:100DD00061E080910E030E94440378940895F89492
:100DE00060E080910E030C9444030F931F93CF9304
:100DF000DF93EC018B010E94EF062097B9F08AE3A4
:100E00000E94E3061EBCF801CE01019739F00DB433
:100E100007FEFDCF2EB51EBC2193F7CF2197C00F43
:100E2000D11F0DB407FEFDCF8EB58883DF91CF9122
:100E30001F910F910C94E8061F93CF93DF93182F07
:100E4000C62FD42F0E94EF068C2F8F71812B0E940A
:100E5000E3068D2F0E94E306DF91CF911F910C9442
:100E6000E806CF93C82FC0768091A0028C1799F026
:100E700043E06FE180EA0E941C07C093A0024C2F60
:100E800050E085E0559547958A95E1F76FE180E858
:100E9000CF910C941C07CF910895CF93DF93C82F67
:100EA000D62F0E9431074D2F6C2F80E4DF91CF9118
:100EB0000C941C07CF93DF93C82FD72F0E944D07A8
:100EC0006D2F81E08C0FDF91CF910C944D07CF9364
:100ED000C82F0E9431070E94EF068C2F8F710E944D
:100EE000E30680E00E94E306C7FF03C080E00E94A3
:100EF000E306CEB50E94E8068C2FCF910895CF93DC
:100F0000DF93EC0140E86FE180E80E941C0740E8B5
:100F10006FE180EA0E941C074AE06CE180EA0E94CF
:100F20001C0760E07CE082E00E945A07BE01745F0B
:100F300086E00E945A0740E060E08AE70E941C07B2
:100F40000E94EF062097B1F08AE70E94E3068091A5
:100F500061038EBDE2E6F3E0CF59DC4FEC17FD07ED
:100F600031F081910DB407FEFDCF8EBDF7CF0DB4EA
:100F700007FEFDCF0E94E80648E06FE180E80E948E
:100F80001C07D0E0C0E08CE10E9467078A7029F45A
:100F90002196C83E83E0D807B1F78CE10E9467072D
:100FA00081FD03C0C83ED34039F448E06FE180EAD8
:100FB000DF91CF910C941C07DF91CF9108950F938F
:100FC0001F93CF93DF938C01C1E6D3E04C96988BAF
:100FD0008CE1800F898B188E198E80E48C8B1D8A92
:100FE0008E8B20E044E150E06EE088E10E9495069F
:100FF000C80108969EA388E0800F8FA3A801405FD8
:101000005F4F21E06AE188E20E949506C8018A9656
:10101000DF91CF911F910F910C947F0790E080E0BA
:10102000089508958EBD00000DB407FEFDCF8EB566
:1010300008958CBD9DBD0895DC01ED91FC9101905A
:10104000F081E02D09940F931F93FC0100E012E161
:101050002AE730E090E0401751076207730740F439
:1010600036952795179507959F5F9630A1F797E0DE
:10107000292F286B269520839095917091831F913D
:101080000F910895CF92DF92EF92FF92CF93C62FE8
:10109000BC01990F880B990B0E94151C6B017C01F8
:1010A0006C2F70E0719561957109072E000C880B0B
:1010B000990B0E94151C9B01AC0160E070E080E080
:1010C00090E40E94661D9B01AC01C701B6010E941D
:1010D000F91CCF91FF90EF90DF90CF900895FF9291
:1010E0000F931F93CF93DF930BE311E0C4E0D0E0A5
:1010F000F801F1908F01CE010E94711AF81621F0CB
:101100006F2DCE010E94791A2196C730D10581F743
:101110008BE391E0DF91CF911F910F91FF900895A4
:10112000DC0196E0FB0101900D929A95E1F708959C
:10113000CF93DF93EB0144E050E0BC018DE793E0F7
:101140000E94541F892B49F467E773E0CE010E9487
:10115000900881E0DF91CF91089580E0FBCFBC0142
:1011600081E693E00E94900862E273E087E693E0F4
:101170000C949008DC0194E0FB0101900D929A958B
:10118000E1F70895FB0101900020E9F73197AF01E5
:10119000461B570BDC01ED91FC910280F381E02DA1
:1011A00009948F929F92AF92BF92EF92FF920F930A
:1011B0001F93CF93DF93CDB7DEB7A1970FB6F89407
:1011C000DEBF0FBECDBF7C01FA01CB0119A22230D8
:1011D00008F42AE08E010F5D1F4F822E912CB12C56
:1011E000A12CBF01A50194010E940D1FF901CA01A4
:1011F0006A300CF5605DD8016E938D01232B242B92
:10120000252B79F790E080E0109721F0BD01C70110
:101210000E94C208A1960FB6F894DEBF0FBECDBFE4
:10122000DF91CF911F910F91FF90EF90BF90AF9002
:101230009F908F900895695CDECF242F462F50E059
:1012400070E060E00C94D1088F929F92AF92BF92B1
:10125000CF92DF92EF92FF920F931F93CF93DF9382
:101260007C01EB016C0182E0C80ED11C4701E5E076
:101270008E0E911C10E000E0F60161916F014AE0D2
:1012800050E0CE010E941D095C01E881F9810190C6
:10129000F081E02D6EE2CE0109958A0D9B1D080FAD
:1012A000191FC814D90441F74AE050E0F7016581DD
:1012B000CE010E941D09800F911FDF91CF911F91D8
:1012C0000F91FF90EF90DF90CF90BF90AF909F90E5
:1012D0008F90089560E771E00C94C208CF93DF937C
:1012E000BC018CE994E00E94C208EC018CE994E016
:1012F0000E946A098C0F9D1FDF91CF910895CF93B3
:10130000DF9340E150E0682F8CE994E00E941D09D2
:10131000EC018CE994E00E946A098C0F9D1FDF911B
:10132000CF9108950F931F93CF93DF93EC010E9409
:10133000C1018C01CE010E946A09800F911FDF91CB
:10134000CF911F910F9108951F93CF93DF93E09159
:101350004505F091460540914D0560914B05709112
:101360004C0520914A0580914A0590914B05A0912A
:101370004C05B0914D058093380690933906A093A3
:101380003A06B0933B0690915005D091520580915A
:101390004E05309147053530B1F590914905322F12
:1013A000292F3093250620932406709327066093F7
:1013B0002606982F842F90932906809328068091E3
:1013C0004F059091500590932B0680932A068091AB
:1013D000510590915205909331068093300680918B
:1013E0005305909154059093330680933206809173
:1013F0005505909156059093350680933406DF91FC
:10140000CF911F910895FF773497C0915305937042
:1014100060915205709153054091540550915505C6
:101420002091560530915705EF30F105FCF0A09161
:101430005805B09159057197DCF0E0915A05F0918B
:101440005B058130C1F4892F90E090930B06809367
:101450000A067093050660930406509307064093AE
:1014600006063093090620930806C9CFB0E0A0E035
:10147000F0E0E0E0E6CF843099F4892F90E090939B
:1014800013068093120670930D0660930C0650931A
:101490000F0640930E063093110620931006AFCF2F
:1014A000823099F4892F90E090931B0680931A065E
:1014B0007093150660931406509317064093160612
:1014C00030931906209318069ACF833099F4892F08
:1014D00090E0909323068093220670931D066093FC
:1014E0001C0650931F0640931E063093210620933E
:1014F000200685CF853031F0883021F018ED180FA7
:101500001230D8F4892F90E090932F0680932E0606
:101510007093250660932406509327064093260671
:101520003093290620932806B0932B06A0932A0611
:10153000F0932D06E0932C0662CF813129F430938D
:101540003706209336065BCF833119F4D0933C06DF
:1015500056CF8E3199F4C0933D06A4E5B5E090E0F6
:1015600080E02D91E0913E06F0913F06E80FF91FD3
:101570002083019689309105A1F741CF843169F428
:1015800070934B0660934A0650934D0640934C0669
:1015900030934F0620934E0632CF853169F4709315
:1015A0005106609350065093530640935206309371
:1015B00055062093540623CF863169F4709357065D
:1015C00060935606509359064093580630935B0635
:1015D00020935A0614CF813F09F011CF8091F9056D
:1015E000882341F068ED72E08091F7059091F8054D
:1015F0000E94920980915005873009F000CF8091B8
:10160000F905882341F063EC72E08091F705909131
:10161000F8050E9492098091530580934006EFCE11
:10162000CF93C4E68091F4059091F505DC01ED912E
:10163000FC910084F185E02D099518161906BCF07F
:1016400061E070E080E090E00E94C803C15051F773
:101650008091F905882349F067EB72E08091F705E6
:101660009091F8050E94920980E0CF91089581E061
:10167000FCCFCF92DF92EF92FF920F931F93CF9305
:10168000DF9300D0CDB7DEB7082FF62E14E0160F8B
:101690008091F4059091F505009709F073C02DE74E
:1016A000E22E809102060E941B03892B21F180917A
:1016B000F905882341F06EEA72E08091F705909178
:1016C000F8050E94920961E070E080E090E00E94DD
:1016D000C803EA94E110E5CF9091F905992309F444
:1016E00045C06EE972E08091F7059091F8050E947F
:1016F000920990E03BC04091FC055091FD0560913E
:10170000FE057091FF05CE0101960E942308898194
:101710009A810E94190860E0809100060E944403AB
:10172000812F0E94120880E00E941208802F0E94E0
:101730001208A02FB0E0A753BA4F8C9191E0980FF8
:101740009C930E94120899E4C92E95E0D92E10E0CE
:10175000D6018D916D010E9412081F5FF112F8CF22
:1017600061E0809100060E94440391E0892F0F9070
:101770000F90DF91CF911F910F91FF90EF90DF902D
:10178000CF9008952091F60531E030934F042093D7
:101790004E0410924D0410924C04612F70E00E9490
:1017A0001C0870E060E08091F4059091F5050E94BE
:1017B0001C088091F4059091F505DC01ED91FC91F8
:1017C0000190F081E02D602F09958091F4059091B2
:1017D000F505DC01ED91FC910190F081E02DA02F49
:1017E000B0E0A753BA4F6C9121E0260F2C930995D6
:1017F00089E4C82E85E0D82E10E08091F405909100
:10180000F505F60161916F01DC01ED91FC9101900C
:10181000F081E02D09951F5FF112EFCF8091F40563
:101820009091F5050E94AE0591E0882309F49ECFC2
:1018300060CF8F929F92BF92CF92DF92EF92FF92F2
:101840000F931F93CF93DF9300D0CDB7DEB7809176
:10185000F4059091F505892B09F067C18091020686
:101860000E941B03019709F46BC04091FC05509145
:10187000FD056091FE057091FF05CE0101960E9465
:10188000230889819A810E94190860E080910006EE
:101890000E94440380E00E941208082F80E00E940A
:1018A0001208182F80E00E941208F82E80E00E9493
:1018B00012080093450510934605F0924705809362
:1018C0004805C8019F770097E9F58091F9058823BD
:1018D000B9F166E972E08091F7059091F8050E94F0
:1018E000C10105E415E059E4E52E55E0F52E64E963
:1018F00072E08091F7059091F8050E94C101D8012E
:101900008D918D01803140F462E972E08091F7059C
:101910009091F8050E94C10140E150E0F801319733
:1019200060818091F7059091F8050E941D09E016ED
:10193000F106E9F68091F7059091F8050E946A0991
:10194000F12C22C08C0104501109F12CE12CE0167D
:10195000F10678F48FEF0E941208B0E8EB16F1045C
:1019600020F4F701EB5BFA4F8483EFEFEE1AFE0AE7
:10197000EECF61E0809100060E944403F090F905EB
:10198000F11011C0FF24F3948F2D0F900F90DF9171
:10199000CF911F910F91FF90EF90DF90CF90BF906C
:1019A0009F908F90089500914505109146056AE833
:1019B00072E08091F7059091F8050E94C10145E41D
:1019C000C42E45E0D42E68E872E08091F70590912E
:1019D000F8050E94C101D6018D916D01803140F45E
:1019E00066E872E08091F7059091F8050E94C101C8
:1019F00040E150E0F601319760818091F7059091C8
:101A0000F8050E941D09B9E4CB16B5E0DB06D9F64E
:101A10003CEFB32EB00EE8E2EB1510F428E2B22E44
:101A20006FE772E08091F7059091F8050E94C1017F
:101A300099E4C92E95E0D92EE12C8091F70590917B
:101A4000F805BE1401F16DE772E00E94C101460184
:101A5000D6018C91803140F46BE772E08091F705FC
:101A60009091F8050E94C101BFEFCB1ADB0A40E15B
:101A700050E0F40160818091F7059091F8050E9493
:101A80001D09E394DACF17FF05C066E672E00E94F5
:101A900092091F776DE572E08091F7059091F80546
:101AA0000E94C101A80170E060E02AE08091F70582
:101AB0009091F8050E94D10863E572E08091F705E6
:101AC0009091F8050E94C101609147058091F7054A
:101AD0009091F80561110BC06BE472E00E94C101A6
:101AE0008091F7059091F8050E946A094DCF613009
:101AF00019F460E472E0F2CF623019F468E372E046
:101B0000EDCF633019F46AE272E0E8CF643019F483
:101B10006EE172E0E3CF653019F462E172E0DECF8E
:101B20004AE050E00E941D09DBCF64E08091F60599
:101B30000E94600410924B0480934A040E94100B90
:101B4000882309F4FDCE8091F4059091F505DC0120
:101B5000ED91FC910284F385E02D0995F82E80919A
:101B6000F4059091F505DC01ED91FC910284F3857B
:101B7000E02D0995E82E8091F4059091F505DC01A2
:101B8000ED91FC910284F385E02D0995182F809149
:101B9000F4059091F505DC01ED91FC910284F3854B
:101BA000E02D0995F0924505E09246051093470512
:101BB0008093480500E01E2D0F291F7701151105A0
:101BC00009F4BECE04501109D12CC12C0115110508
:101BD00009F4D8CE78010D31110518F08CE1E82E0A
:101BE000F12C64E06E0D8091F6050E946004109265
:101BF0004B0480934A040E94100B882309F4C2CE40
:101C00008091F4059091F505DC01ED91FC91028441
:101C1000F385E02D09958091F4059091F505DC019F
:101C2000ED91FC910284F385E02D09958091F405F6
:101C30009091F505DC01ED91FC910284F385E02D96
:101C400009958091F4059091F505DC01ED91FC91E9
:101C50000284F385E02D0995B12CBE141F04C0F455
:101C60008091F4059091F505DC01ED91FC910284E1
:101C7000F385E02D0995B0E8CB16D10438F4F601D0
:101C8000EB5BFA4F8483F60131966F01B394E5CF95
:101C90000E191F099BCFCF93809102068F3F49F405
:101CA0000E94190CC82F811109C0C0E08C2FCF9160
:101CB00008950E941B03019799F7F7CF809147057C
:101CC000833039F4809149058B3F79F70E94A4094C
:101CD000EDCF8230A1F580914905813FC9F4809113
:101CE0004B05873019F780914E058093400680910F
:101CF0004F05809341068091500580934206809164
:101D00005105809343068091520580934406CECFBF
:101D10008C3F61F680914A058093450680914E057F
:101D200090914F05A0915005B091510580934606C2
:101D300090934706A0934806B0934906B7CF8530E5
:101D400009F0B3CFC3CF0F931F93CF93DF93D62F59
:101D5000C72FBC018CE994E00E94C2080D2F1C2FF4
:101D6000C0E0F80161918F014AE050E08CE994E015
:101D70000E941D09C33029F06EE28CE994E00E94B4
:101D80008502CF5FC43069F78CE994E0DF91CF9191
:101D90001F910F910C946A0985ED8093BC0080918E
:101DA000980490919904A0919A04B0919B0407968D
:101DB000A11DB11D23E0B695A795979587952A9506
:101DC000D1F72091BC0024FD03C010929604089521
:101DD000409198045091990460919A0470919B04E9
:101DE000452B462B472B69F30097A105B10541F020
:101DF0002AE22A95F1F700C00197A109B109E1CFC4
:101E0000809197040C943F040F931F93CF938C0100
:101E100080E491E00E94AF08E1E6F3E088E0848787
:101E2000C6E0C58748E050E061E271E08FE693E0EC
:101E30000E94681AE1E8F3E0DF011D92CA95E9F714
:101E400062E273E087E793E00E949008B80187E8B8
:101E500093E00E94BA0866E474E08DE793E00E9484
:101E6000BA088AE290E0CF911F910F910C947F07FE
:101E7000EF92FF920F931F93CF93DF93182F092FA9
:101E8000EB01F42EE52ECB010E949801882309F482
:101E900052C085E593E00E94AF08BE018FE793E052
:101EA0000E94BA0866E474E08BE793E00E94BA08E7
:101EB0008881807F803E91F088819981AA81BB8151
:101EC0008F3F9F4FAF4FBF4F49F044E050E0BE01FE
:101ED00088E293E00E94541F892B31F460E471E0A2
:101EE00081E693E00E94900888E080936D03109251
:101EF0006E0349E050E068E171E08FE693E00E94F4
:101F0000681A1092710381E180937803E09285034F
:101F1000F092860300938303109384031092870347
:101F20001092890310928A03DF91CF911F910F9134
:101F3000FF90EF9008958BE593E0ADCFCF92DF92C5
:101F4000EF92FF920F931F93CF93DF93F901D0810C
:101F5000D03809F08EC0C181C13809F08AC08281B1
:101F60008F3709F086C0DB018381883CE9F44FE0BC
:101F700057E265E271E081E094E10E94380F8BE066
:101F8000E4E0F1E0ABE8B3E001900D928A95E1F76F
:101F90008BE090E0DF91CF911F910F91FF90EF9038
:101FA000DF90CF900C94DF078A3C09F041C0848118
:101FB000833009F05EC085818A3C09F05AC0868171
:101FC0008A3C09F056C0C0903B01D0903C01E090A3
:101FD0003D01FC9011960C91119712961C914FE0C7
:101FE00057E260E071E081E094E10E94380FD09305
:101FF0008B03C0938C0389E780938D039BEC9093B4
:102000008E0394E090938F03C0929003D09291033B
:10201000E092920380939303F092940300939503CC
:102020001093960387E1809397038DE090E0B2CF01
:10203000893CF9F484818530E1F48581893CC9F4D7
:102040008681893CB1F4878180933B0180858093B0
:102050003C01818580933D010E946F08F0E0E0E043
:10206000DF91CF911F910F91FF90EF90DF90CF9074
:102070000994DF91CF911F910F91FF90EF90DF9026
:10208000CF9008951F920F920FB60F9211242F93A5
:102090003F934F935F936F937F938F939F93AF93F0
:1020A000BF93EF93FF938CE994E00E946302FF914A
:1020B000EF91BF91AF919F918F917F916F915F91C0
:1020C0004F913F912F910F900FBE0F901F90189539
:1020D0001F920F920FB60F9211242F938F939F93FD
:1020E000EF93FF93E091AC04F091AD048081E09117
:1020F000B204F091B30482FD1BC090818091B504BD
:102100008F5F8F732091B604821741F0E091B50480
:10211000F0E0E456FB4F958F8093B504FF91EF916B
:102120009F918F912F910F900FBE0F901F90189538
:102130008081F4CF1F920F920FB60F9211242F932C
:102140003F938F939F93AF93BF9380911903909187
:102150001A03A0911B03B0911C033091050323E0E7
:10216000230F2D3758F50196A11DB11D20930503AE
:102170008093190390931A03A0931B03B0931C033D
:102180008091060390910703A0910803B091090381
:102190000196A11DB11D8093060390930703A093A0
:1021A0000803B0930903BF91AF919F918F913F9125
:1021B0002F910F900FBE0F901F90189526E8230FB8
:1021C0000296A11DB11DD2CF1F920F920FB60F9292
:1021D00011242F933F934F935F936F937F938F932C
:1021E0009F93AF93BF93EF93FF938091B900887F44
:1021F000803609F44AC0F0F5883209F4A7C018F512
:10220000803109F49BC0B8F4882309F4F9C0883000
:1022100009F494C0FF91EF91BF91AF919F918F917D
:102220007F916F915F914F913F912F910F900FBED2
:102230000F901F901895883109F488C0803251F7AB
:102240008093740414C0803409F49DC040F480333A
:10225000B9F38833F9F68093740485ECB0C0803507
:1022600009F485C0883509F496C0883499F60E942F
:10227000CC0ED0CF883909F48CC038F5883729F0D6
:1022800050F4883611F0803729F683E08093960465
:102290001092040357C0883809F47BC0803919F0C4
:1022A000803809F0B7CF80910403803208F071C004
:1022B000E091040381E08E0F809304038091BB00C2
:1022C000F0E0EC51FD4F80833DC0803B39F0E0F4FD
:1022D000803A09F479C0883A09F09CCF84E0809371
:1022E00096041092E3021092E202E0910C03F09146
:1022F0000D0309958091E20281110FC081E0809366
:10230000E2021092C20209C0803C09F4A6CF883CC8
:1023100009F4A3CF883B09F07DCFE091E30281E08F
:102320008E0F8093E302F0E0EE53FD4F80818093A7
:10233000BB009091E3028091E20229C08091710478
:102340008093BB0085EC8093BC0064CF90917304B4
:1023500080917204981758F5E091730481E08E0F14
:1023600080937304F0E0E05BFB4F8081E9CFE09164
:10237000730481E08E0F809373048091BB00F0E0C2
:10238000E05BFB4F808390917304809172049817F7
:10239000C8F285E8D8CFE091730481E08E0F809376
:1023A00073048091BB00F0E0E05BFB4F8083809181
:1023B000750481115CCF81E08093700484EA80937E
:1023C000BC001092960426CF85EC8093BC0010923E
:1023D000960480910403803230F4E0910403F0E02D
:1023E000EC51FD4F10826091040370E0E0910A030C
:1023F000F0910B0384EE92E00995109204030ACF4A
:102400001092740434CFECE9F4E01382128288EE67
:1024100093E0A0E0B0E084839583A683B7832AE4A9
:1024200031E03183208325EC30E03587248724ECAC
:1024300030E03787268720EC30E0318B208B21EC91
:1024400030E0338B228B22EC30E0358B248B26EC72
:1024500030E0378B268B118E128E138E148EE9E3AB
:10246000F5E01382128284839583A683B7838CE57B
:1024700091E091838083EAE6F6E08EE691E0918335
:1024800080831282138214821582E9ECF5E086E0E3
:10249000DF011D928A95E9F71092CF051092F90598
:1024A0008EE090E090935D0680935C068CE090E077
:1024B00090935F0680935E0688E090E090936106BB
:1024C00080936006909363068093620689E090E0B3
:1024D000909365068093640684E090E0909367068D
:1024E000809366068AE090E0909369068093680680
:1024F0000895CF93DF93CDB7DEB768970FB6F89402
:10250000DEBF0FBECDBF789484B5826084BD84B534
:10251000816084BD85B5826085BD85B5816085BDDE
:1025200080916E00816080936E0010928100809196
:10253000810082608093810080918100816080931E
:102540008100809180008160809380008091B10043
:1025500084608093B1008091B00081608093B0006E
:1025600080917A00846080937A0080917A00826002
:1025700080937A0080917A00816080937A008091C4
:102580007A00806880937A001092C10010924B0408
:1025900010924A0410924D0410924C040E9421049F
:1025A0008FEB91E090930D0380930C0380EC91E00E
:1025B00090930B0380930A03E091AC04F091AD0477
:1025C00082E08083E091A804F091A9041082E09158
:1025D000AA04F091AB0483E380831092B404E091E9
:1025E000B004F091B10486E08083E091AE04F091F4
:1025F000AF04808180618083E091AE04F091AF04EC
:10260000808188608083E091AE04F091AF04808186
:1026100080688083E091AE04F091AF0480818F7D6B
:10262000808390E080E00E94711A8093170381E01C
:1026300090E00E94711A8093180380911703909183
:1026400018038132944509F0DCC184E090E00E94D7
:10265000711A80933B0185E090E00E94711A80938B
:102660003C0186E090E00E94711A80933D0111E0E8
:1026700010934F0480E680934E0410924D04109204
:102680004C0489E395E00E94AE058111D3C183E734
:1026900091E00E946E096DE771E08CE994E00E9480
:1026A000C20820E140E650E060E070E08CE994E090
:1026B0000E94D1088CE994E00E946A0980E991E0C7
:1026C0000E946E091093410480914104811175C1EB
:1026D0000EE311E0E0E48E2EE1E09E2EFF24F39461
:1026E00022242A94F9EF3F2EACE0EA2EBDEF7B2E98
:1026F00088E0682E90E9592E2FE5422ED8018D9161
:102700008D018093160361EC71E08CE994E00E94E6
:10271000C208809116030E947F0980911603F092EF
:102720004F0480934E0410924D0410924C0489E3A0
:1027300095E00E94AE0581118FC183E791E00E9470
:102740006E096BED71E08CE994E00E94C208809103
:1027500016030E947F098EEE91E00E946E0980911F
:1027600016038093F60589E395E09093F505809331
:10277000F40520920206F092490561E081E00E9492
:10278000390B62E370E080E090E00E94C8030E9491
:10279000190C8111FCCF62E370E080E090E00E94B0
:1027A000C8030E94190C8111FCCF30924905109288
:1027B0004A0562E082E00E94390B0E94190C8823CE
:1027C00009F441C180914905883F09F03CC18091DD
:1027D000F905882309F470C068ED71E08091F70570
:1027E0009091F8050E94C10140E150E060914B05D5
:1027F0008091F7059091F8050E941D0962EC71E047
:102800008091F7059091F8050E94C10140E150E0E8
:1028100060914C058091F7059091F8050E941D0983
:10282000A0904D05B0904E05C0904F05D09050053A
:102830006EEA71E08091F7059091F8050E94C10160
:1028400020E1B601A5018091F7059091F8050E945D
:10285000D108A0905105B0905205C0905305D0907A
:10286000540569E971E08091F7059091F8050E949F
:10287000C10120E1B601A5018091F7059091F8050D
:102880000E94D108C0905505D090560563E871E0CC
:102890008091F7059091F8050E94C101A090F7057D
:1028A000B090F805A60170E060E020E1C5010E944B
:1028B000D108C5010E946A09E092B80070924905EA
:1028C00060924A0510924B0510924C0510924D05EE
:1028D00050924E0540924F05F092500510925105CE
:1028E00010925205109253051092540510925505FE
:1028F00010925605109257051092580510925905DE
:1029000061E182E00E94390B78EEC72E73E0D72E8A
:10291000B1E0CB1AD10809F45DC50E944B0E8823A3
:10292000B9F3809149058C3F99F760914606709103
:102930004706809148069091490620914506283027
:1029400039F460393FE5730731E08307910591F170
:1029500028EE33E040E050E00E942F1F69017A0129
:1029600069EF71E08CE994E00E94C208809145060D
:102970000E947F0968E072E08CE994E00E94C2083E
:102980002AE0B701A601F7FE0DC06DE28CE994E0E4
:102990000E94850244275527BA014C195D096E092A
:1029A0007F092AE08CE994E00E94D1088BE192E053
:1029B0000E946E0981E08093400480E98093B80012
:1029C00087E390E0C12CD12C7601C394009709F4E1
:1029D0004AC0FC0153E0F595E7955A95E1F7E15FB0
:1029E000FC4F282F2770B701A60104C0440F551FC4
:1029F000661F771F2A95D2F72081242B2083019709
:102A0000E5CF90E080E00E94711A813229F061E206
:102A100090E080E00E94791A81E090E00E94711AB3
:102A2000843529F064E581E090E00E94791A0E94E3
:102A30006F081DCE8BE991E00E946E0985EA91E056
:102A40000E946E0941CE8FE192E00E946E098016CD
:102A5000910609F053CEB1CF8BE991E00E946E0947
:102A600089E492E0F2CF6FE171E082E293E00E94AC
:102A7000900888EC90E090931E0380931D030CB4A3
:102A800006FC25C061E08AE00E94720361E08AE0F2
:102A90000E94440361E08BE00E94720361E08DE0DC
:102AA0000E94720360E08CE00E94720361E08BE0A0
:102AB0000E94440360E08BE00E94440360E08DE0EC
:102AC0000E94440380E58CBD8DB581608DBD8AE098
:102AD00080930E0361E00E9472030E94E8064FEFAC
:102AE00060E08FEF0E941C0762E070E080E090E001
:102AF0000E94C8030E94EF068DE10E94E30680E079
:102B00000E94E3061EB50E94E806112399F370E0C7
:102B100060E088E00E945A0770E060E08CE00E946C
:102B20005A076FEF7BE08AE00E945A0760E07CE082
:102B300084E00E945A076FEF71E186E00E945A0715
:102B400061EB88E30E944D076FE370E388E20E9427
:102B50005A0769EF77EF80E30E945A076DE080EC37
:102B60000E944D0760E081EC0E944D0742E362EC59
:102B700080E80E941C0762E17CE086EC0E945A0714
:102B800062E184EC0E944D076CED75E08AEC0E94D6
:102B90005A076091220384EE0E944D07609123033F
:102BA00085EE0E944D076091240382EE0E944D073E
:102BB0006091250383EE0E944D076091260380EE0D
:102BC0000E944D076091270381EE0E944D0760E14E
:102BD00084ED0E944D0760E071E086ED0E945A0787
:102BE0008AEE0E94670780FDFBCF8FE10E943107CC
:102BF00040EC6BE180E80E941C0744E06FE180E854
:102C00000E941C0782E70E946707863008F08F5FEA
:102C1000811106C06DEE71E08CE994E00E9492098A
:102C200020913B0120931B0190913C0190931C014A
:102C300080913D0180931D0120931701909318010D
:102C400080931901209325019093260180932701F9
:102C50006BE171E086E494E00E94BA0810923A04B5
:102C60001092390481E080933B0467E171E085E3D1
:102C700094E00E94BA0863E171E081E394E00E946D
:102C8000BA086FE071E082E494E00E94BA08E6E4DA
:102C9000F4E022E434E048E253E09191D9018D91CF
:102CA0009D018095892BDA018D93AD01B4E0EA3462
:102CB000FB0799F766E474E087E692E00E94A30EB2
:102CC00065E374E08EE692E00E94A30E65E271E097
:102CD00085E792E00E94A30E80915403883098F417
:102CE00005E0809FF0011124E45DFC4F2EE93FE0F8
:102CF0003183208328EB32E23383228391E0948373
:102D00008F5F809354038CE792E00E946E09332416
:102D1000339440E6242E2FB7F894809119039091B4
:102D20001A03A0911B03B0911C032FBF40913701E0
:102D3000509138016091390170913A018C019D01E7
:102D4000041B150B260B370BB901A801443651059E
:102D50006105710508F47FC08093370190933801B5
:102D6000A0933901B0933A0180914104882309F47A
:102D7000D3C030924F0420924E0410924D04109212
:102D80004C0462E070E089E395E00E941C0889E34E
:102D900095E00E94AE0562E080E60E946004109219
:102DA0004B0480934A048230F0F389E395E00E945B
:102DB0003F0580932F0189E395E00E943F058093B2
:102DC0002E0130924F0420924E0410924D04109226
:102DD0004C046CE170E089E395E00E941C0889E3F3
:102DE00095E00E94AE0562E080E60E9460041092C9
:102DF0004B0480934A048230F0F389E395E00E940B
:102E00003F058093310189E395E00E943F0580935F
:102E10003001EBE2F1E090E080E02191820F911D22
:102E200011E0E633F107C9F7809336014FE057E22E
:102E300065E271E081E094E10E94380F8EE0E9E202
:102E4000F1E0ABE8B3E001900D928A95E1F78EE0F6
:102E500090E00E94DF0761E070E080E090E00E9477
:102E6000C80380912103882379F060911F0370913A
:102E700020036115710509F0C9C16FEF7BE08CE09B
:102E80000E945A071092210389E30E94670781116B
:102E9000C0C180913B04857009F075C280913904EE
:102EA00090913A04019690933A048093390481E317
:102EB00094E00E949801882371F080913004811180
:102EC0000AC080912F04811106C081E394E00E9422
:102ED000040F30922F048BE294E00E949801882323
:102EE00071F080912A0481110AC080912904811116
:102EF00006C08BE294E00E94040F3092290420E087
:102F000030E0232B09F407CF0E944F02882309F4F5
:102F100002CF0E940000FFCE80914004882309F474
:102F200078CF0E944B0E882309F473CF10915C0672
:102F3000612F80912A0690912B060E9442082B0156
:102F40003C01612F80912406909125060E94420841
:102F50004B015C01612F80912606909127060E940B
:102F600042086B877C878D879E87612F809128061A
:102F7000909129060E9442086F83788789879A87F3
:102F8000A3019201C301B2010E94F91C6B017C01F3
:102F9000A5019401C501B4010E94F91C9B01AC017B
:102FA000C701B6010E94881A6B017C012B853C8504
:102FB0004D855E85CA01B9010E94F91C9B01AC01D7
:102FC000C701B6010E94881A6B017C012F813885E8
:102FD00049855A85CA01B9010E94F91C9B01AC01BF
:102FE000C701B6010E94881A0E94BC1D6B017C01BA
:102FF000AC019B01C301B2010E946B1B6F87788BF0
:10300000898B9A8BA7019601C501B4010E946B1BA5
:103010002B013C01A70196016B857C858D859E85E2
:103020000E946B1B4B015C01A70196016F817885A3
:1030300089859A850E946B1B6F83788789879A8719
:10304000A5019401C501B4010E94F91C6B877C871E
:103050008D879E872F81388549855A85CA01B90198
:103060000E94F91C2B853C854D855E850E94881A3F
:103070009B01AC010E94881A9B01AC0160E070E0EA
:1030800080E89FE30E94871A6D8B7E8B8F8B988FD1
:103090002F81388549855A856F85788989899A89EC
:1030A0000E94F91C6B017C01A5019401C301B201CE
:1030B0000E94F91C9B01AC01C701B6010E94881A4D
:1030C0009B01AC010E94881A2D893E894F89588D39
:1030D0000E94071B21EE3EE245E652E40E94F91CE5
:1030E0006B017C01DC01CB01B05880933C049093D0
:1030F0003D04A0933E04B0933F0420E030E0A901DA
:10310000C701B6010E94EC1C1816D4F420E030E090
:1031100044E353E4C701B6010E94661B181684F00D
:10312000A701960160E070E084EB93E40E94871AA7
:1031300060933C0470933D0480933E0490933F045D
:10314000A3019201C301B2010E94F91C2B853C85A9
:103150004D855E850E94881A9B01AC010E94881AE9
:103160009B01AC0160E070E080E89FE30E94871A59
:103170006B017C01A30192016F85788989899A8905
:103180000E94F91C2B013C012F81388549855A8505
:10319000C501B4010E94F91C9B01AC01C301B2013D
:1031A0000E94881A9B01AC010E94881AA70196010F
:1031B0000E94071B6B017C0120E030E040E251E4FB
:1031C00060913C0470913D0480913E0490913F04D5
:1031D0000E94F91C0E94DD1B8B0121EE3EE245E6B8
:1031E00052E4C701B6010E94F91C20E030E040E241
:1031F00051E40E94F91C0E94DD1B00932E011093E4
:103200002F01609330017093310103CE6150710939
:1032100036CE60911F037091200380E00E945A0710
:10322000BE016F5F7F4F86E090E00E94F5068981C6
:103230009A819093200380931F038D819E818C013E
:103240000078112787FF12C08B819C810497009121
:103250001D0310911E03015011098017910708F4F6
:103260008C0161E673E0C8010E94F506F801EF5990
:10327000FC4F10823092210340E46EE180E80E940E
:103280001C070115110509F404CE0932110508F4D3
:1032900036CE80916D03883009F031CE80916E0377
:1032A000863009F09AC044E050E066E474E087E8B4
:1032B00093E00E94541F892B09F021CE8091760360
:1032C000813029F587E693E00E94AF0810927503DC
:1032D00082E08093760367E773E081E893E00E94E1
:1032E000900862E273E087E793E00E9490086DE740
:1032F00073E087E893E00E94BA0866E474E08DE723
:1033000093E00E94BA088AE290E00E947F078091D1
:103310003B0483FF0DC010917603123049F46BE536
:1033200073E085E394E00E949808811110933B04B8
:1033300080913004811110C080912F04882361F0A6
:1033400065E573E081E394E00E949808882321F00A
:103350003092300410922F0480912A048111CFCD35
:1033600080912904882309F4CACD65E573E08BE2D6
:1033700094E00E949808882309F4C1CD30922A0471
:1033800010922904BCCD8091390490913A04892B84
:1033900009F084CD61E184ED0E944D0761E082ED8A
:1033A0000E944D078AEE0E94670780FDFBCF60E018
:1033B00082ED0E944D0789ED0E94670782FF6ECD66
:1033C00085E394E00E94040F80913B048860809321
:1033D0003B0464CD8BE892E038CB0932110509F447
:1033E0008ECD81118CCD80916F03853409F087CD0E
:1033F00044E050E066E474E08FE793E00E94541FDD
:10340000892BA9F044E050E068E273E08FE793E095
:103410000E94541F892B59F044E050E060E471E0B1
:103420008FE793E00E94541F892B09F068CD8091AB
:103430005403882309F463CD80917803813109F026
:103440005ECD3CE2E32E33E0F32ED12CC12C8091F3
:1034500054038C151D0409F00CF451CDD7011296BC
:103460002C91129713969C911397809185039B8BB7
:103470001C8AEB89FC898E171F0619F5809186033B
:1034800082131FC014962C9114972223D1F04091DF
:1034900088034850550B20918703022F10E0102F0E
:1034A0000027040F151F4091830350918403542774
:1034B00045275427ED91FC912BE833E06BE773E04F
:1034C0000995FFEFCF1ADF0A05E0E00EF11CBFCF30
:1034D000FB01DC0102C005900D9241505040D8F72D
:1034E0000895F999FECF92BD81BDF89A992780B5CC
:1034F0000895262FF999FECF1FBA92BD81BD20BD38
:103500000FB6F894FA9AF99A0FBE0196089550589A
:10351000BB27AA270E949F1A0C94B21C0E94A41CCD
:1035200038F00E94AB1C20F039F49F3F19F426F4C8
:103530000C947A1C0EF4E095E7FB0C94741CE92FB4
:103540000E94C31C58F3BA176207730784079507D4
:1035500020F079F4A6F50C94E51C0EF4E0950B2E02
:10356000BA2FA02D0B01B90190010C01CA01A001D5
:103570001124FF27591B99F0593F50F4503E68F130
:103580001A16F040A22F232F342F4427585FF3CF71
:10359000469537952795A795F0405395C9F77EF442
:1035A0001F16BA0B620B730B840BBAF09150A1F08B
:1035B000FF0FBB1F661F771F881FC2F70EC0BA0F11
:1035C000621F731F841F48F4879577956795B79599
:1035D000F7959E3F08F0B0CF9395880F08F0992794
:1035E000EE0F9795879508950E94A41C60F080E8DF
:1035F00091E009F49EEF0E94AB1C28F040E851E0F6
:1036000071F45EEF0CC00C947A1C0C94E51CE92F4D
:10361000E0780E94C31C40F3092E052AB1F3261757
:1036200037074807590738F00E2E07F8E02569F0EC
:10363000E025E0640AC0EF6307F8009407FADB01B5
:10364000B9019D01DC01CA01AD01EF930E94821B0B
:103650000E94B21C0E94371B5F91552339F02BED5D
:103660003FE049E450FD49EC0C94881A0895DF933B
:10367000DD27B92FBF7740E85FE316161706480726
:103680005B0718F4D92F0E94F11C9F938F937F93AF
:103690006F930E94FC1DE8E6F0E00E947D1C0E94F2
:1036A000B21C2F913F914F915F910E940C1DDD2321
:1036B00051F09058A2EA2AED3FE049EC5FE3D07860
:1036C0005D270E949F1ADF910C94B21C0E94501C2F
:1036D00008F481E008950E947F1B0C94B21C0E94A4
:1036E000AB1C58F00E94A41C40F029F45F3F29F065
:1036F0000C94741C51110C94E61C0C947A1C0E94BE
:10370000C31C68F39923B1F3552391F3951B550B13
:10371000BB27AA2762177307840738F09F5F5F4FA4
:10372000220F331F441FAA1FA9F335D00E2E3AF0E3
:10373000E0E832D091505040E695001CCAF72BD0FB
:10374000FE2F29D0660F771F881FBB1F261737074C
:103750004807AB07B0E809F0BB0B802DBF01FF277E
:1037600093585F4F3AF09E3F510578F00C94741CCB
:103770000C94E61C5F3FE4F3983ED4F3869577956E
:103780006795B795F7959F5FC9F7880F911D969537
:10379000879597F90895E1E0660F771F881FBB1F93
:1037A000621773078407BA0720F0621B730B840B40
:1037B000BA0BEE1F88F7E09508950E94E41B689409
:1037C000B1110C94E61C08950E94CB1C88F09F5701
:1037D00098F0B92F9927B751B0F0E1F0660F771F35
:1037E000881F991F1AF0BA95C9F714C0B13091F02B
:1037F0000E94E51CB1E008950C94E51C672F782F1A
:103800008827B85F39F0B93FCCF3869577956795EF
:10381000B395D9F73EF490958095709561957F4F5B
:103820008F4F9F4F0895E89409C097FB3EF4909501
:103830008095709561957F4F8F4F9F4F9923A9F089
:10384000F92F96E9BB279395F69587957795679518
:10385000B795F111F8CFFAF4BB0F11F460FF1BC05C
:103860006F5F7F4F8F4F9F4F16C0882311F096E9EF
:1038700011C0772321F09EE8872F762F05C066239D
:1038800071F096E8862F70E060E02AF09A95660F56
:10389000771F881FDAF7880F9695879597F908950F
:1038A000990F0008550FAA0BE0E8FEEF1616170651
:1038B000E807F907C0F012161306E407F50798F0B9
:1038C000621B730B840B950B39F40A2661F0232BD2
:1038D000242B252B21F408950A2609F4A140A6954E
:1038E0008FEF811D811D089597F99F6780E870E033
:1038F00060E008959FEF80EC0895DF93CF931F93CE
:103900000F93FF92EF92DF927B018C01689406C0C7
:10391000DA2EEF010E940C1DFE01E894A59125917D
:10392000359145915591A6F3EF010E949F1AFE0132
:103930009701A801DA9469F7DF90EF90FF900F915B
:103940001F91CF91DF91089500240A94161617064F
:1039500018060906089500240A9412161306140680
:1039600005060895092E0394000C11F4882352F0E3
:10397000BB0F40F4BF2B11F460FF04C06F5F7F4F9B
:103980008F4F9F4F089557FD9058440F551F59F082
:103990005F3F71F04795880F97FB991F61F09F3F3C
:1039A00079F087950895121613061406551FF2CF65
:1039B0004695F1DF08C0161617061806991FF1CFB5
:1039C00086957105610508940895E894BB276627DC
:1039D0007727CB0197F908950E94501C08F48FEFC8
:1039E00008959B01AC0160E070E080E89FE30C94D7
:1039F0006B1B0E940C1D0C94B21C0E94A41C38F07E
:103A00000E94AB1C20F0952311F00C94741C0C94B4
:103A10007A1C11240C94E61C0E94C31C70F3959F21
:103A2000C1F3950F50E0551F629FF001729FBB27B5
:103A3000F00DB11D639FAA27F00DB11DAA1F649F51
:103A40006627B00DA11D661F829F2227B00DA11D04
:103A5000621F739FB00DA11D621F839FA00D611D8A
:103A6000221F749F3327A00D611D231F849F600DAB
:103A7000211D822F762F6A2F11249F5750409AF0D4
:103A8000F1F088234AF0EE0FFF1FBB1F661F771F60
:103A9000881F91505040A9F79E3F510580F00C942B
:103AA000741C0C94E61C5F3FE4F3983ED4F38695B7
:103AB00077956795B795F795E7959F5FC1F7FE2BCB
:103AC000880F911D9695879597F90895FA01EE0F45
:103AD000FF1F309621053105A1F16115710561F4D3
:103AE0008038BFE39B0749F168949038810561F005
:103AF0008038BFEF9B0741F099234AF5FF3FE1056E
:103B00003105210519F1E8940894E795D901AA2314
:103B100029F4AB2FBE2FF85FD0F310C0FF5F70F415
:103B2000A695E0F7F73950F019F0FF3A38F49F778F
:103B30009F930DD00F9007FC9058089546F00C9479
:103B40007A1C60E070E080E89FE308954FE79F777C
:103B50005F934F933F932F930E94911E2F913F911C
:103B60004F915F910E94F91C0C94081E19F416F4F1
:103B70000C947A1C0C943A1E0E94CB1CB8F3992327
:103B8000C9F3B6F39F57550B87FF0E94481E0024C8
:103B9000A0E640EA900180585695979528F4805CFD
:103BA000660F771F881F20F026173707480730F465
:103BB000621B730B840B202931294A2BA69517947D
:103BC0000794202531254A2758F7660F771F881F4D
:103BD00020F026173707480730F4620B730B840B6D
:103BE000200D311D411DA09581F7B901842F9158F9
:103BF000880F9695879508959B01AC010C94F91C4C
:103C000029F416F00C94741C0C94E51C0C947A1C8A
:103C10000E94CB1CA8F39638A0F707F80F92E894FF
:103C20002BE33AEA48EB5FE70E940F1D0F920F92D9
:103C30000F924DB75EB70F920E94D91EE5E9F0E0F2
:103C40000E947D1C4F915F91EF91FF91E595EE1FD2
:103C5000FF1F49F0FE57E0684427EE0F441FFA9516
:103C6000E1F74195550B0E94531E0F9007FE0C94EF
:103C7000F11C08959F3F31F0915020F4879577957E
:103C80006795B795880F911D9695879597F9089533
:103C900091505040660F771F881FD2F708950C94FB
:103CA000741C0C943A1E0E94CB1CD8F39923C9F3C0
:103CB000940F511DA3F39150504094F059F0882374
:103CC00032F0660F771F881F91505040C1F79E3F1A
:103CD00051052CF7880F911D9695879597F90895B2
:103CE0005F3FACF0983E9CF0BB2786957795679533
:103CF000B79508F4B1609395C1F7BB0F58F711F46D
:103D000060FFE8CF6F5F7F4F8F4F9F4FE3CF0C94E3
:103D1000E61C16F00C943A1E0C947A1C68940C94D1
:103D2000741C0E94CB1CA8F39923C1F3AEF3DF935C
:103D3000CF931F930F93FF92C92FDD2788232AF07B
:103D40002197660F771F881FDAF720E030E040E800
:103D50005FEB9FE3883920F0803E38F021968F7723
:103D60000E94881AEDEBF0E004C00E94881AEAEE87
:103D7000F0E00E947D1C8B01BE01EC01FB2E6F5711
:103D800071097595771F880B990B0E94151C28E106
:103D900032E741E35FE30E940C1DAF2D9801AE01B5
:103DA000FF900F911F91CF91DF910E949F1A0C9469
:103DB000B21CFA01DC01AA0FBB1F9B01AC01BF576B
:103DC00028F4222733274427507820C0B75190F495
:103DD000AB2F0024469537952795011CA395D2F368
:103DE000002071F0220F331F441FB395DAF30ED079
:103DF0000C94871A61307105A0E88A07B94630F43F
:103E00009B01AC016627772788279078309621F0B0
:103E100020833183428353830895A1E21A2EAA1B83
:103E2000BB1BFD010DC0AA1FBB1FEE1FFF1FA2176A
:103E3000B307E407F50720F0A21BB30BE40BF50B67
:103E4000661F771F881F991F1A9469F760957095F0
:103E5000809590959B01AC01BD01CF010895052E81
:103E600097FB1EF400940E94461F57FD07D00E9446
:103E70000D1F07FC03D04EF40C94461F509540953F
:103E8000309521953F4F4F4F5F4F08959095809506
:103E9000709561957F4F8F4F9F4F0895EE0FFF1FD5
:103EA0000590F491E02D0994FB01DC0104C08D9193
:103EB0000190801921F441505040C8F7881B990B9C
:063EC0000895F894FFCF05
:103EC600FFFFFFFF8081797905000000000047FFB2
:103ED600FFFF000808080800000001000000790044
:103EE6000056000079000000FF808179D3080000A9
:103EF6000000000000000F64000000C0A8054A4B47
:103F0600FFFFFFFFFFFF000000008502E501120230
:103F1600D202430221023502000000007F0552054D
:103F26000E082F05B8013F053005000000002409E2
:103F36000D0A004572726F72203D203000434D50CD
:103F460053313420414444524553733A203078006B
:103F5600434D50533134204F6B2E004572726F72B1
:103F6600203D203400434D5053206E6F7420436F24
:103F76006E6E6563746564206F7220466F756E643D
:103F8600000D0A436865636B696E6720666F722071
:103F9600424E4F303858206F6E2000424E4F303818
:103FA6005820414444524553733A20307800424EDB
:103FB6004F303858204F6B2E005265706F72742048
:103FC6004944203A203078005265706F7274206937
:103FD6006E74657276616C203A2000206D73004223
:103FE6004E4F303830206E6F74206465746563748C
:103FF600656420617420676976656E2049324320C6
:10400600616464726573732E00424E4F30385820D7
:104016006E6F7420436F6E6E6563746564206F7295
:1040260020466F756E64005F49505F3A200047571F
:1040360061793A20004167494F3A2000536574750B
:104046007020636F6D706C65746500424E4F30383A
:104056007820696E6974206661696C73212100009D
:00000001FF
