:100000000C945D000C9485000C9485000C94850084
:100010000C9485000C9485000C9485000C9485004C
:100020000C9485000C9485000C9485000C9485003C
:100030000C9485000C9485000C9485000C9485002C
:100040000C94C0020C9485000C948E020C946802EF
:100050000C9485000C9485000C9485000C9485000C
:100060000C9485000C94850000000008000201003B
:100070000003040700000000000000000000000072
:10008000250028002B0000000000240027002A0083
:10009000040404040404040402020202020203032E
:1000A0000303030301020408102040800102040836
:1000B0001020010204081020B70611241FBECFEF44
:1000C000D8E0DEBFCDBF11E0A0E0B1E0EAEFFFE095
:1000D00002C005900D92A434B107D9F722E0A4E440
:1000E000B1E001C01D92A831B207E1F710E0CDE503
:1000F000D0E004C02197FE010E94F507CC35D1075E
:10010000C9F70E940A030C94FB070C94000090E0CE
:10011000FC01EC55FF4F249180579F4FFC018491C7
:10012000882399F090E0880F991FFC01EA57FF4F50
:10013000A591B491FC01E458FF4F859194918FB73C
:10014000F894EC91E22BEC938FBF0895AF92BF929D
:10015000CF92DF92EF92FF920F931F93CF93DF9393
:100160006C017B018B01040F151FEB015E01AE18C2
:10017000BF08C017D10759F06991D601ED91FC91E4
:100180000190F081E02DC6010995892B79F7C50111
:10019000DF91CF911F910F91FF90EF90DF90CF9063
:1001A000BF90AF900895FC01538D448D252F30E012
:1001B000842F90E0821B930B541710F0CF96089574
:1001C00001970895FC01918D828D981761F0A28DA1
:1001D000AE0FBF2FB11D5D968C91928D9F5F9F7367
:1001E000928F90E008958FEF9FEF0895FC01918D1D
:1001F000828D981731F0828DE80FF11D858D90E08A
:1002000008958FEF9FEF0895FC01918D228D892F26
:1002100090E0805C9F4F821B91098F73992708950E
:1002200089E791E00E94040121E0892B09F420E094
:10023000822F089580E090E0892B29F00E94100120
:1002400081110C9400000895FC01A48DA80FB92F12
:10025000B11DA35ABF4F2C91848D90E001968F73EE
:100260009927848FA689B7892C93A089B1898C910D
:10027000837080648C93938D848D981306C002885C
:10028000F389E02D80818F7D80830895EF92FF9226
:100290000F931F93CF93DF93EC0181E0888F9B8DA9
:1002A0008C8D98131AC0E889F989808185FF15C063
:1002B0009FB7F894EE89FF896083E889F989808186
:1002C0008370806480839FBF81E090E0DF91CF9155
:1002D0001F910F91FF90EF900895F62E0B8D10E077
:1002E0000F5F1F4F0F731127E02E8C8D8E110CC0E6
:1002F0000FB607FCFACFE889F989808185FFF5CF31
:10030000CE010E942401F1CFEB8DEC0FFD2FF11DEA
:10031000E35AFF4FF0829FB7F8940B8FEA89FB896D
:1003200080818062CFCFCF93DF93EC01888D8823CB
:10033000B9F0AA89BB89E889F9898C9185FD03C048
:10034000808186FD0DC00FB607FCF7CF8C9185FF2D
:10035000F2CF808185FFEDCFCE010E942401E9CF4D
:10036000DF91CF91089590E0FC01E859FF4F24916F
:10037000FC01EC55FF4F3491FC01E057FF4FE49135
:10038000EE23C9F0222339F0233001F1A8F4213003
:1003900019F1223029F1F0E0EE0FFF1FE458FF4F72
:1003A000A591B4918FB7F894EC91611126C0309566
:1003B0003E233C938FBF08952730A9F02830C9F021
:1003C000243049F7809180008F7D03C080918000A8
:1003D0008F7780938000DFCF84B58F7784BDDBCFAC
:1003E00084B58F7DFBCF8091B0008F778093B00074
:1003F000D2CF8091B0008F7DF9CF3E2BDACFFF9224
:100400000F931F93CF93DF93EC01F62E0881198190
:10041000C8010E94E406F81621F06F2DC8010E9461
:10042000EC06CE01DF91CF911F910F91FF900895BF
:10043000EF92FF920F931F93CF93DF9300D0CDB72E
:10044000DEB78AE2E82E81E0F82E06E010E01A839B
:100450000983F70161917F01CE0101960E94FF019E
:100460000F5F1F4F0E30110591F78AE291E00F9058
:100470000F90DF91CF911F910F91FF90EF90089512
:10048000EF92FF920F931F93CF93DF9300D0CDB7DE
:10049000DEB782E1E82E81E0F82E04E110E01A8355
:1004A0000983F70161917F01CE0101960E94FF014E
:1004B0000F5F1F4F0C32110591F782E191E00F9011
:1004C0000F90DF91CF911F910F91FF90EF900895C2
:1004D0001F920F920FB60F9211242F933F934F93B9
:1004E0005F936F937F938F939F93AF93BF93EF939C
:1004F000FF9389E791E00E942401FF91EF91BF9162
:10050000AF919F918F917F916F915F914F913F91AB
:100510002F910F900FBE0F901F9018951F920F9262
:100520000FB60F9211242F938F939F93EF93FF9306
:10053000E0918901F0918A018081E0918F01F09131
:10054000900182FD1BC09081809192018F5F8F731B
:1005500020919301821741F0E0919201F0E0E75879
:10056000FE4F958F80939201FF91EF919F918F9114
:100570002F910F900FBE0F901F9018958081F4CF90
:100580001F920F920FB60F9211242F933F938F93C8
:100590009F93AF93BF9380914B0190914C01A09199
:1005A0004D01B0914E013091480123E0230F2D37CA
:1005B00058F50196A11DB11D2093480180934B0170
:1005C00090934C01A0934D01B0934E018091440152
:1005D00090914501A0914601B09147010196A11D5E
:1005E000B11D8093440190934501A0934601B093BF
:1005F0004701BF91AF919F918F913F912F910F90A4
:100600000FBE0F901F90189526E8230F0296A11D8C
:10061000B11DD2CFCF93DF9300D0CDB7DEB77894A2
:1006200084B5826084BD84B5816084BD85B58260F7
:1006300085BD85B5816085BD80916E0081608093A8
:100640006E00109281008091810082608093810011
:100650008091810081608093810080918000816021
:10066000809380008091B10084608093B10080917C
:10067000B00081608093B00080917A0084608093A4
:100680007A0080917A00826080937A0080917A006B
:10069000816080937A0080917A00806880937A00EC
:1006A0001092C100E0918901F0918A0182E080837B
:1006B000E0918501F09186011082E0918701F0912F
:1006C000880183E3808310929101E0918D01F09184
:1006D0008E0186E08083E0918B01F0918C01808116
:1006E00080618083E0918B01F0918C018081886032
:1006F0008083E0918B01F0918C0180818068808300
:10070000E0918B01F0918C0180818F7D808390E05E
:1007100080E00E94E4068093490181E090E00E941D
:10072000E40680934A018091490190914A01811524
:10073000944509F48CC01A82198260E0CE010196BA
:100740000E94FF0181E090E09A83898364E5CE01F5
:1007500001960E94FF010E9418020E94400282E05E
:100760000E94870083E00E94870084E00E94870047
:1007700085E00E94870086E00E94870087E00E9453
:10078000870088E00E94870089E00E9487008AE055
:100790000E9487008BE00E9487008CE00E94870007
:1007A0008DE00E9487009DE0C92E91E0D92E2AE2BB
:1007B000A22E21E0B22E912C812C30E0E32E30E0ED
:1007C000F32E11E00FEF2FB7F89480914B01909129
:1007D0004C01A0914D01B0914E012FBF40910E01EF
:1007E00050910F0160911001709111012C013D0198
:1007F000441A550A660A770AB301A201483C51051A
:100800006105710508F47FC180930E0190930F017B
:10081000A0931001B0931101809117028B3FD0F586
:100820008F5F809317028091160291E0980F90934A
:100830001602853198F189E791E00E9404011816AB
:10084000190654F589E791E00E94E200F4CF5AE2DC
:10085000E52E51E0F52E06E010E0C8010E94E40606
:10086000F70181937F010F5F1F4F0E301105A9F72C
:1008700042E1E42E41E0F42E04E110E0C8010E94C0
:10088000E406F70181937F010F5F1F4F0C321105C2
:10089000A9F765CF8CE0C5CF109216029091170290
:1008A00020912D019D3038F0222309F4DBC1009303
:1008B000780100937701809176013FEF380F4091E6
:1008C0007501841799F0323088F480937501109285
:1008D000740110927301823009F4C9C140912B0157
:1008E000842F880F880F840F809374018091730187
:1008F000882329F0815080937301109274018091B4
:100900007401882319F0815080937401323010F4FF
:100910009B3030F0109274011092730110927501A7
:100920009091740180917301222309F4ACC110925B
:1009300072019111A5C11092710181111093720180
:100940002DE63CE147E650E4609166017091670155
:1009500080916801909169010E9437076093660158
:1009600070936701809368019093690140917801C9
:1009700050E0EFE4F1E090E080E09A01082E02C040
:10098000359527950A94E2F72170219301968830D6
:10099000910599F74091770150E0E7E5F1E090E0AB
:1009A00080E09A01082E02C0359527950A94E2F757
:1009B0002170219301968830910599F780917101FA
:1009C00080935F018091720180936001709070014B
:1009D000872D81708093610171FA882780F9809357
:1009E000620110926301E0911201EE2339F0F0E010
:1009F000E25BFE4F60818DE00E94B301E091130144
:100A0000EE2339F0F0E0E25BFE4F608185E00E946A
:100A1000B301E0911401EE2339F0F0E0E25BFE4F08
:100A2000608186E00E94B301E0911501EE2339F068
:100A3000F0E0E25BFE4F608187E00E94B301E0914D
:100A40001601EE2339F0F0E0E25BFE4F608188E0B2
:100A50000E94B301E0911701EE2339F0F0E0E25B70
:100A6000FE4F608189E00E94B301E0911801EE23FE
:100A700039F0F0E0E25BFE4F60818AE00E94B30152
:100A8000E0911901EE2339F0F0E0E25BFE4F608166
:100A90008BE00E94B301E0911A01EE2339F0F0E0FF
:100AA000E25BFE4F60818CE00E94B301E0911B018C
:100AB000EE2339F0F0E0E25BFE4F608184E00E94BB
:100AC000B3018091120180930501809113018093FD
:100AD000060170920701E2E0F1E090E080E02191F0
:100AE000820F911DCE16DF06D1F780930D014EE0E7
:100AF00050E060E071E089E791E00E94A60089E79C
:100B000091E00E94930189E791E00E94040105971A
:100B1000ECF080916F01811119C080916E018111FB
:100B200015C089E791E00E94E20020916C013091AC
:100B30006D012038310509F0B5C0813809F0B2C027
:100B400010936F0110926D0110926C0189E791E092
:100B50000E9404010397D4F080916F018823B1F0C3
:100B600080916E01811112C089E791E00E94E2003C
:100B700089E791E00E94E20080936B0189E791E0B0
:100B80000E94E20080936A0110936E0189E791E070
:100B90000E94040120916A01281719060CF087C0F1
:100BA00080916F01882309F482C080916E018823AF
:100BB00009F47DC080916B018F3E09F084C089E704
:100BC00091E00E94E20089E791E00E94E200BC010E
:100BD000990F880B990B0E94FC0660936601709335
:100BE0006701809368019093690189E791E00E9411
:100BF000E2008093760189E791E00E94E200682E8E
:100C00008093700189E791E00E94E20089E791E01A
:100C10000E94E20089E791E00E94E200782E809332
:100C2000780189E791E00E94E2008093770180914A
:100C30002D01882331F0609460927001709470925D
:100C4000780189E791E00E94E20010921702109269
:100C5000160210926E0110926F0110926A011092AA
:100C60006B0125C0109278011092770124CE40913B
:100C70002A01842F880F880F840F8093730136CE4A
:100C8000109371015ACE10937201911108C0109304
:100C90007101882309F454CE1092720151CE109242
:100CA0007101F7CF992790936D0180936C01E11446
:100CB000F10409F488CD0E941001882309F483CD42
:100CC0000E94000080CD8E3EF1F589E791E00E9400
:100CD000E20080932A0189E791E00E94E20080937C
:100CE0002B0189E791E00E94E20080932C0189E7C3
:100CF00091E00E94E20080FF23C010932D0189E75C
:100D000091E00E94E20080932E0189E791E00E9429
:100D1000E20080932F0189E791E00E94E200809336
:100D2000300189E791E00E94E2008093310189E778
:100D300091E00E94E2000E941802F401099589CF17
:100D400010922D01DCCF8C3E09F083CF82E1682E1A
:100D500081E0782E89E791E00E94E200F30181931F
:100D60003F01AE16BF06B1F70E94400272CFE9E71D
:100D7000F1E01382128288EE93E0A0E0B0E0848379
:100D80009583A683B78386E391E09183808385EC86
:100D900090E09587848784EC90E09787868780EC45
:100DA00090E0918B808B81EC90E0938B828B82EC36
:100DB00090E0958B848B86EC90E0978B868B118EE0
:100DC000128E138E148E0895F999FECF92BD81BDB7
:100DD000F89A992780B50895262FF999FECF1FBA62
:100DE00092BD81BD20BD0FB6F894FA9AF99A0FBE54
:100DF00001960895E89409C097FB3EF4909580957C
:100E0000709561957F4F8F4F9F4F9923A9F0F92FD0
:100E100096E9BB279395F695879577956795B7954E
:100E2000F111F8CFFAF4BB0F11F460FF1BC06F5F34
:100E30007F4F8F4F9F4F16C0882311F096E911C046
:100E4000772321F09EE8872F762F05C0662371F067
:100E500096E8862F70E060E02AF09A95660F771F7B
:100E6000881FDAF7880F9695879597F908950E945D
:100E70004A070C94BB070E94AD0738F00E94B407E4
:100E800020F0952311F00C94A4070C94AA071124C8
:100E90000C94EF070E94CC0770F3959FC1F3950F58
:100EA00050E0551F629FF001729FBB27F00DB11DEE
:100EB000639FAA27F00DB11DAA1F649F6627B00D7E
:100EC000A11D661F829F2227B00DA11D621F739F67
:100ED000B00DA11D621F839FA00D611D221F749F75
:100EE0003327A00D611D231F849F600D211D822FBC
:100EF000762F6A2F11249F5750409AF0F1F08823E3
:100F00004AF0EE0FFF1FBB1F661F771F881F91500F
:100F10005040A9F79E3F510580F00C94A4070C9413
:100F2000EF075F3FE4F3983ED4F386957795679596
:100F3000B795F795E7959F5FC1F7FE2B880F911D39
:100F40009695879597F9089597F99F6780E870E0DF
:100F500060E008959FEF80EC089500240A9416162F
:100F6000170618060906089500240A941216130697
:100F7000140605060895092E0394000C11F4882325
:100F800052F0BB0F40F4BF2B11F460FF04C06F5F41
:100F90007F4F8F4F9F4F089557FD9058440F551F17
:100FA00059F05F3F71F04795880F97FB991F61F0EB
:100FB0009F3F79F087950895121613061406551F62
:100FC000F2CF4695F1DF08C0161617061806991FCE
:100FD000F1CF86957105610508940895E894BB27C3
:100FE00066277727CB0197F90895EE0FFF1F05902D
:0A0FF000F491E02D0994F894FFCF6E
:100FFA0080817FED080000000000000000CCC800DE
:10100A0000000102030000000000000000000000D0
:10101A0000000000000000000000020400000000C0
:10102A000000000000004601A600D300930104015D
:04103A00E200F600DA
:00000001FF
