:100000000C9478000C94A0000C94A0000C94A00018
:100010000C94A0000C94A0000C94A0000C94A000E0
:100020000C94A0000C94A0000C94A0000C94A000D0
:100030000C94A0000C94A0000C94A0000C94A000C0
:100040000C94DC080C94A0000C94AA080C9484086E
:100050000C94A0000C94A0000C94A0000C94A000A0
:100060000C9426090C94A00045000082000040007A
:100070002000010800060400010000000024002701
:10008000002A0000000000250028002B00040404C2
:100090000404040404020202020202030303030331
:1000A000030102040810204080010204081020010E
:1000B00002040810200000000800020100000304F0
:1000C0000700000000000000004661696C656420C4
:1000D000746F206163636573732045746865726E25
:1000E000657420636F6E74726F6C6C657200410A88
:1000F00011241FBECFEFD8E0DEBFCDBF11E0A0E0DE
:10010000B1E0E4E0F3E202C005900D92AC3BB10730
:10011000D9F724E0ACEBB1E001C01D92A033B207E7
:10012000E1F710E0C8E7D0E004C02197FE010E948B
:100130006D11C737D107C9F70E94780A0C94801156
:100140000C940000CF93DF93209189032223C1F008
:10015000FC0120812223A1F0C9E8D3E0A5E8B3E0A7
:100160009C012C5F3F4F899141919D918427892368
:1001700039F4E217F307B9F781E0DF91CF910895E1
:1001800080E0FBCFAF92BF92CF92DF92EF92FF92CF
:100190000F931F93CF93DF936C017B018B01040FAF
:1001A000151FEB015E01AE18BF08C017D10759F04B
:1001B0006991D601ED91FC910190F081E02DC6018D
:1001C0000995892B79F7C501DF91CF911F910F9187
:1001D000FF90EF90DF90CF90BF90AF900895FC011B
:1001E000538D448D252F30E0842F90E0821B930B9C
:1001F000541710F0CF96089501970895FC01918D42
:10020000828D981761F0A28DAE0FBF2FB11D5D9644
:100210008C91928D9F5F9F73928F90E008958FEFE6
:100220009FEF0895FC01918D828D981731F0828D9A
:10023000E80FF11D858D90E008958FEF9FEF0895F1
:10024000FC01918D228D892F90E0805C9F4F821B55
:1002500091098F73992708958DE893E00E942001FA
:1002600021E0892B09F420E0822F089580E090E0BE
:10027000892B29F00E942C0181110C940000089513
:10028000FC01A48DA80FB92FB11DA35ABF4F2C910B
:10029000848D90E001968F739927848FA689B78902
:1002A0002C93A089B1898C91837080648C93938DF9
:1002B000848D981306C00288F389E02D80818F7D9C
:1002C00080830895EF92FF920F931F93CF93DF9354
:1002D000EC0181E0888F9B8D8C8D98131AC0E88982
:1002E000F989808185FF15C09FB7F894EE89FF8951
:1002F0006083E889F98980818370806480839FBFEF
:1003000081E090E0DF91CF911F910F91FF90EF90EE
:100310000895F62E0B8D10E00F5F1F4F0F731127FE
:10032000E02E8C8D8E110CC00FB607FCFACFE88939
:10033000F989808185FFF5CFCE010E944001F1CF80
:10034000EB8DEC0FFD2FF11DE35AFF4FF0829FB7AD
:10035000F8940B8FEA89FB8980818062CFCFCF939D
:10036000DF93EC01888D8823B9F0AA89BB89E889DD
:10037000F9898C9185FD03C0808186FD0DC00FB683
:1003800007FCF7CF8C9185FFF2CF808185FFEDCF01
:10039000CE010E944001E9CFDF91CF91089590E016
:1003A000FC01EB54FF4F2491FC01EF55FF4F3491BA
:1003B000FC01E357FF4FE491EE23C9F0222339F00B
:1003C000233001F1A8F4213019F1223029F1F0E0B5
:1003D000EE0FFF1FED57FF4FA591B4918FB7F89423
:1003E000EC91611126C030953E233C938FBF089558
:1003F0002730A9F02830C9F0243049F780918000D7
:100400008F7D03C0809180008F7780938000DFCF45
:1004100084B58F7784BDDBCF84B58F7DFBCF809192
:10042000B0008F778093B000D2CF8091B0008F7DE5
:10043000F9CF3E2BDACFCF93DF9390E0FC01EF555D
:10044000FF4F249183579F4FFC0184918823D1F063
:1004500090E0880F991FFC01E758FF4FA591B491D8
:10046000FC01ED57FF4FC591D49161110EC09FB7AC
:10047000F8948C91E22FE0958E238C932881E223CF
:10048000E8839FBFDF91CF9108958FB7F894EC91E7
:10049000E22BEC938FBFF6CF3FB7F89480912F02F9
:1004A00090913002A0913102B091320226B5A89B02
:1004B00005C02F3F19F00196A11DB11D3FBFBA2FF6
:1004C000A92F982F8827BC01CD01620F711D811DB6
:1004D000911D42E0660F771F881F991F4A95D1F73B
:1004E00008958F929F92AF92BF92CF92DF92EF9238
:1004F000FF924B015C010E944C026B017C010E9447
:100500004C026C197D098E099F09683E7340810574
:100510009105A8F328EEC20E23E0D21EE11CF11CC7
:100520008A9489288A288B2829F0812C912C5401BF
:100530008394E5CFFF90EF90DF90CF90BF90AF9086
:100540009F908F9008952091E401260F3327331F49
:1005500021323105ECF420910802FC0190E080E0AA
:10056000243069F082E00895A091E4012191AC016A
:100570004C535E4FA40FB52FB11D2C9301968617D7
:1005800098F38091E401680F6093E40180E008959E
:1005900081E0089508958FEF9FEF08958FEF9FEF0B
:1005A00008958091BD0190E09195819591090895FC
:1005B000CF93DF93CB01EA01642F0E94A302CE0107
:1005C000DF91CF910895CF93DF931F92CDB7DEB720
:1005D000698361E0CE0101960E94A30281E090E070
:1005E0000F90DF91CF9108950F931F93CF93DF93D7
:1005F00070E06F557D4F2130A9F48A01075F1F4FCE
:1006000030E020E0EB01FA01E230F10578F0A99149
:10061000B991BA27AB27BA270A0F1B1F211D311D1D
:100620003297F2CF00E010E09801ECCFFA01EE7FB4
:100630006E0F7F1F4E175F0769F0FB01408150E08E
:1006400070E060E0762F652F542F4427040F151FAC
:10065000261F371FA9016627772741155105610518
:10066000710519F022273327F1CF00951095E82F57
:10067000F0E0EF55FD4F10830183DF91CF911F9183
:100680000F9108958EBD0DB407FEFDCF089561E072
:10069000809133020E94CF0178940895F89460E02D
:1006A000809133020C94CF010F931F93CF93DF936C
:1006B000EC018B010E944E032097B9F08AE30E945F
:1006C00042031EBCF801CE01019739F00DB407FEBC
:1006D000FDCF2EB51EBC2193F7CF2197C00FD11FA0
:1006E0000DB407FEFDCF8EB58883DF91CF911F91AA
:1006F0000F910C9447031F93CF93DF93182FC62FAE
:10070000D42F0E944E038C2F8F71812B0E944203A5
:100710008D2F0E944203DF91CF911F910C944703CC
:10072000CF93C82FC0768091BC018C1799F043E01D
:100730006FE180EA0E947B03C093BC014C2F50E024
:1007400085E0559547958A95E1F76FE180E8CF916F
:100750000C947B03CF910895CF93DF93C82FD62FAE
:100760000E9490034D2F6C2F80E4DF91CF910C9469
:100770007B03CF93DF93C82FD72F0E94AC036D2F3D
:1007800081E08C0FDF91CF910C94AC03CF93C82FF5
:100790000E9490030E944E038C2F8F710E9442038F
:1007A00080E00E944203C7FF03C080E00E94420332
:1007B000CEB50E9447038C2FCF910895CF93DF933E
:1007C000EC0140E86FE180E80E947B0340E86FE1C4
:1007D00080EA0E947B034AE06CE180EA0E947B038E
:1007E00060E07CE082E00E94B903BE01745F86E0B5
:1007F0000E94B90340E060E08AE70E947B030E9408
:100800004E032097B1F08AE70E9442038091A10233
:100810008EBDE2EAF2E0CF55DD4FEC17FD0731F077
:1008200081910DB407FEFDCF8EBDF7CF0DB407FE4D
:10083000FDCF0E94470348E06FE180E80E947B0300
:10084000D0E0C0E08CE10E94C6038A7029F42196B2
:10085000C83E83E0D807B1F78CE10E94C60381FD52
:1008600003C0C83ED34039F448E06FE180EADF912D
:10087000CF910C947B03DF91CF9108950F931F9339
:10088000CF93DF938C01C1EAD2E04C96988B8CE138
:10089000800F898B188E198E80E48C8B1D8A8E8B2D
:1008A00020E044E150E06EE088E10E94F402C801DB
:1008B00008969EA388E0800F8FA3A801405F5F4F3A
:1008C00021E06AE188E20E94F402C8018A96DF9181
:1008D000CF911F910F910C94DE0390E080E008957A
:1008E000DC0196E0FB0101900D929A95E1F70895E5
:1008F000CF93DF93EB0144E050E0BC018DEB92E03D
:100900000E947311892B49F467EB72E0CE010E94BB
:10091000700481E0DF91CF91089580E0FBCFBC01AE
:1009200081EA92E00E94700462E672E087EA92E057
:100930000C947004DC0194E0FB0101900D929A95F7
:10094000E1F70895FB0101900020E9F73197AF012D
:10095000461B570BDC01ED91FC910280F381E02DE9
:1009600009948F929F92AF92BF92EF92FF920F9352
:100970001F93CF93DF93CDB7DEB7A1970FB6F8944F
:10098000DEBF0FBECDBF7C01FA01CB0119A2223020
:1009900008F42AE08E010F5D1F4F822E912CB12C9E
:1009A000A12CBF01A50194010E944B11F901CA01BC
:1009B0006A300CF5605DD8016E938D01232B242BDA
:1009C000252B79F790E080E0109721F0BD01C70159
:1009D0000E94A204A1960FB6F894DEBF0FBECDBF51
:1009E000DF91CF911F910F91FF90EF90BF90AF904B
:1009F0009F908F900895695CDECF8F929F92AF9207
:100A0000BF92CF92DF92EF92FF920F931F93CF93FB
:100A1000DF937C01EB016C0182E0C80ED11C470121
:100A2000E5E08E0E911C10E000E0F60141916F01AF
:100A300050E070E060E02AE0CE010E94B1045C0169
:100A4000E881F9810190F081E02D6EE2CE010995F7
:100A50008A0D9B1D080F191FC814D90431F7F7011F
:100A6000458150E070E060E02AE0CE010E94B104D0
:100A7000800F911FDF91CF911F910F91FF90EF9009
:100A8000DF90CF90BF90AF909F908F9008950F937D
:100A90001F93CF93DF93D62FC72FBC018DE893E030
:100AA0000E94A2040D2F1C2FC0E0F80141918F017C
:100AB00050E070E060E02AE08DE893E00E94B1042D
:100AC000C33029F06EE28DE893E00E946201CF5FAF
:100AD000C43059F76DE771E08DE893E0DF91CF9175
:100AE0001F910F910C94A2041F93CF93DF9385ED78
:100AF0008093BC008091C0019091C101A091C2017E
:100B0000B091C3010796A11DB11D23E0B695A7952D
:100B1000979587952A95D1F72091BC0024FD03C0B5
:100B20001092080252C04091C0015091C1016091E1
:100B3000C2017091C301452B462B472B69F30097E7
:100B4000A105B10541F02AE22A95F1F700C001970D
:100B5000A109B109E1CF8091BF01C1E0C093BE01FD
:100B6000882399F1D091B8001091BA008091BC000F
:100B70008A7B8093BC0060E082E10E94CF0160E04C
:100B800083E10E94CF0110920802C0930A021092E2
:100B9000090261E082E10E94CF0161E083E10E94ED
:100BA000CF018091B9008E7F8093B9008091B90008
:100BB0008D7F8093B90088E48093B80085E48093AA
:100BC000BC001093BA00D093B800DF91CF911F9171
:100BD00008950F931F93CF938C018FE591E00E94AE
:100BE0008F04E1EAF2E088E08487C6E0C58748E048
:100BF00050E061E770E08FEA92E00E943110E1EC92
:100C0000F2E0DF011D92CA95E9F762E672E087EB38
:100C100092E00E947004B80187EC92E00E949A046E
:100C200069E873E08DEB92E00E949A048AE290E01A
:100C3000CF911F910F910C94DE03EF92FF920F93CF
:100C40001F93CF93DF93182F092FEB01F42EE52E7E
:100C5000CB010E94A200882309F452C085E992E0EA
:100C60000E948F04BE018FEB92E00E949A0469E813
:100C700073E08BEB92E00E949A048881807F803E33
:100C800091F088819981AA81BB818F3F9F4FAF4F9F
:100C9000BF4F49F044E050E0BE0188E692E00E9478
:100CA0007311892B31F46FE571E081EA92E00E94C3
:100CB000700488E08093AD021092AE0249E050E0EB
:100CC00068E670E08FEA92E00E9431101092B10263
:100CD00081E18093B802E092C502F092C6020093CF
:100CE000C3021093C4021092C7021092C90210925C
:100CF000CA02DF91CF911F910F91FF90EF9008955D
:100D00008BE992E0ADCFFF920F931F93CF93DF93C8
:100D1000EC01F62E08811981C8010E943A10F816DC
:100D200021F06F2DC8010E944210CE01DF91CF91BA
:100D30001F910F91FF900895EF92FF920F931F93D1
:100D4000CF93DF9300D0CDB7DEB787E5E82E81E003
:100D5000F82E06E010E01A830983F70161917F0104
:100D6000CE0101960E9483060F5F1F4F0E301105C2
:100D700091F787E591E00F900F90DF91CF911F9150
:100D80000F91FF90EF900895EF92FF920F931F93B2
:100D9000CF93DF9300D0CDB7DEB78FE3E82E81E0AD
:100DA000F82E04E110E01A830983F70161917F01B5
:100DB000CE0101960E9483060F5F1F4F0C32110572
:100DC00091F78FE391E00F900F90DF91CF911F91FA
:100DD0000F91FF90EF9008950F931F93CF93DF93A0
:100DE00000D0CDB7DEB782E390E09A8389830CE32D
:100DF00011E0F8016081CE0101960E94830683E331
:100E000090E09A838983F8016181CE0101960E9466
:100E1000830684E390E09A838983F8016281CE019E
:100E200001960E948306C8010F900F90DF91CF9129
:100E30001F910F9108950F931F93CF93DF93CDB719
:100E4000DEB72D970FB6F894DEBF0FBECDBFD90128
:100E50008C91803809F043C011968C91119781389C
:100E6000F1F512968C9112978F37C9F58901FB0124
:100E700013968C9113978F3EE9F516966C9170E05E
:100E800090E080E00E9450106093590270935A02E3
:100E900080935B0290935C02D80117968C91179710
:100EA0008093810318962C911897209341021B96EA
:100EB0009C911B97909383031C968C918093820343
:100EC00030915A01332349F02095209341029095A7
:100ED00090938303809580938203109237012D961F
:100EE0000FB6F894DEBF0FBECDBFDF91CF911F913B
:100EF0000F910895883CB9F5F9018781813061F43B
:100F000080918203909183039F5F909383038F5F0F
:100F100080938203109237018091830380930901AB
:100F20008091820380930A014FE057E265E271E00D
:100F300083E094E10E941D068BE0E4E0F1E0ABEC7D
:100F4000B2E001900D928A95E1F78BE090E02D964A
:100F50000FB6F894DEBF0FBECDBFDF91CF911F91CA
:100F60000F910C943E048E3E91F515968C91159739
:100F70008093570116968C91169780935801179677
:100F80008C9117978093590118968C9180FF1CC003
:100F900081E080935A01F801818580935B0182850D
:100FA00080935C01838580935D01848580935E01DD
:100FB0002D960FB6F894DEBF0FBECDBFDF91CF9157
:100FC0001F910F910C949C0610925A01E4CF893C1A
:100FD00079F514968C911497853009F080CF159689
:100FE0008C911597893C09F07ACF16968C911697BB
:100FF000893C09F074CF17968C91179780933C0128
:1010000018968C91189780933D0119968C91809336
:101010003E010E94EC06F0E0E0E02D960FB6F89459
:10102000DEBF0FBECDBFDF91CF911F910F9109940D
:101030008A3C09F04FC014968C911497833009F0C4
:101040004ECF15968C9115978A3C09F048CF16968D
:101050008C918A3C09F043CF80E8898381E88A83B8
:101060008BE78B839BEC9C8397E09D83898787E14B
:101070008D8780913C018E8380913D018F8380918B
:101080003E01888780818A8781818B8782818C87D6
:10109000FE0133969E01235F3F4F90E080E0419137
:1010A000840F911D2E173F07D1F78D874FE057E230
:1010B00060E071E083E094E10E941D068DE0FE0196
:1010C0003196ABECB2E001900D928A95E1F78DE09C
:1010D00090E03DCF8C3E09F002CFF9013596AFE3A9
:1010E000B1E0035E1F4F81918D93E017F107D9F7AF
:1010F0002D960FB6F894DEBF0FBECDBFDF91CF9116
:101100001F910F910C94C4061F920F920FB60F926D
:1011100011242F933F934F935F936F937F938F93FC
:101120009F93AF93BF93EF93FF938DE893E00E945B
:101130004001FF91EF91BF91AF919F918F917F916E
:101140006F915F914F913F912F910F900FBE0F9034
:101150001F9018951F920F920FB60F9211242F9384
:101160008F939F93EF93FF93E0919D03F0919E03E4
:101170008081E091A303F091A40382FD1BC09081C4
:101180008091A6038F5F8F732091A703821741F090
:10119000E091A603F0E0E357FC4F958F8093A60300
:1011A000FF91EF919F918F912F910F900FBE0F9014
:1011B0001F9018958081F4CF1F920F920FB60F9257
:1011C00011242F933F938F939F93AF93BF9380915D
:1011D0003D0290913E02A0913F02B09140023091B9
:1011E0002E0223E0230F2D3758F50196A11DB11DC6
:1011F00020932E0280933D0290933E02A0933F02E3
:10120000B093400280912F0290913002A091310260
:10121000B09132020196A11DB11D80932F029093CF
:101220003002A0933102B0933202BF91AF919F91EF
:101230008F913F912F910F900FBE0F901F90189597
:1012400026E8230F0296A11DB11DD2CF1F920F9247
:101250000FB60F9211242F933F934F935F936F9389
:101260007F938F939F93AF93BF93EF93FF9380915F
:10127000B900887F803609F44AC0F0F5883209F455
:10128000A5C018F5803109F499C0B8F4882309F491
:10129000F5C0883009F492C0FF91EF91BF91AF91F2
:1012A0009F918F917F916F915F914F913F912F917E
:1012B0000F900FBE0F901F901895883109F486C0CB
:1012C000803251F78093070214C0803409F49BC028
:1012D00040F48033B9F38833F9F68093070285EC44
:1012E000AEC0803509F483C0883509F494C08834D1
:1012F00099F60E947405D0CF883909F48AC038F570
:10130000883729F050F4883611F0803729F683E0C9
:10131000809308021092060255C0883809F479C0FB
:10132000803919F0803809F0B7CF809106028032F9
:1013300008F06FC0E091060281E08E0F80930602F4
:101340008091BB00F0E0EA51FE4F80833BC0803BC0
:1013500039F0D0F4803A09F477C0883A09F09CCF8C
:1013600084E0809308021092E5011092E401F0E01D
:10137000E0E009958091E40181110FC081E0809344
:10138000E4011092C40109C0803C09F4A8CF883C54
:1013900009F4A5CF883B09F07FCFE091E50181E01A
:1013A0008E0F8093E501F0E0EC53FE4F8081809337
:1013B000BB009091E5018091E40129C080912D024C
:1013C0008093BB0085EC8093BC0066CF90912C028B
:1013D00080912B02981758F5E0912C0281E08E0F36
:1013E00080932C02F0E0E55FFD4F8081E9CFE09132
:1013F0002C0281E08E0F80932C028091BB00F0E0E4
:10140000E55FFD4F808390912C0280912B0298170D
:10141000C8F285E8D8CFE0912C0281E08E0F80934E
:101420002C028091BB00F0E0E55FFD4F808380914E
:101430000A0281115ECF81E08093090284EA8093E1
:10144000BC001092080228CF85EC8093BC0010925B
:10145000080280910602803230F4E0910602F0E04A
:10146000EA51FE4F10826091060270E086EE91E034
:10147000F0E0E0E00995109206020ECF109207020C
:1014800038CFEDE8F3E01382128288EE93E0A0E01B
:10149000B0E084839583A683B78389E691E0918346
:1014A000808385EC90E09587848784EC90E0978733
:1014B000868780EC90E0918B808B81EC90E0938B21
:1014C000828B82EC90E0958B848B86EC90E0978BFE
:1014D000868B118E128E138E148EEAE2F4E08BE767
:1014E00091E0918380831282138214821582089581
:1014F000CF93DF9300D000D000D0CDB7DEB7789483
:1015000084B5826084BD84B5816084BD85B5826008
:1015100085BD85B5816085BD80916E0081608093B9
:101520006E00109281008091810082608093810022
:101530008091810081608093810080918000816032
:10154000809380008091B10084608093B10080918D
:10155000B00081608093B00080917A0084608093B5
:101560007A0080917A00826080937A0080917A007C
:10157000816080937A0080917A00806880937A00FD
:101580001092C100E0919D03F0919E0382E0808360
:10159000E0919903F0919A031082E0919B03F091FE
:1015A0009C0383E380831092A503E091A103F09153
:1015B000A20386E08083E0919F03F091A0038081E5
:1015C00080618083E0919F03F091A0038081886017
:1015D0008083E0919F03F091A003808180688083E5
:1015E000E0919F03F091A00380818F7D808390E044
:1015F00080E00E943A1080933B0281E090E00E94DC
:101600003A1080933C0280913B0290913C028532DB
:101610009445B9F11A82198265E2CE0101960E94C1
:10162000830681E090E09A83898364E5CE01019688
:101630000E9483060E949C060E94C4060E94EC063B
:1016400087E390E0C12CD12C7601C394009709F474
:101650004DC0FC0173E0F595E7957A95E1F7EC5CF8
:10166000FD4F282F2770B701A60104C0440F551F56
:10167000661F771F2A95D2F72081242B208301979C
:10168000E5CFA7E5EA2EA1E0FA2E06E010E0C801BA
:101690000E943A10D7018D937D010F5F1F4F0E30CE
:1016A0001105A9F7FFE3EF2EF1E0FF2E04E110E0B2
:1016B000C8010E943A10F70181937F010F5F1F4F0D
:1016C0000C321105A9F782E390E00E943A10809352
:1016D0003C0183E390E00E943A1080933D0184E353
:1016E00090E00E943A1080933E01AACF6FE171E032
:1016F00082E692E00E94700488EC90E090935E0293
:1017000080935D020CB406FC25C061E08AE00E9473
:101710001B0261E08AE00E94CF0161E08BE00E9441
:101720001B0261E08DE00E941B0260E08CE00E94E1
:101730001B0261E08BE00E94CF0160E08BE00E9421
:10174000CF0160E08DE00E94CF0180E58CBD8DB5BA
:1017500081608DBD8AE08093330261E00E941B02AC
:101760000E9447034FEF60E08FEF0E947B0362E02F
:1017700070E080E090E00E9471020E944E038DE1D3
:101780000E94420380E00E9442031EB50E9447036C
:10179000112399F370E060E088E00E94B90370E0E3
:1017A00060E08CE00E94B9036FEF7BE08AE00E946A
:1017B000B90360E07CE084E00E94B9036FEF71E15F
:1017C00086E00E94B90361EB88E30E94AC036FE3FB
:1017D00070E388E20E94B90369EF77EF80E30E942B
:1017E000B9036DE080EC0E94AC0360E081EC0E94E4
:1017F000AC0342E362EC80E80E947B0362E17CE0A0
:1018000086EC0E94B90362E184EC0E94AC036CEDAB
:1018100075E08AEC0E94B9036091620284EE0E9436
:10182000AC036091630285EE0E94AC036091640298
:1018300082EE0E94AC036091650283EE0E94AC03CD
:101840006091660280EE0E94AC036091670281EEB7
:101850000E94AC0360E184ED0E94AC0360E071E0A3
:1018600086ED0E94B9038AEE0E94C60380FDFBCF7D
:101870008FE10E94900340EC6BE180E80E947B03C3
:1018800044E06FE180E80E947B0382E70E94C60388
:10189000863008F08F5F811114C009EC10E0F80168
:1018A0006491662341F08DE893E00E9462010F5F2E
:1018B0001F4F892BA1F76DE771E08DE893E00E943F
:1018C000A20420913C0120931B0190913D01909333
:1018D0001C0180913E0180931D012093170190937C
:1018E000180180931901209325019093260180937C
:1018F00027016BE171E089E893E00E949A0410925D
:101900007A031092790381E080937B0367E171E0B1
:1019100085E793E00E949A0463E171E081E793E038
:101920000E949A046FE071E085E893E00E949A04B7
:10193000E9E8F3E025E833E068E672E04DE853E0DB
:101940009191D9018D919D018095892BDB018D931A
:10195000BD014E175F07A1F769E873E080E891E0E9
:101960000E94470565E773E087E891E00E9447051C
:1019700065E271E08EE891E00E9447058091940253
:10198000883098F4B5E08B9FF0011124E459FD4FA5
:101990002BE137E03183208328EB32E2338322834B
:1019A00091E094838F5F8093940261E084E00E94D1
:1019B0001B0261E085E00E941B0261E086E00E945C
:1019C0001B0261E087E00E941B0261E088E00E9448
:1019D0001B0261E089E00E941B0265E971E08DE86D
:1019E00093E00E94A2046DE771E08DE893E00E940D
:1019F000A20440E0842E40E0942EFF24F394EE24D1
:101A0000EA9454E1552E62E0462E2FB7F894809167
:101A10003D0290913E02A0913F02B09140022FBF43
:101A2000409138015091390160913A0170913B0128
:101A30008C019D01041B150B260B370BB901A80166
:101A4000483C51056105710508F430C180933801A7
:101A500090933901A0933A01B0933B0180913701F3
:101A60008B3FB8F48F5F809337018091840391E0BE
:101A7000980F90938403853188F08DE893E00E945D
:101A800020011816190644F48DE893E00E94FE0028
:101A9000F4CF50923701E9CF10928403909137012F
:101AA00020915A01953138F0222309F45FC1E09268
:101AB0008303E0928203809181033FEF380F4091CE
:101AC0008003841799F0323088F480938003109259
:101AD0007F0310927E03823009F44DC1409158017A
:101AE000842F880F880F840F80937F0380917E035B
:101AF000882329F0815080937E0310927F03809188
:101B00007F03882319F0815080937F03323010F4D3
:101B10009B3030F010927F0310927E03109280036E
:101B200090917F0380917E03222309F430C11092AB
:101B30007D03911129C110927C038111F0927D03E4
:101B40002DE63CE147E650E46091590270915A025B
:101B500080915B0290915C020E948D10609359020B
:101B600070935A0280935B0290935C0240918303CE
:101B700050E0E2E4F2E090E080E09A01082E02C03A
:101B8000359527950A94E2F72170219301968830C4
:101B9000910599F74091820350E0EAE4F2E090E089
:101BA00080E09A01082E02C0359527950A94E2F745
:101BB0002170219301968830910599F780917C03DB
:101BC0008093520280917D03809353028091410261
:101BD000982F91709093540286958170809355024E
:101BE00010925602E0913F01EE2339F0F0E0EF5BF6
:101BF000FD4F608184E00E94CF01E0914001EE231F
:101C000039F0F0E0EF5BFD4F608185E00E94CF018D
:101C1000E0914101EE2339F0F0E0EF5BFD4F608190
:101C200086E00E94CF01E0914201EE2339F0F0E01E
:101C3000EF5BFD4F608187E00E94CF01E09143019F
:101C4000EE2339F0F0E0EF5BFD4F608188E00E9409
:101C5000CF01E0914401EE2339F0F0E0EF5BFD4F5E
:101C6000608189E00E94CF01EBE2F1E090E080E04A
:101C700022E03191830F911D2F5F2D30D1F780939A
:101C800036014FE057E265E271E083E094E10E94A3
:101C90001D068EE0E9E2F1E0ABECB2E001900D92BE
:101CA0008A95E1F78EE090E00E943E0461E070E0EA
:101CB00080E090E00E94710280916102882379F0B7
:101CC00060915F02709160026115710509F06EC04C
:101CD0006FEF7BE08CE00E94B9031092610289E310
:101CE0000E94C603811165C080917B03857009F055
:101CF00019C18091790390917A03019690937A03A8
:101D00008093790381E793E00E94A200882371F019
:101D10008091700381110AC080916F03811106C008
:101D200081E793E00E94E905F0926F038BE693E070
:101D30000E94A200882371F080916A0381110AC079
:101D400080916903811106C08BE693E00E94E9054A
:101D5000F09269038114910409F457CE0E942C017A
:101D6000882309F452CE0E9400004FCE10928303C4
:101D700010928203A0CE40915701842F880F880FC4
:101D8000840F80937E03B2CEF0927C03D6CEF09285
:101D90007D03911108C0F0927C03882309F4D0CE12
:101DA00010927D03CDCE10927C03F7CF6150710964
:101DB00091CF60915F027091600280E00E94B90350
:101DC000BE016F5F7F4F86E090E00E9454038981DF
:101DD0009A819093600280935F028D819E818C0135
:101DE0000078112787FF12C08B819C810497009196
:101DF0005D0210915E02015011098017910708F4ED
:101E00008C0161EA72E0C8010E945403F801EF55A9
:101E1000FD4F1082F092610240E46EE180E80E9482
:101E20007B030115110509F45FCF0932110508F490
:101E300091CF8091AD02883009F08CCF8091AE02B5
:101E4000863009F096C044E050E069E873E087EC22
:101E500092E00E947311892B09F07CCF8091B60229
:101E6000813021F587EA92E00E948F041092B5023A
:101E70004092B60267EB72E081EC92E00E9470043F
:101E800062E672E087EB92E00E9470046DEB72E014
:101E900087EC92E00E949A0469E873E08DEB92E08F
:101EA0000E949A048AE290E00E94DE0380917B0304
:101EB00083FF0DC01091B602123049F46BE972E055
:101EC00085E793E00E947804811110937B03809151
:101ED0007003811110C080916F03882361F065E960
:101EE00072E081E793E00E947804882321F0F09269
:101EF000700310926F0380916A0381112BCF809140
:101F00006903882309F426CF65E972E08BE693E044
:101F10000E947804882309F41DCFF0926A0310927E
:101F2000690318CF8091790390917A03892B09F086
:101F3000E0CE61E184ED0E94AC0361E082ED0E949D
:101F4000AC038AEE0E94C60380FDFBCF60E082ED09
:101F50000E94AC0389ED0E94C60382FFCACE85E7CA
:101F600093E00E94E90580917B03886080937B0366
:101F7000C0CE0932110509F4EDCE8111EBCE80916E
:101F8000AF02853409F0E6CE44E050E069E873E042
:101F90008FEB92E00E947311892BA9F044E050E08E
:101FA00068E672E08FEB92E00E947311892B59F082
:101FB00044E050E06FE571E08FEB92E00E94731116
:101FC000892B09F0C7CE80919402882309F4C2CEF0
:101FD0008091B802813109F0BDCE3CE6C32E32E0DB
:101FE000D32E712C612C809194028615170409F070
:101FF0000CF4B0CED60112962C91129713969C91A8
:1020000013978091C502A92EB12C8A151B0411F5D6
:102010008091C60282131EC014962C91149722231D
:10202000C9F00091C70210E0102F00272091C802CC
:102030002850330B020F131F4091C3025091C4026A
:10204000542745275427ED91FC912BEC32E06BEBA4
:1020500072E00995BFEF6B1A7B0AE5E0CE0ED11C4A
:10206000C2CFFB01DC0102C005900D9241505040EF
:10207000D8F70895F999FECF92BD81BDF89A9927B6
:1020800080B50895262FF999FECF1FBA92BD81BD64
:1020900020BD0FB6F894FA9AF99A0FBE01960895EA
:1020A000E89409C097FB3EF49095809570956195F2
:1020B0007F4F8F4F9F4F9923A9F0F92F96E9BB27A8
:1020C0009395F695879577956795B795F111F8CF24
:1020D000FAF4BB0F11F460FF1BC06F5F7F4F8F4F8F
:1020E0009F4F16C0882311F096E911C0772321F085
:1020F0009EE8872F762F05C0662371F096E8862F1D
:1021000070E060E02AF09A95660F771F881FDAF773
:10211000880F9695879597F908950E94A0100C94C2
:1021200011110E94031138F00E940A1120F095232A
:1021300011F00C94FA100C94001111240C94451118
:102140000E94221170F3959FC1F3950F50E0551F27
:10215000629FF001729FBB27F00DB11D639FAA27FC
:10216000F00DB11DAA1F649F6627B00DA11D661F4B
:10217000829F2227B00DA11D621F739FB00DA11D6C
:10218000621F839FA00D611D221F749F3327A00D26
:10219000611D231F849F600D211D822F762F6A2FC2
:1021A00011249F5750409AF0F1F088234AF0EE0F27
:1021B000FF1FBB1F661F771F881F91505040A9F754
:1021C0009E3F510580F00C94FA100C9445115F3F2E
:1021D000E4F3983ED4F3869577956795B795F79590
:1021E000E7959F5FC1F7FE2B880F911D9695879508
:1021F00097F9089597F99F6780E870E060E0089587
:102200009FEF80EC089500240A941616170618060E
:102210000906089500240A941216130614060506EA
:102220000895092E0394000C11F4882352F0BB0F7B
:1022300040F4BF2B11F460FF04C06F5F7F4F8F4FDE
:102240009F4F089557FD9058440F551F59F05F3F19
:1022500071F04795880F97FB991F61F09F3F79F0C8
:1022600087950895121613061406551FF2CF46954A
:10227000F1DF08C0161617061806991FF1CF8695CC
:102280007105610508940895E894BB2766277727B0
:10229000CB0197F90895A1E21A2EAA1BBB1BFD01E1
:1022A0000DC0AA1FBB1FEE1FFF1FA217B307E40735
:1022B000F50720F0A21BB30BE40BF50B661F771F8D
:1022C000881F991F1A9469F760957095809590956D
:1022D0009B01AC01BD01CF010895EE0FFF1F0590DA
:1022E000F491E02D0994FB01DC0104C08D91019073
:1022F000801921F441505040C8F7881B990B08956C
:04230000F894FFCF7F
:10230400FFFFFFFF80817B7B05000000000047FF8B
:10231400FFFF0008080808000000010000007B001F
:10232400005600007B000000FF80817FED08010261
:10233400030400000000CC14C8000000C0A805017C
:102344000203000000000000000000000000000084
:10235400000000000000000204000000000000FF74
:10236400FFFFFFFFFF000000006201C200EF00AFAB
:10237400012001FE00120100000000FD040D0A000E
:102384005F49505F3A2000475761793A200041671E
:10239400494F3A2000536574757020636F6D706CFB
:1023A4006574652C2077616974696E6720666F7245
:0C23B4002041674F70656E4750530000D9
:00000001FF
